{"contracts/TokenWhitelist.sol":{"TokenWhitelist":{"abi":[{"inputs":[{"internalType":"address","name":"_owner","type":"address"}],"stateMutability":"nonpayable","type":"constructor"},{"inputs":[{"internalType":"address","name":"owner","type":"address"}],"name":"OwnableInvalidOwner","type":"error"},{"inputs":[{"internalType":"address","name":"account","type":"address"}],"name":"OwnableUnauthorizedAccount","type":"error"},{"anonymous":false,"inputs":[{"indexed":true,"internalType":"address","name":"previousOwner","type":"address"},{"indexed":true,"internalType":"address","name":"newOwner","type":"address"}],"name":"OwnershipTransferred","type":"event"},{"anonymous":false,"inputs":[{"indexed":true,"internalType":"address","name":"token","type":"address"}],"name":"TokenRemoved","type":"event"},{"anonymous":false,"inputs":[{"indexed":true,"internalType":"address","name":"token","type":"address"},{"indexed":false,"internalType":"string","name":"name","type":"string"},{"indexed":false,"internalType":"string","name":"symbol","type":"string"}],"name":"TokenUpdated","type":"event"},{"anonymous":false,"inputs":[{"indexed":true,"internalType":"address","name":"token","type":"address"},{"indexed":false,"internalType":"string","name":"name","type":"string"},{"indexed":false,"internalType":"string","name":"symbol","type":"string"},{"indexed":false,"internalType":"uint8","name":"decimals","type":"uint8"}],"name":"TokenWhitelisted","type":"event"},{"inputs":[{"internalType":"address","name":"token","type":"address"},{"internalType":"string","name":"name","type":"string"},{"internalType":"string","name":"symbol","type":"string"},{"internalType":"uint8","name":"decimals","type":"uint8"}],"name":"addToken","outputs":[],"stateMutability":"nonpayable","type":"function"},{"inputs":[{"internalType":"address[]","name":"_tokens","type":"address[]"},{"internalType":"string[]","name":"names","type":"string[]"},{"internalType":"string[]","name":"symbols","type":"string[]"},{"internalType":"uint8[]","name":"decimalsArray","type":"uint8[]"}],"name":"addTokensBatch","outputs":[],"stateMutability":"nonpayable","type":"function"},{"inputs":[],"name":"getAllTokens","outputs":[{"internalType":"address[]","name":"","type":"address[]"}],"stateMutability":"view","type":"function"},{"inputs":[],"name":"getTokenCount","outputs":[{"internalType":"uint256","name":"","type":"uint256"}],"stateMutability":"view","type":"function"},{"inputs":[{"internalType":"address","name":"token","type":"address"}],"name":"getTokenInfo","outputs":[{"components":[{"internalType":"bool","name":"isWhitelisted","type":"bool"},{"internalType":"string","name":"name","type":"string"},{"internalType":"string","name":"symbol","type":"string"},{"internalType":"uint8","name":"decimals","type":"uint8"},{"internalType":"uint256","name":"addedAt","type":"uint256"}],"internalType":"struct TokenWhitelist.TokenInfo","name":"","type":"tuple"}],"stateMutability":"view","type":"function"},{"inputs":[{"internalType":"address","name":"token","type":"address"}],"name":"isWhitelisted","outputs":[{"internalType":"bool","name":"","type":"bool"}],"stateMutability":"view","type":"function"},{"inputs":[],"name":"owner","outputs":[{"internalType":"address","name":"","type":"address"}],"stateMutability":"view","type":"function"},{"inputs":[{"internalType":"address","name":"token","type":"address"}],"name":"removeToken","outputs":[],"stateMutability":"nonpayable","type":"function"},{"inputs":[],"name":"renounceOwnership","outputs":[],"stateMutability":"nonpayable","type":"function"},{"inputs":[{"internalType":"uint256","name":"","type":"uint256"}],"name":"tokenList","outputs":[{"internalType":"address","name":"","type":"address"}],"stateMutability":"view","type":"function"},{"inputs":[{"internalType":"address","name":"","type":"address"}],"name":"tokens","outputs":[{"internalType":"bool","name":"isWhitelisted","type":"bool"},{"internalType":"string","name":"name","type":"string"},{"internalType":"string","name":"symbol","type":"string"},{"internalType":"uint8","name":"decimals","type":"uint8"},{"internalType":"uint256","name":"addedAt","type":"uint256"}],"stateMutability":"view","type":"function"},{"inputs":[{"internalType":"address","name":"newOwner","type":"address"}],"name":"transferOwnership","outputs":[],"stateMutability":"nonpayable","type":"function"},{"inputs":[{"internalType":"address","name":"token","type":"address"},{"internalType":"string","name":"name","type":"string"},{"internalType":"string","name":"symbol","type":"string"}],"name":"updateTokenInfo","outputs":[],"stateMutability":"nonpayable","type":"function"}],"evm":{"bytecode":{"linkReferences":{},"object":"608060405234801561001057600080fd5b506040516200187d3803806200187d833981016040819052610031916100c0565b806001600160a01b03811661006057604051631e4fbdf760e01b81526000600482015260240160405180910390fd5b61006981610070565b50506100f0565b600080546001600160a01b038381166001600160a01b0319831681178455604051919092169283917f8be0079c531659141344cd1fd0a4f28419497f9722a3daafe3b4186f6b6457e09190a35050565b6000602082840312156100d257600080fd5b81516001600160a01b03811681146100e957600080fd5b9392505050565b61177d80620001006000396000f3fe608060405234801561001057600080fd5b50600436106100cf5760003560e01c80638da5cb5b1161008c578063b88e15f211610066578063b88e15f2146101c7578063e2992c96146101da578063e4860339146101ed578063f2fde38b1461021157600080fd5b80638da5cb5b1461017c5780638e404e9c146101a15780639ead7222146101b457600080fd5b80631f69565f146100d45780632a5c792a146100fd5780633af32abf146101125780635fa7b5841461014e578063715018a61461016357806378a895671461016b575b600080fd5b6100e76100e2366004611022565b610224565b6040516100f4919061108a565b60405180910390f35b6101056103cd565b6040516100f491906110f3565b61013e610120366004611022565b6001600160a01b031660009081526001602052604090205460ff1690565b60405190151581526020016100f4565b61016161015c366004611022565b61042f565b005b610161610602565b6002546040519081526020016100f4565b6000546001600160a01b03165b6040516001600160a01b0390911681526020016100f4565b6101616101af3660046111f4565b610616565b6101896101c2366004611279565b6108ba565b6101616101d53660046112de565b6108e4565b6101616101e83660046113a2565b610c5c565b6102006101fb366004611022565b610e03565b6040516100f4959493929190611416565b61016161021f366004611022565b610f4b565b61025b6040518060a001604052806000151581526020016060815260200160608152602001600060ff168152602001600081525090565b6001600160a01b038216600090815260016020818152604092839020835160a08101909452805460ff161515845291820180549184019161029b9061145b565b80601f01602080910402602001604051908101604052809291908181526020018280546102c79061145b565b80156103145780601f106102e957610100808354040283529160200191610314565b820191906000526020600020905b8154815290600101906020018083116102f757829003601f168201915b5050505050815260200160028201805461032d9061145b565b80601f01602080910402602001604051908101604052809291908181526020018280546103599061145b565b80156103a65780601f1061037b576101008083540402835291602001916103a6565b820191906000526020600020905b81548152906001019060200180831161038957829003601f168201915b5050509183525050600382015460ff16602082015260049091015460409091015292915050565b6060600280548060200260200160405190810160405280929190818152602001828054801561042557602002820191906000526020600020905b81546001600160a01b03168152600190910190602001808311610407575b5050505050905090565b610437610f89565b6001600160a01b03811660009081526001602052604090205460ff166104a45760405162461bcd60e51b815260206004820152601f60248201527f546f6b656e57686974656c6973743a206e6f742077686974656c69737465640060448201526064015b60405180910390fd5b6001600160a01b0381166000908152600160205260408120805460ff191690555b6002548110156105ca57816001600160a01b0316600282815481106104ec576104ec611495565b6000918252602090912001546001600160a01b0316036105b85760028054610516906001906114c1565b8154811061052657610526611495565b600091825260209091200154600280546001600160a01b03909216918390811061055257610552611495565b9060005260206000200160006101000a8154816001600160a01b0302191690836001600160a01b031602179055506002805480610591576105916114da565b600082815260209020810160001990810180546001600160a01b03191690550190556105ca565b806105c2816114f0565b9150506104c5565b506040516001600160a01b038216907f4c910b69fe65a61f7531b9c5042b2329ca7179c77290aa7e2eb3afa3c8511fd390600090a250565b61060a610f89565b6106146000610fb6565b565b61061e610f89565b6001600160a01b0384166106745760405162461bcd60e51b815260206004820152601c60248201527f546f6b656e57686974656c6973743a207a65726f206164647265737300000000604482015260640161049b565b6001600160a01b03841660009081526001602052604090205460ff16156106e95760405162461bcd60e51b815260206004820152602360248201527f546f6b656e57686974656c6973743a20616c72656164792077686974656c69736044820152621d195960ea1b606482015260840161049b565b600083511161073a5760405162461bcd60e51b815260206004820152601a60248201527f546f6b656e57686974656c6973743a20656d707479206e616d65000000000000604482015260640161049b565b600082511161078b5760405162461bcd60e51b815260206004820152601c60248201527f546f6b656e57686974656c6973743a20656d7074792073796d626f6c00000000604482015260640161049b565b6040805160a0810182526001808252602080830187815283850187905260ff861660608501524260808501526001600160a01b0389166000908152918390529390208251815460ff19169015151781559251919291908201906107ee9082611558565b50604082015160028201906108039082611558565b50606082015160038201805460ff191660ff909216919091179055608090910151600490910155600280546001810182556000919091527f405787fa12a823e0f2b7631cc41b3ba8828b3321ca811111fa75cd3aa3bb5ace0180546001600160a01b0319166001600160a01b0386169081179091556040517f56958cfd9a34d9ad6540286497fc4e261f9718cc00321cfbfc6565fe381a65d6906108ac90869086908690611618565b60405180910390a250505050565b600281815481106108ca57600080fd5b6000918252602090912001546001600160a01b0316905081565b6108ec610f89565b86851480156108fa57508683145b801561090557508681145b61095f5760405162461bcd60e51b815260206004820152602560248201527f546f6b656e57686974656c6973743a206172726179206c656e677468206d69736044820152640dac2e8c6d60db1b606482015260840161049b565b60005b87811015610c5157600089898381811061097e5761097e611495565b90506020020160208101906109939190611022565b90506001600160a01b03811615806109c357506001600160a01b03811660009081526001602052604090205460ff165b156109ce5750610c3f565b6040518060a001604052806001151581526020018989858181106109f4576109f4611495565b9050602002810190610a069190611651565b8080601f016020809104026020016040519081016040528093929190818152602001838380828437600092019190915250505090825250602001878785818110610a5257610a52611495565b9050602002810190610a649190611651565b8080601f016020809104026020016040519081016040528093929190818152602001838380828437600092019190915250505090825250602001858585818110610ab057610ab0611495565b9050602002016020810190610ac59190611698565b60ff168152426020918201526001600160a01b0383166000908152600180835260409091208351815460ff19169015151781559183015190820190610b0a9082611558565b5060408201516002820190610b1f9082611558565b50606082015160038201805460ff191660ff909216919091179055608090910151600490910155600280546001810182556000919091527f405787fa12a823e0f2b7631cc41b3ba8828b3321ca811111fa75cd3aa3bb5ace0180546001600160a01b0319166001600160a01b0383169081179091557f56958cfd9a34d9ad6540286497fc4e261f9718cc00321cfbfc6565fe381a65d6898985818110610bc757610bc7611495565b9050602002810190610bd99190611651565b898987818110610beb57610beb611495565b9050602002810190610bfd9190611651565b898989818110610c0f57610c0f611495565b9050602002016020810190610c249190611698565b604051610c359594939291906116dc565b60405180910390a2505b80610c49816114f0565b915050610962565b505050505050505050565b610c64610f89565b6001600160a01b03831660009081526001602052604090205460ff16610ccc5760405162461bcd60e51b815260206004820152601f60248201527f546f6b656e57686974656c6973743a206e6f742077686974656c697374656400604482015260640161049b565b6000825111610d1d5760405162461bcd60e51b815260206004820152601a60248201527f546f6b656e57686974656c6973743a20656d707479206e616d65000000000000604482015260640161049b565b6000815111610d6e5760405162461bcd60e51b815260206004820152601c60248201527f546f6b656e57686974656c6973743a20656d7074792073796d626f6c00000000604482015260640161049b565b6001600160a01b038316600090815260016020819052604090912001610d948382611558565b506001600160a01b0383166000908152600160205260409020600201610dba8282611558565b50826001600160a01b03167fb3e1aa3e69f1db38ccdf9ccba25011a57b7c5ae8bfa5b06f5eaba83d8cfbfd398383604051610df6929190611719565b60405180910390a2505050565b60016020819052600091825260409091208054918101805460ff90931692610e2a9061145b565b80601f0160208091040260200160405190810160405280929190818152602001828054610e569061145b565b8015610ea35780601f10610e7857610100808354040283529160200191610ea3565b820191906000526020600020905b815481529060010190602001808311610e8657829003601f168201915b505050505090806002018054610eb89061145b565b80601f0160208091040260200160405190810160405280929190818152602001828054610ee49061145b565b8015610f315780601f10610f0657610100808354040283529160200191610f31565b820191906000526020600020905b815481529060010190602001808311610f1457829003601f168201915b505050506003830154600490930154919260ff1691905085565b610f53610f89565b6001600160a01b038116610f7d57604051631e4fbdf760e01b81526000600482015260240161049b565b610f8681610fb6565b50565b6000546001600160a01b031633146106145760405163118cdaa760e01b815233600482015260240161049b565b600080546001600160a01b038381166001600160a01b0319831681178455604051919092169283917f8be0079c531659141344cd1fd0a4f28419497f9722a3daafe3b4186f6b6457e09190a35050565b80356001600160a01b038116811461101d57600080fd5b919050565b60006020828403121561103457600080fd5b61103d82611006565b9392505050565b6000815180845260005b8181101561106a5760208185018101518683018201520161104e565b506000602082860101526020601f19601f83011685010191505092915050565b602081528151151560208201526000602083015160a060408401526110b260c0840182611044565b90506040840151601f198483030160608501526110cf8282611044565b91505060ff6060850151166080840152608084015160a08401528091505092915050565b6020808252825182820181905260009190848201906040850190845b818110156111345783516001600160a01b03168352928401929184019160010161110f565b50909695505050505050565b634e487b7160e01b600052604160045260246000fd5b600082601f83011261116757600080fd5b813567ffffffffffffffff8082111561118257611182611140565b604051601f8301601f19908116603f011681019082821181831017156111aa576111aa611140565b816040528381528660208588010111156111c357600080fd5b836020870160208301376000602085830101528094505050505092915050565b803560ff8116811461101d57600080fd5b6000806000806080858703121561120a57600080fd5b61121385611006565b9350602085013567ffffffffffffffff8082111561123057600080fd5b61123c88838901611156565b9450604087013591508082111561125257600080fd5b5061125f87828801611156565b92505061126e606086016111e3565b905092959194509250565b60006020828403121561128b57600080fd5b5035919050565b60008083601f8401126112a457600080fd5b50813567ffffffffffffffff8111156112bc57600080fd5b6020830191508360208260051b85010111156112d757600080fd5b9250929050565b6000806000806000806000806080898b0312156112fa57600080fd5b883567ffffffffffffffff8082111561131257600080fd5b61131e8c838d01611292565b909a50985060208b013591508082111561133757600080fd5b6113438c838d01611292565b909850965060408b013591508082111561135c57600080fd5b6113688c838d01611292565b909650945060608b013591508082111561138157600080fd5b5061138e8b828c01611292565b999c989b5096995094979396929594505050565b6000806000606084860312156113b757600080fd5b6113c084611006565b9250602084013567ffffffffffffffff808211156113dd57600080fd5b6113e987838801611156565b935060408601359150808211156113ff57600080fd5b5061140c86828701611156565b9150509250925092565b851515815260a06020820152600061143160a0830187611044565b82810360408401526114438187611044565b60ff9590951660608401525050608001529392505050565b600181811c9082168061146f57607f821691505b60208210810361148f57634e487b7160e01b600052602260045260246000fd5b50919050565b634e487b7160e01b600052603260045260246000fd5b634e487b7160e01b600052601160045260246000fd5b818103818111156114d4576114d46114ab565b92915050565b634e487b7160e01b600052603160045260246000fd5b600060018201611502576115026114ab565b5060010190565b601f82111561155357600081815260208120601f850160051c810160208610156115305750805b601f850160051c820191505b8181101561154f5782815560010161153c565b5050505b505050565b815167ffffffffffffffff81111561157257611572611140565b61158681611580845461145b565b84611509565b602080601f8311600181146115bb57600084156115a35750858301515b600019600386901b1c1916600185901b17855561154f565b600085815260208120601f198616915b828110156115ea578886015182559484019460019091019084016115cb565b50858210156116085787850151600019600388901b60f8161c191681555b5050505050600190811b01905550565b60608152600061162b6060830186611044565b828103602084015261163d8186611044565b91505060ff83166040830152949350505050565b6000808335601e1984360301811261166857600080fd5b83018035915067ffffffffffffffff82111561168357600080fd5b6020019150368190038213156112d757600080fd5b6000602082840312156116aa57600080fd5b61103d826111e3565b81835281816020850137506000828201602090810191909152601f909101601f19169091010190565b6060815260006116f06060830187896116b3565b82810360208401526117038186886116b3565b91505060ff831660408301529695505050505050565b60408152600061172c6040830185611044565b828103602084015261173e8185611044565b9594505050505056fea2646970667358221220b728c6eec7e873733e70234e4c897f784acb4c1246d0c49473b5f8cce4ca79fd64736f6c63430008140033","opcodes":"PUSH1 0x80 PUSH1 0x40 MSTORE CALLVALUE DUP1 ISZERO PUSH2 0x10 JUMPI PUSH1 0x0 DUP1 REVERT JUMPDEST POP PUSH1 0x40 MLOAD PUSH3 0x187D CODESIZE SUB DUP1 PUSH3 0x187D DUP4 CODECOPY DUP2 ADD PUSH1 0x40 DUP2 SWAP1 MSTORE PUSH2 0x31 SWAP2 PUSH2 0xC0 JUMP JUMPDEST DUP1 PUSH1 0x1 PUSH1 0x1 PUSH1 0xA0 SHL SUB DUP2 AND PUSH2 0x60 JUMPI PUSH1 0x40 MLOAD PUSH4 0x1E4FBDF7 PUSH1 0xE0 SHL DUP2 MSTORE PUSH1 0x0 PUSH1 0x4 DUP3 ADD MSTORE PUSH1 0x24 ADD PUSH1 0x40 MLOAD DUP1 SWAP2 SUB SWAP1 REVERT JUMPDEST PUSH2 0x69 DUP2 PUSH2 0x70 JUMP JUMPDEST POP POP PUSH2 0xF0 JUMP JUMPDEST PUSH1 0x0 DUP1 SLOAD PUSH1 0x1 PUSH1 0x1 PUSH1 0xA0 SHL SUB DUP4 DUP2 AND PUSH1 0x1 PUSH1 0x1 PUSH1 0xA0 SHL SUB NOT DUP4 AND DUP2 OR DUP5 SSTORE PUSH1 0x40 MLOAD SWAP2 SWAP1 SWAP3 AND SWAP3 DUP4 SWAP2 PUSH32 0x8BE0079C531659141344CD1FD0A4F28419497F9722A3DAAFE3B4186F6B6457E0 SWAP2 SWAP1 LOG3 POP POP JUMP JUMPDEST PUSH1 0x0 PUSH1 0x20 DUP3 DUP5 SUB SLT ISZERO PUSH2 0xD2 JUMPI PUSH1 0x0 DUP1 REVERT JUMPDEST DUP2 MLOAD PUSH1 0x1 PUSH1 0x1 PUSH1 0xA0 SHL SUB DUP2 AND DUP2 EQ PUSH2 0xE9 JUMPI PUSH1 0x0 DUP1 REVERT JUMPDEST SWAP4 SWAP3 POP POP POP JUMP JUMPDEST PUSH2 0x177D DUP1 PUSH3 0x100 PUSH1 0x0 CODECOPY PUSH1 0x0 RETURN INVALID PUSH1 0x80 PUSH1 0x40 MSTORE CALLVALUE DUP1 ISZERO PUSH2 0x10 JUMPI PUSH1 0x0 DUP1 REVERT JUMPDEST POP PUSH1 0x4 CALLDATASIZE LT PUSH2 0xCF JUMPI PUSH1 0x0 CALLDATALOAD PUSH1 0xE0 SHR DUP1 PUSH4 0x8DA5CB5B GT PUSH2 0x8C JUMPI DUP1 PUSH4 0xB88E15F2 GT PUSH2 0x66 JUMPI DUP1 PUSH4 0xB88E15F2 EQ PUSH2 0x1C7 JUMPI DUP1 PUSH4 0xE2992C96 EQ PUSH2 0x1DA JUMPI DUP1 PUSH4 0xE4860339 EQ PUSH2 0x1ED JUMPI DUP1 PUSH4 0xF2FDE38B EQ PUSH2 0x211 JUMPI PUSH1 0x0 DUP1 REVERT JUMPDEST DUP1 PUSH4 0x8DA5CB5B EQ PUSH2 0x17C JUMPI DUP1 PUSH4 0x8E404E9C EQ PUSH2 0x1A1 JUMPI DUP1 PUSH4 0x9EAD7222 EQ PUSH2 0x1B4 JUMPI PUSH1 0x0 DUP1 REVERT JUMPDEST DUP1 PUSH4 0x1F69565F EQ PUSH2 0xD4 JUMPI DUP1 PUSH4 0x2A5C792A EQ PUSH2 0xFD JUMPI DUP1 PUSH4 0x3AF32ABF EQ PUSH2 0x112 JUMPI DUP1 PUSH4 0x5FA7B584 EQ PUSH2 0x14E JUMPI DUP1 PUSH4 0x715018A6 EQ PUSH2 0x163 JUMPI DUP1 PUSH4 0x78A89567 EQ PUSH2 0x16B JUMPI JUMPDEST PUSH1 0x0 DUP1 REVERT JUMPDEST PUSH2 0xE7 PUSH2 0xE2 CALLDATASIZE PUSH1 0x4 PUSH2 0x1022 JUMP JUMPDEST PUSH2 0x224 JUMP JUMPDEST PUSH1 0x40 MLOAD PUSH2 0xF4 SWAP2 SWAP1 PUSH2 0x108A JUMP JUMPDEST PUSH1 0x40 MLOAD DUP1 SWAP2 SUB SWAP1 RETURN JUMPDEST PUSH2 0x105 PUSH2 0x3CD JUMP JUMPDEST PUSH1 0x40 MLOAD PUSH2 0xF4 SWAP2 SWAP1 PUSH2 0x10F3 JUMP JUMPDEST PUSH2 0x13E PUSH2 0x120 CALLDATASIZE PUSH1 0x4 PUSH2 0x1022 JUMP JUMPDEST PUSH1 0x1 PUSH1 0x1 PUSH1 0xA0 SHL SUB AND PUSH1 0x0 SWAP1 DUP2 MSTORE PUSH1 0x1 PUSH1 0x20 MSTORE PUSH1 0x40 SWAP1 KECCAK256 SLOAD PUSH1 0xFF AND SWAP1 JUMP JUMPDEST PUSH1 0x40 MLOAD SWAP1 ISZERO ISZERO DUP2 MSTORE PUSH1 0x20 ADD PUSH2 0xF4 JUMP JUMPDEST PUSH2 0x161 PUSH2 0x15C CALLDATASIZE PUSH1 0x4 PUSH2 0x1022 JUMP JUMPDEST PUSH2 0x42F JUMP JUMPDEST STOP JUMPDEST PUSH2 0x161 PUSH2 0x602 JUMP JUMPDEST PUSH1 0x2 SLOAD PUSH1 0x40 MLOAD SWAP1 DUP2 MSTORE PUSH1 0x20 ADD PUSH2 0xF4 JUMP JUMPDEST PUSH1 0x0 SLOAD PUSH1 0x1 PUSH1 0x1 PUSH1 0xA0 SHL SUB AND JUMPDEST PUSH1 0x40 MLOAD PUSH1 0x1 PUSH1 0x1 PUSH1 0xA0 SHL SUB SWAP1 SWAP2 AND DUP2 MSTORE PUSH1 0x20 ADD PUSH2 0xF4 JUMP JUMPDEST PUSH2 0x161 PUSH2 0x1AF CALLDATASIZE PUSH1 0x4 PUSH2 0x11F4 JUMP JUMPDEST PUSH2 0x616 JUMP JUMPDEST PUSH2 0x189 PUSH2 0x1C2 CALLDATASIZE PUSH1 0x4 PUSH2 0x1279 JUMP JUMPDEST PUSH2 0x8BA JUMP JUMPDEST PUSH2 0x161 PUSH2 0x1D5 CALLDATASIZE PUSH1 0x4 PUSH2 0x12DE JUMP JUMPDEST PUSH2 0x8E4 JUMP JUMPDEST PUSH2 0x161 PUSH2 0x1E8 CALLDATASIZE PUSH1 0x4 PUSH2 0x13A2 JUMP JUMPDEST PUSH2 0xC5C JUMP JUMPDEST PUSH2 0x200 PUSH2 0x1FB CALLDATASIZE PUSH1 0x4 PUSH2 0x1022 JUMP JUMPDEST PUSH2 0xE03 JUMP JUMPDEST PUSH1 0x40 MLOAD PUSH2 0xF4 SWAP6 SWAP5 SWAP4 SWAP3 SWAP2 SWAP1 PUSH2 0x1416 JUMP JUMPDEST PUSH2 0x161 PUSH2 0x21F CALLDATASIZE PUSH1 0x4 PUSH2 0x1022 JUMP JUMPDEST PUSH2 0xF4B JUMP JUMPDEST PUSH2 0x25B PUSH1 0x40 MLOAD DUP1 PUSH1 0xA0 ADD PUSH1 0x40 MSTORE DUP1 PUSH1 0x0 ISZERO ISZERO DUP2 MSTORE PUSH1 0x20 ADD PUSH1 0x60 DUP2 MSTORE PUSH1 0x20 ADD PUSH1 0x60 DUP2 MSTORE PUSH1 0x20 ADD PUSH1 0x0 PUSH1 0xFF AND DUP2 MSTORE PUSH1 0x20 ADD PUSH1 0x0 DUP2 MSTORE POP SWAP1 JUMP JUMPDEST PUSH1 0x1 PUSH1 0x1 PUSH1 0xA0 SHL SUB DUP3 AND PUSH1 0x0 SWAP1 DUP2 MSTORE PUSH1 0x1 PUSH1 0x20 DUP2 DUP2 MSTORE PUSH1 0x40 SWAP3 DUP4 SWAP1 KECCAK256 DUP4 MLOAD PUSH1 0xA0 DUP2 ADD SWAP1 SWAP5 MSTORE DUP1 SLOAD PUSH1 0xFF AND ISZERO ISZERO DUP5 MSTORE SWAP2 DUP3 ADD DUP1 SLOAD SWAP2 DUP5 ADD SWAP2 PUSH2 0x29B SWAP1 PUSH2 0x145B JUMP JUMPDEST DUP1 PUSH1 0x1F ADD PUSH1 0x20 DUP1 SWAP2 DIV MUL PUSH1 0x20 ADD PUSH1 0x40 MLOAD SWAP1 DUP2 ADD PUSH1 0x40 MSTORE DUP1 SWAP3 SWAP2 SWAP1 DUP2 DUP2 MSTORE PUSH1 0x20 ADD DUP3 DUP1 SLOAD PUSH2 0x2C7 SWAP1 PUSH2 0x145B JUMP JUMPDEST DUP1 ISZERO PUSH2 0x314 JUMPI DUP1 PUSH1 0x1F LT PUSH2 0x2E9 JUMPI PUSH2 0x100 DUP1 DUP4 SLOAD DIV MUL DUP4 MSTORE SWAP2 PUSH1 0x20 ADD SWAP2 PUSH2 0x314 JUMP JUMPDEST DUP3 ADD SWAP2 SWAP1 PUSH1 0x0 MSTORE PUSH1 0x20 PUSH1 0x0 KECCAK256 SWAP1 JUMPDEST DUP2 SLOAD DUP2 MSTORE SWAP1 PUSH1 0x1 ADD SWAP1 PUSH1 0x20 ADD DUP1 DUP4 GT PUSH2 0x2F7 JUMPI DUP3 SWAP1 SUB PUSH1 0x1F AND DUP3 ADD SWAP2 JUMPDEST POP POP POP POP POP DUP2 MSTORE PUSH1 0x20 ADD PUSH1 0x2 DUP3 ADD DUP1 SLOAD PUSH2 0x32D SWAP1 PUSH2 0x145B JUMP JUMPDEST DUP1 PUSH1 0x1F ADD PUSH1 0x20 DUP1 SWAP2 DIV MUL PUSH1 0x20 ADD PUSH1 0x40 MLOAD SWAP1 DUP2 ADD PUSH1 0x40 MSTORE DUP1 SWAP3 SWAP2 SWAP1 DUP2 DUP2 MSTORE PUSH1 0x20 ADD DUP3 DUP1 SLOAD PUSH2 0x359 SWAP1 PUSH2 0x145B JUMP JUMPDEST DUP1 ISZERO PUSH2 0x3A6 JUMPI DUP1 PUSH1 0x1F LT PUSH2 0x37B JUMPI PUSH2 0x100 DUP1 DUP4 SLOAD DIV MUL DUP4 MSTORE SWAP2 PUSH1 0x20 ADD SWAP2 PUSH2 0x3A6 JUMP JUMPDEST DUP3 ADD SWAP2 SWAP1 PUSH1 0x0 MSTORE PUSH1 0x20 PUSH1 0x0 KECCAK256 SWAP1 JUMPDEST DUP2 SLOAD DUP2 MSTORE SWAP1 PUSH1 0x1 ADD SWAP1 PUSH1 0x20 ADD DUP1 DUP4 GT PUSH2 0x389 JUMPI DUP3 SWAP1 SUB PUSH1 0x1F AND DUP3 ADD SWAP2 JUMPDEST POP POP POP SWAP2 DUP4 MSTORE POP POP PUSH1 0x3 DUP3 ADD SLOAD PUSH1 0xFF AND PUSH1 0x20 DUP3 ADD MSTORE PUSH1 0x4 SWAP1 SWAP2 ADD SLOAD PUSH1 0x40 SWAP1 SWAP2 ADD MSTORE SWAP3 SWAP2 POP POP JUMP JUMPDEST PUSH1 0x60 PUSH1 0x2 DUP1 SLOAD DUP1 PUSH1 0x20 MUL PUSH1 0x20 ADD PUSH1 0x40 MLOAD SWAP1 DUP2 ADD PUSH1 0x40 MSTORE DUP1 SWAP3 SWAP2 SWAP1 DUP2 DUP2 MSTORE PUSH1 0x20 ADD DUP3 DUP1 SLOAD DUP1 ISZERO PUSH2 0x425 JUMPI PUSH1 0x20 MUL DUP3 ADD SWAP2 SWAP1 PUSH1 0x0 MSTORE PUSH1 0x20 PUSH1 0x0 KECCAK256 SWAP1 JUMPDEST DUP2 SLOAD PUSH1 0x1 PUSH1 0x1 PUSH1 0xA0 SHL SUB AND DUP2 MSTORE PUSH1 0x1 SWAP1 SWAP2 ADD SWAP1 PUSH1 0x20 ADD DUP1 DUP4 GT PUSH2 0x407 JUMPI JUMPDEST POP POP POP POP POP SWAP1 POP SWAP1 JUMP JUMPDEST PUSH2 0x437 PUSH2 0xF89 JUMP JUMPDEST PUSH1 0x1 PUSH1 0x1 PUSH1 0xA0 SHL SUB DUP2 AND PUSH1 0x0 SWAP1 DUP2 MSTORE PUSH1 0x1 PUSH1 0x20 MSTORE PUSH1 0x40 SWAP1 KECCAK256 SLOAD PUSH1 0xFF AND PUSH2 0x4A4 JUMPI PUSH1 0x40 MLOAD PUSH3 0x461BCD PUSH1 0xE5 SHL DUP2 MSTORE PUSH1 0x20 PUSH1 0x4 DUP3 ADD MSTORE PUSH1 0x1F PUSH1 0x24 DUP3 ADD MSTORE PUSH32 0x546F6B656E57686974656C6973743A206E6F742077686974656C697374656400 PUSH1 0x44 DUP3 ADD MSTORE PUSH1 0x64 ADD JUMPDEST PUSH1 0x40 MLOAD DUP1 SWAP2 SUB SWAP1 REVERT JUMPDEST PUSH1 0x1 PUSH1 0x1 PUSH1 0xA0 SHL SUB DUP2 AND PUSH1 0x0 SWAP1 DUP2 MSTORE PUSH1 0x1 PUSH1 0x20 MSTORE PUSH1 0x40 DUP2 KECCAK256 DUP1 SLOAD PUSH1 0xFF NOT AND SWAP1 SSTORE JUMPDEST PUSH1 0x2 SLOAD DUP2 LT ISZERO PUSH2 0x5CA JUMPI DUP2 PUSH1 0x1 PUSH1 0x1 PUSH1 0xA0 SHL SUB AND PUSH1 0x2 DUP3 DUP2 SLOAD DUP2 LT PUSH2 0x4EC JUMPI PUSH2 0x4EC PUSH2 0x1495 JUMP JUMPDEST PUSH1 0x0 SWAP2 DUP3 MSTORE PUSH1 0x20 SWAP1 SWAP2 KECCAK256 ADD SLOAD PUSH1 0x1 PUSH1 0x1 PUSH1 0xA0 SHL SUB AND SUB PUSH2 0x5B8 JUMPI PUSH1 0x2 DUP1 SLOAD PUSH2 0x516 SWAP1 PUSH1 0x1 SWAP1 PUSH2 0x14C1 JUMP JUMPDEST DUP2 SLOAD DUP2 LT PUSH2 0x526 JUMPI PUSH2 0x526 PUSH2 0x1495 JUMP JUMPDEST PUSH1 0x0 SWAP2 DUP3 MSTORE PUSH1 0x20 SWAP1 SWAP2 KECCAK256 ADD SLOAD PUSH1 0x2 DUP1 SLOAD PUSH1 0x1 PUSH1 0x1 PUSH1 0xA0 SHL SUB SWAP1 SWAP3 AND SWAP2 DUP4 SWAP1 DUP2 LT PUSH2 0x552 JUMPI PUSH2 0x552 PUSH2 0x1495 JUMP JUMPDEST SWAP1 PUSH1 0x0 MSTORE PUSH1 0x20 PUSH1 0x0 KECCAK256 ADD PUSH1 0x0 PUSH2 0x100 EXP DUP2 SLOAD DUP2 PUSH1 0x1 PUSH1 0x1 PUSH1 0xA0 SHL SUB MUL NOT AND SWAP1 DUP4 PUSH1 0x1 PUSH1 0x1 PUSH1 0xA0 SHL SUB AND MUL OR SWAP1 SSTORE POP PUSH1 0x2 DUP1 SLOAD DUP1 PUSH2 0x591 JUMPI PUSH2 0x591 PUSH2 0x14DA JUMP JUMPDEST PUSH1 0x0 DUP3 DUP2 MSTORE PUSH1 0x20 SWAP1 KECCAK256 DUP2 ADD PUSH1 0x0 NOT SWAP1 DUP2 ADD DUP1 SLOAD PUSH1 0x1 PUSH1 0x1 PUSH1 0xA0 SHL SUB NOT AND SWAP1 SSTORE ADD SWAP1 SSTORE PUSH2 0x5CA JUMP JUMPDEST DUP1 PUSH2 0x5C2 DUP2 PUSH2 0x14F0 JUMP JUMPDEST SWAP2 POP POP PUSH2 0x4C5 JUMP JUMPDEST POP PUSH1 0x40 MLOAD PUSH1 0x1 PUSH1 0x1 PUSH1 0xA0 SHL SUB DUP3 AND SWAP1 PUSH32 0x4C910B69FE65A61F7531B9C5042B2329CA7179C77290AA7E2EB3AFA3C8511FD3 SWAP1 PUSH1 0x0 SWAP1 LOG2 POP JUMP JUMPDEST PUSH2 0x60A PUSH2 0xF89 JUMP JUMPDEST PUSH2 0x614 PUSH1 0x0 PUSH2 0xFB6 JUMP JUMPDEST JUMP JUMPDEST PUSH2 0x61E PUSH2 0xF89 JUMP JUMPDEST PUSH1 0x1 PUSH1 0x1 PUSH1 0xA0 SHL SUB DUP5 AND PUSH2 0x674 JUMPI PUSH1 0x40 MLOAD PUSH3 0x461BCD PUSH1 0xE5 SHL DUP2 MSTORE PUSH1 0x20 PUSH1 0x4 DUP3 ADD MSTORE PUSH1 0x1C PUSH1 0x24 DUP3 ADD MSTORE PUSH32 0x546F6B656E57686974656C6973743A207A65726F206164647265737300000000 PUSH1 0x44 DUP3 ADD MSTORE PUSH1 0x64 ADD PUSH2 0x49B JUMP JUMPDEST PUSH1 0x1 PUSH1 0x1 PUSH1 0xA0 SHL SUB DUP5 AND PUSH1 0x0 SWAP1 DUP2 MSTORE PUSH1 0x1 PUSH1 0x20 MSTORE PUSH1 0x40 SWAP1 KECCAK256 SLOAD PUSH1 0xFF AND ISZERO PUSH2 0x6E9 JUMPI PUSH1 0x40 MLOAD PUSH3 0x461BCD PUSH1 0xE5 SHL DUP2 MSTORE PUSH1 0x20 PUSH1 0x4 DUP3 ADD MSTORE PUSH1 0x23 PUSH1 0x24 DUP3 ADD MSTORE PUSH32 0x546F6B656E57686974656C6973743A20616C72656164792077686974656C6973 PUSH1 0x44 DUP3 ADD MSTORE PUSH3 0x1D1959 PUSH1 0xEA SHL PUSH1 0x64 DUP3 ADD MSTORE PUSH1 0x84 ADD PUSH2 0x49B JUMP JUMPDEST PUSH1 0x0 DUP4 MLOAD GT PUSH2 0x73A JUMPI PUSH1 0x40 MLOAD PUSH3 0x461BCD PUSH1 0xE5 SHL DUP2 MSTORE PUSH1 0x20 PUSH1 0x4 DUP3 ADD MSTORE PUSH1 0x1A PUSH1 0x24 DUP3 ADD MSTORE PUSH32 0x546F6B656E57686974656C6973743A20656D707479206E616D65000000000000 PUSH1 0x44 DUP3 ADD MSTORE PUSH1 0x64 ADD PUSH2 0x49B JUMP JUMPDEST PUSH1 0x0 DUP3 MLOAD GT PUSH2 0x78B JUMPI PUSH1 0x40 MLOAD PUSH3 0x461BCD PUSH1 0xE5 SHL DUP2 MSTORE PUSH1 0x20 PUSH1 0x4 DUP3 ADD MSTORE PUSH1 0x1C PUSH1 0x24 DUP3 ADD MSTORE PUSH32 0x546F6B656E57686974656C6973743A20656D7074792073796D626F6C00000000 PUSH1 0x44 DUP3 ADD MSTORE PUSH1 0x64 ADD PUSH2 0x49B JUMP JUMPDEST PUSH1 0x40 DUP1 MLOAD PUSH1 0xA0 DUP2 ADD DUP3 MSTORE PUSH1 0x1 DUP1 DUP3 MSTORE PUSH1 0x20 DUP1 DUP4 ADD DUP8 DUP2 MSTORE DUP4 DUP6 ADD DUP8 SWAP1 MSTORE PUSH1 0xFF DUP7 AND PUSH1 0x60 DUP6 ADD MSTORE TIMESTAMP PUSH1 0x80 DUP6 ADD MSTORE PUSH1 0x1 PUSH1 0x1 PUSH1 0xA0 SHL SUB DUP10 AND PUSH1 0x0 SWAP1 DUP2 MSTORE SWAP2 DUP4 SWAP1 MSTORE SWAP4 SWAP1 KECCAK256 DUP3 MLOAD DUP2 SLOAD PUSH1 0xFF NOT AND SWAP1 ISZERO ISZERO OR DUP2 SSTORE SWAP3 MLOAD SWAP2 SWAP3 SWAP2 SWAP1 DUP3 ADD SWAP1 PUSH2 0x7EE SWAP1 DUP3 PUSH2 0x1558 JUMP JUMPDEST POP PUSH1 0x40 DUP3 ADD MLOAD PUSH1 0x2 DUP3 ADD SWAP1 PUSH2 0x803 SWAP1 DUP3 PUSH2 0x1558 JUMP JUMPDEST POP PUSH1 0x60 DUP3 ADD MLOAD PUSH1 0x3 DUP3 ADD DUP1 SLOAD PUSH1 0xFF NOT AND PUSH1 0xFF SWAP1 SWAP3 AND SWAP2 SWAP1 SWAP2 OR SWAP1 SSTORE PUSH1 0x80 SWAP1 SWAP2 ADD MLOAD PUSH1 0x4 SWAP1 SWAP2 ADD SSTORE PUSH1 0x2 DUP1 SLOAD PUSH1 0x1 DUP2 ADD DUP3 SSTORE PUSH1 0x0 SWAP2 SWAP1 SWAP2 MSTORE PUSH32 0x405787FA12A823E0F2B7631CC41B3BA8828B3321CA811111FA75CD3AA3BB5ACE ADD DUP1 SLOAD PUSH1 0x1 PUSH1 0x1 PUSH1 0xA0 SHL SUB NOT AND PUSH1 0x1 PUSH1 0x1 PUSH1 0xA0 SHL SUB DUP7 AND SWAP1 DUP2 OR SWAP1 SWAP2 SSTORE PUSH1 0x40 MLOAD PUSH32 0x56958CFD9A34D9AD6540286497FC4E261F9718CC00321CFBFC6565FE381A65D6 SWAP1 PUSH2 0x8AC SWAP1 DUP7 SWAP1 DUP7 SWAP1 DUP7 SWAP1 PUSH2 0x1618 JUMP JUMPDEST PUSH1 0x40 MLOAD DUP1 SWAP2 SUB SWAP1 LOG2 POP POP POP POP JUMP JUMPDEST PUSH1 0x2 DUP2 DUP2 SLOAD DUP2 LT PUSH2 0x8CA JUMPI PUSH1 0x0 DUP1 REVERT JUMPDEST PUSH1 0x0 SWAP2 DUP3 MSTORE PUSH1 0x20 SWAP1 SWAP2 KECCAK256 ADD SLOAD PUSH1 0x1 PUSH1 0x1 PUSH1 0xA0 SHL SUB AND SWAP1 POP DUP2 JUMP JUMPDEST PUSH2 0x8EC PUSH2 0xF89 JUMP JUMPDEST DUP7 DUP6 EQ DUP1 ISZERO PUSH2 0x8FA JUMPI POP DUP7 DUP4 EQ JUMPDEST DUP1 ISZERO PUSH2 0x905 JUMPI POP DUP7 DUP2 EQ JUMPDEST PUSH2 0x95F JUMPI PUSH1 0x40 MLOAD PUSH3 0x461BCD PUSH1 0xE5 SHL DUP2 MSTORE PUSH1 0x20 PUSH1 0x4 DUP3 ADD MSTORE PUSH1 0x25 PUSH1 0x24 DUP3 ADD MSTORE PUSH32 0x546F6B656E57686974656C6973743A206172726179206C656E677468206D6973 PUSH1 0x44 DUP3 ADD MSTORE PUSH5 0xDAC2E8C6D PUSH1 0xDB SHL PUSH1 0x64 DUP3 ADD MSTORE PUSH1 0x84 ADD PUSH2 0x49B JUMP JUMPDEST PUSH1 0x0 JUMPDEST DUP8 DUP2 LT ISZERO PUSH2 0xC51 JUMPI PUSH1 0x0 DUP10 DUP10 DUP4 DUP2 DUP2 LT PUSH2 0x97E JUMPI PUSH2 0x97E PUSH2 0x1495 JUMP JUMPDEST SWAP1 POP PUSH1 0x20 MUL ADD PUSH1 0x20 DUP2 ADD SWAP1 PUSH2 0x993 SWAP2 SWAP1 PUSH2 0x1022 JUMP JUMPDEST SWAP1 POP PUSH1 0x1 PUSH1 0x1 PUSH1 0xA0 SHL SUB DUP2 AND ISZERO DUP1 PUSH2 0x9C3 JUMPI POP PUSH1 0x1 PUSH1 0x1 PUSH1 0xA0 SHL SUB DUP2 AND PUSH1 0x0 SWAP1 DUP2 MSTORE PUSH1 0x1 PUSH1 0x20 MSTORE PUSH1 0x40 SWAP1 KECCAK256 SLOAD PUSH1 0xFF AND JUMPDEST ISZERO PUSH2 0x9CE JUMPI POP PUSH2 0xC3F JUMP JUMPDEST PUSH1 0x40 MLOAD DUP1 PUSH1 0xA0 ADD PUSH1 0x40 MSTORE DUP1 PUSH1 0x1 ISZERO ISZERO DUP2 MSTORE PUSH1 0x20 ADD DUP10 DUP10 DUP6 DUP2 DUP2 LT PUSH2 0x9F4 JUMPI PUSH2 0x9F4 PUSH2 0x1495 JUMP JUMPDEST SWAP1 POP PUSH1 0x20 MUL DUP2 ADD SWAP1 PUSH2 0xA06 SWAP2 SWAP1 PUSH2 0x1651 JUMP JUMPDEST DUP1 DUP1 PUSH1 0x1F ADD PUSH1 0x20 DUP1 SWAP2 DIV MUL PUSH1 0x20 ADD PUSH1 0x40 MLOAD SWAP1 DUP2 ADD PUSH1 0x40 MSTORE DUP1 SWAP4 SWAP3 SWAP2 SWAP1 DUP2 DUP2 MSTORE PUSH1 0x20 ADD DUP4 DUP4 DUP1 DUP3 DUP5 CALLDATACOPY PUSH1 0x0 SWAP3 ADD SWAP2 SWAP1 SWAP2 MSTORE POP POP POP SWAP1 DUP3 MSTORE POP PUSH1 0x20 ADD DUP8 DUP8 DUP6 DUP2 DUP2 LT PUSH2 0xA52 JUMPI PUSH2 0xA52 PUSH2 0x1495 JUMP JUMPDEST SWAP1 POP PUSH1 0x20 MUL DUP2 ADD SWAP1 PUSH2 0xA64 SWAP2 SWAP1 PUSH2 0x1651 JUMP JUMPDEST DUP1 DUP1 PUSH1 0x1F ADD PUSH1 0x20 DUP1 SWAP2 DIV MUL PUSH1 0x20 ADD PUSH1 0x40 MLOAD SWAP1 DUP2 ADD PUSH1 0x40 MSTORE DUP1 SWAP4 SWAP3 SWAP2 SWAP1 DUP2 DUP2 MSTORE PUSH1 0x20 ADD DUP4 DUP4 DUP1 DUP3 DUP5 CALLDATACOPY PUSH1 0x0 SWAP3 ADD SWAP2 SWAP1 SWAP2 MSTORE POP POP POP SWAP1 DUP3 MSTORE POP PUSH1 0x20 ADD DUP6 DUP6 DUP6 DUP2 DUP2 LT PUSH2 0xAB0 JUMPI PUSH2 0xAB0 PUSH2 0x1495 JUMP JUMPDEST SWAP1 POP PUSH1 0x20 MUL ADD PUSH1 0x20 DUP2 ADD SWAP1 PUSH2 0xAC5 SWAP2 SWAP1 PUSH2 0x1698 JUMP JUMPDEST PUSH1 0xFF AND DUP2 MSTORE TIMESTAMP PUSH1 0x20 SWAP2 DUP3 ADD MSTORE PUSH1 0x1 PUSH1 0x1 PUSH1 0xA0 SHL SUB DUP4 AND PUSH1 0x0 SWAP1 DUP2 MSTORE PUSH1 0x1 DUP1 DUP4 MSTORE PUSH1 0x40 SWAP1 SWAP2 KECCAK256 DUP4 MLOAD DUP2 SLOAD PUSH1 0xFF NOT AND SWAP1 ISZERO ISZERO OR DUP2 SSTORE SWAP2 DUP4 ADD MLOAD SWAP1 DUP3 ADD SWAP1 PUSH2 0xB0A SWAP1 DUP3 PUSH2 0x1558 JUMP JUMPDEST POP PUSH1 0x40 DUP3 ADD MLOAD PUSH1 0x2 DUP3 ADD SWAP1 PUSH2 0xB1F SWAP1 DUP3 PUSH2 0x1558 JUMP JUMPDEST POP PUSH1 0x60 DUP3 ADD MLOAD PUSH1 0x3 DUP3 ADD DUP1 SLOAD PUSH1 0xFF NOT AND PUSH1 0xFF SWAP1 SWAP3 AND SWAP2 SWAP1 SWAP2 OR SWAP1 SSTORE PUSH1 0x80 SWAP1 SWAP2 ADD MLOAD PUSH1 0x4 SWAP1 SWAP2 ADD SSTORE PUSH1 0x2 DUP1 SLOAD PUSH1 0x1 DUP2 ADD DUP3 SSTORE PUSH1 0x0 SWAP2 SWAP1 SWAP2 MSTORE PUSH32 0x405787FA12A823E0F2B7631CC41B3BA8828B3321CA811111FA75CD3AA3BB5ACE ADD DUP1 SLOAD PUSH1 0x1 PUSH1 0x1 PUSH1 0xA0 SHL SUB NOT AND PUSH1 0x1 PUSH1 0x1 PUSH1 0xA0 SHL SUB DUP4 AND SWAP1 DUP2 OR SWAP1 SWAP2 SSTORE PUSH32 0x56958CFD9A34D9AD6540286497FC4E261F9718CC00321CFBFC6565FE381A65D6 DUP10 DUP10 DUP6 DUP2 DUP2 LT PUSH2 0xBC7 JUMPI PUSH2 0xBC7 PUSH2 0x1495 JUMP JUMPDEST SWAP1 POP PUSH1 0x20 MUL DUP2 ADD SWAP1 PUSH2 0xBD9 SWAP2 SWAP1 PUSH2 0x1651 JUMP JUMPDEST DUP10 DUP10 DUP8 DUP2 DUP2 LT PUSH2 0xBEB JUMPI PUSH2 0xBEB PUSH2 0x1495 JUMP JUMPDEST SWAP1 POP PUSH1 0x20 MUL DUP2 ADD SWAP1 PUSH2 0xBFD SWAP2 SWAP1 PUSH2 0x1651 JUMP JUMPDEST DUP10 DUP10 DUP10 DUP2 DUP2 LT PUSH2 0xC0F JUMPI PUSH2 0xC0F PUSH2 0x1495 JUMP JUMPDEST SWAP1 POP PUSH1 0x20 MUL ADD PUSH1 0x20 DUP2 ADD SWAP1 PUSH2 0xC24 SWAP2 SWAP1 PUSH2 0x1698 JUMP JUMPDEST PUSH1 0x40 MLOAD PUSH2 0xC35 SWAP6 SWAP5 SWAP4 SWAP3 SWAP2 SWAP1 PUSH2 0x16DC JUMP JUMPDEST PUSH1 0x40 MLOAD DUP1 SWAP2 SUB SWAP1 LOG2 POP JUMPDEST DUP1 PUSH2 0xC49 DUP2 PUSH2 0x14F0 JUMP JUMPDEST SWAP2 POP POP PUSH2 0x962 JUMP JUMPDEST POP POP POP POP POP POP POP POP POP JUMP JUMPDEST PUSH2 0xC64 PUSH2 0xF89 JUMP JUMPDEST PUSH1 0x1 PUSH1 0x1 PUSH1 0xA0 SHL SUB DUP4 AND PUSH1 0x0 SWAP1 DUP2 MSTORE PUSH1 0x1 PUSH1 0x20 MSTORE PUSH1 0x40 SWAP1 KECCAK256 SLOAD PUSH1 0xFF AND PUSH2 0xCCC JUMPI PUSH1 0x40 MLOAD PUSH3 0x461BCD PUSH1 0xE5 SHL DUP2 MSTORE PUSH1 0x20 PUSH1 0x4 DUP3 ADD MSTORE PUSH1 0x1F PUSH1 0x24 DUP3 ADD MSTORE PUSH32 0x546F6B656E57686974656C6973743A206E6F742077686974656C697374656400 PUSH1 0x44 DUP3 ADD MSTORE PUSH1 0x64 ADD PUSH2 0x49B JUMP JUMPDEST PUSH1 0x0 DUP3 MLOAD GT PUSH2 0xD1D JUMPI PUSH1 0x40 MLOAD PUSH3 0x461BCD PUSH1 0xE5 SHL DUP2 MSTORE PUSH1 0x20 PUSH1 0x4 DUP3 ADD MSTORE PUSH1 0x1A PUSH1 0x24 DUP3 ADD MSTORE PUSH32 0x546F6B656E57686974656C6973743A20656D707479206E616D65000000000000 PUSH1 0x44 DUP3 ADD MSTORE PUSH1 0x64 ADD PUSH2 0x49B JUMP JUMPDEST PUSH1 0x0 DUP2 MLOAD GT PUSH2 0xD6E JUMPI PUSH1 0x40 MLOAD PUSH3 0x461BCD PUSH1 0xE5 SHL DUP2 MSTORE PUSH1 0x20 PUSH1 0x4 DUP3 ADD MSTORE PUSH1 0x1C PUSH1 0x24 DUP3 ADD MSTORE PUSH32 0x546F6B656E57686974656C6973743A20656D7074792073796D626F6C00000000 PUSH1 0x44 DUP3 ADD MSTORE PUSH1 0x64 ADD PUSH2 0x49B JUMP JUMPDEST PUSH1 0x1 PUSH1 0x1 PUSH1 0xA0 SHL SUB DUP4 AND PUSH1 0x0 SWAP1 DUP2 MSTORE PUSH1 0x1 PUSH1 0x20 DUP2 SWAP1 MSTORE PUSH1 0x40 SWAP1 SWAP2 KECCAK256 ADD PUSH2 0xD94 DUP4 DUP3 PUSH2 0x1558 JUMP JUMPDEST POP PUSH1 0x1 PUSH1 0x1 PUSH1 0xA0 SHL SUB DUP4 AND PUSH1 0x0 SWAP1 DUP2 MSTORE PUSH1 0x1 PUSH1 0x20 MSTORE PUSH1 0x40 SWAP1 KECCAK256 PUSH1 0x2 ADD PUSH2 0xDBA DUP3 DUP3 PUSH2 0x1558 JUMP JUMPDEST POP DUP3 PUSH1 0x1 PUSH1 0x1 PUSH1 0xA0 SHL SUB AND PUSH32 0xB3E1AA3E69F1DB38CCDF9CCBA25011A57B7C5AE8BFA5B06F5EABA83D8CFBFD39 DUP4 DUP4 PUSH1 0x40 MLOAD PUSH2 0xDF6 SWAP3 SWAP2 SWAP1 PUSH2 0x1719 JUMP JUMPDEST PUSH1 0x40 MLOAD DUP1 SWAP2 SUB SWAP1 LOG2 POP POP POP JUMP JUMPDEST PUSH1 0x1 PUSH1 0x20 DUP2 SWAP1 MSTORE PUSH1 0x0 SWAP2 DUP3 MSTORE PUSH1 0x40 SWAP1 SWAP2 KECCAK256 DUP1 SLOAD SWAP2 DUP2 ADD DUP1 SLOAD PUSH1 0xFF SWAP1 SWAP4 AND SWAP3 PUSH2 0xE2A SWAP1 PUSH2 0x145B JUMP JUMPDEST DUP1 PUSH1 0x1F ADD PUSH1 0x20 DUP1 SWAP2 DIV MUL PUSH1 0x20 ADD PUSH1 0x40 MLOAD SWAP1 DUP2 ADD PUSH1 0x40 MSTORE DUP1 SWAP3 SWAP2 SWAP1 DUP2 DUP2 MSTORE PUSH1 0x20 ADD DUP3 DUP1 SLOAD PUSH2 0xE56 SWAP1 PUSH2 0x145B JUMP JUMPDEST DUP1 ISZERO PUSH2 0xEA3 JUMPI DUP1 PUSH1 0x1F LT PUSH2 0xE78 JUMPI PUSH2 0x100 DUP1 DUP4 SLOAD DIV MUL DUP4 MSTORE SWAP2 PUSH1 0x20 ADD SWAP2 PUSH2 0xEA3 JUMP JUMPDEST DUP3 ADD SWAP2 SWAP1 PUSH1 0x0 MSTORE PUSH1 0x20 PUSH1 0x0 KECCAK256 SWAP1 JUMPDEST DUP2 SLOAD DUP2 MSTORE SWAP1 PUSH1 0x1 ADD SWAP1 PUSH1 0x20 ADD DUP1 DUP4 GT PUSH2 0xE86 JUMPI DUP3 SWAP1 SUB PUSH1 0x1F AND DUP3 ADD SWAP2 JUMPDEST POP POP POP POP POP SWAP1 DUP1 PUSH1 0x2 ADD DUP1 SLOAD PUSH2 0xEB8 SWAP1 PUSH2 0x145B JUMP JUMPDEST DUP1 PUSH1 0x1F ADD PUSH1 0x20 DUP1 SWAP2 DIV MUL PUSH1 0x20 ADD PUSH1 0x40 MLOAD SWAP1 DUP2 ADD PUSH1 0x40 MSTORE DUP1 SWAP3 SWAP2 SWAP1 DUP2 DUP2 MSTORE PUSH1 0x20 ADD DUP3 DUP1 SLOAD PUSH2 0xEE4 SWAP1 PUSH2 0x145B JUMP JUMPDEST DUP1 ISZERO PUSH2 0xF31 JUMPI DUP1 PUSH1 0x1F LT PUSH2 0xF06 JUMPI PUSH2 0x100 DUP1 DUP4 SLOAD DIV MUL DUP4 MSTORE SWAP2 PUSH1 0x20 ADD SWAP2 PUSH2 0xF31 JUMP JUMPDEST DUP3 ADD SWAP2 SWAP1 PUSH1 0x0 MSTORE PUSH1 0x20 PUSH1 0x0 KECCAK256 SWAP1 JUMPDEST DUP2 SLOAD DUP2 MSTORE SWAP1 PUSH1 0x1 ADD SWAP1 PUSH1 0x20 ADD DUP1 DUP4 GT PUSH2 0xF14 JUMPI DUP3 SWAP1 SUB PUSH1 0x1F AND DUP3 ADD SWAP2 JUMPDEST POP POP POP POP PUSH1 0x3 DUP4 ADD SLOAD PUSH1 0x4 SWAP1 SWAP4 ADD SLOAD SWAP2 SWAP3 PUSH1 0xFF AND SWAP2 SWAP1 POP DUP6 JUMP JUMPDEST PUSH2 0xF53 PUSH2 0xF89 JUMP JUMPDEST PUSH1 0x1 PUSH1 0x1 PUSH1 0xA0 SHL SUB DUP2 AND PUSH2 0xF7D JUMPI PUSH1 0x40 MLOAD PUSH4 0x1E4FBDF7 PUSH1 0xE0 SHL DUP2 MSTORE PUSH1 0x0 PUSH1 0x4 DUP3 ADD MSTORE PUSH1 0x24 ADD PUSH2 0x49B JUMP JUMPDEST PUSH2 0xF86 DUP2 PUSH2 0xFB6 JUMP JUMPDEST POP JUMP JUMPDEST PUSH1 0x0 SLOAD PUSH1 0x1 PUSH1 0x1 PUSH1 0xA0 SHL SUB AND CALLER EQ PUSH2 0x614 JUMPI PUSH1 0x40 MLOAD PUSH4 0x118CDAA7 PUSH1 0xE0 SHL DUP2 MSTORE CALLER PUSH1 0x4 DUP3 ADD MSTORE PUSH1 0x24 ADD PUSH2 0x49B JUMP JUMPDEST PUSH1 0x0 DUP1 SLOAD PUSH1 0x1 PUSH1 0x1 PUSH1 0xA0 SHL SUB DUP4 DUP2 AND PUSH1 0x1 PUSH1 0x1 PUSH1 0xA0 SHL SUB NOT DUP4 AND DUP2 OR DUP5 SSTORE PUSH1 0x40 MLOAD SWAP2 SWAP1 SWAP3 AND SWAP3 DUP4 SWAP2 PUSH32 0x8BE0079C531659141344CD1FD0A4F28419497F9722A3DAAFE3B4186F6B6457E0 SWAP2 SWAP1 LOG3 POP POP JUMP JUMPDEST DUP1 CALLDATALOAD PUSH1 0x1 PUSH1 0x1 PUSH1 0xA0 SHL SUB DUP2 AND DUP2 EQ PUSH2 0x101D JUMPI PUSH1 0x0 DUP1 REVERT JUMPDEST SWAP2 SWAP1 POP JUMP JUMPDEST PUSH1 0x0 PUSH1 0x20 DUP3 DUP5 SUB SLT ISZERO PUSH2 0x1034 JUMPI PUSH1 0x0 DUP1 REVERT JUMPDEST PUSH2 0x103D DUP3 PUSH2 0x1006 JUMP JUMPDEST SWAP4 SWAP3 POP POP POP JUMP JUMPDEST PUSH1 0x0 DUP2 MLOAD DUP1 DUP5 MSTORE PUSH1 0x0 JUMPDEST DUP2 DUP2 LT ISZERO PUSH2 0x106A JUMPI PUSH1 0x20 DUP2 DUP6 ADD DUP2 ADD MLOAD DUP7 DUP4 ADD DUP3 ADD MSTORE ADD PUSH2 0x104E JUMP JUMPDEST POP PUSH1 0x0 PUSH1 0x20 DUP3 DUP7 ADD ADD MSTORE PUSH1 0x20 PUSH1 0x1F NOT PUSH1 0x1F DUP4 ADD AND DUP6 ADD ADD SWAP2 POP POP SWAP3 SWAP2 POP POP JUMP JUMPDEST PUSH1 0x20 DUP2 MSTORE DUP2 MLOAD ISZERO ISZERO PUSH1 0x20 DUP3 ADD MSTORE PUSH1 0x0 PUSH1 0x20 DUP4 ADD MLOAD PUSH1 0xA0 PUSH1 0x40 DUP5 ADD MSTORE PUSH2 0x10B2 PUSH1 0xC0 DUP5 ADD DUP3 PUSH2 0x1044 JUMP JUMPDEST SWAP1 POP PUSH1 0x40 DUP5 ADD MLOAD PUSH1 0x1F NOT DUP5 DUP4 SUB ADD PUSH1 0x60 DUP6 ADD MSTORE PUSH2 0x10CF DUP3 DUP3 PUSH2 0x1044 JUMP JUMPDEST SWAP2 POP POP PUSH1 0xFF PUSH1 0x60 DUP6 ADD MLOAD AND PUSH1 0x80 DUP5 ADD MSTORE PUSH1 0x80 DUP5 ADD MLOAD PUSH1 0xA0 DUP5 ADD MSTORE DUP1 SWAP2 POP POP SWAP3 SWAP2 POP POP JUMP JUMPDEST PUSH1 0x20 DUP1 DUP3 MSTORE DUP3 MLOAD DUP3 DUP3 ADD DUP2 SWAP1 MSTORE PUSH1 0x0 SWAP2 SWAP1 DUP5 DUP3 ADD SWAP1 PUSH1 0x40 DUP6 ADD SWAP1 DUP5 JUMPDEST DUP2 DUP2 LT ISZERO PUSH2 0x1134 JUMPI DUP4 MLOAD PUSH1 0x1 PUSH1 0x1 PUSH1 0xA0 SHL SUB AND DUP4 MSTORE SWAP3 DUP5 ADD SWAP3 SWAP2 DUP5 ADD SWAP2 PUSH1 0x1 ADD PUSH2 0x110F JUMP JUMPDEST POP SWAP1 SWAP7 SWAP6 POP POP POP POP POP POP JUMP JUMPDEST PUSH4 0x4E487B71 PUSH1 0xE0 SHL PUSH1 0x0 MSTORE PUSH1 0x41 PUSH1 0x4 MSTORE PUSH1 0x24 PUSH1 0x0 REVERT JUMPDEST PUSH1 0x0 DUP3 PUSH1 0x1F DUP4 ADD SLT PUSH2 0x1167 JUMPI PUSH1 0x0 DUP1 REVERT JUMPDEST DUP2 CALLDATALOAD PUSH8 0xFFFFFFFFFFFFFFFF DUP1 DUP3 GT ISZERO PUSH2 0x1182 JUMPI PUSH2 0x1182 PUSH2 0x1140 JUMP JUMPDEST PUSH1 0x40 MLOAD PUSH1 0x1F DUP4 ADD PUSH1 0x1F NOT SWAP1 DUP2 AND PUSH1 0x3F ADD AND DUP2 ADD SWAP1 DUP3 DUP3 GT DUP2 DUP4 LT OR ISZERO PUSH2 0x11AA JUMPI PUSH2 0x11AA PUSH2 0x1140 JUMP JUMPDEST DUP2 PUSH1 0x40 MSTORE DUP4 DUP2 MSTORE DUP7 PUSH1 0x20 DUP6 DUP9 ADD ADD GT ISZERO PUSH2 0x11C3 JUMPI PUSH1 0x0 DUP1 REVERT JUMPDEST DUP4 PUSH1 0x20 DUP8 ADD PUSH1 0x20 DUP4 ADD CALLDATACOPY PUSH1 0x0 PUSH1 0x20 DUP6 DUP4 ADD ADD MSTORE DUP1 SWAP5 POP POP POP POP POP SWAP3 SWAP2 POP POP JUMP JUMPDEST DUP1 CALLDATALOAD PUSH1 0xFF DUP2 AND DUP2 EQ PUSH2 0x101D JUMPI PUSH1 0x0 DUP1 REVERT JUMPDEST PUSH1 0x0 DUP1 PUSH1 0x0 DUP1 PUSH1 0x80 DUP6 DUP8 SUB SLT ISZERO PUSH2 0x120A JUMPI PUSH1 0x0 DUP1 REVERT JUMPDEST PUSH2 0x1213 DUP6 PUSH2 0x1006 JUMP JUMPDEST SWAP4 POP PUSH1 0x20 DUP6 ADD CALLDATALOAD PUSH8 0xFFFFFFFFFFFFFFFF DUP1 DUP3 GT ISZERO PUSH2 0x1230 JUMPI PUSH1 0x0 DUP1 REVERT JUMPDEST PUSH2 0x123C DUP9 DUP4 DUP10 ADD PUSH2 0x1156 JUMP JUMPDEST SWAP5 POP PUSH1 0x40 DUP8 ADD CALLDATALOAD SWAP2 POP DUP1 DUP3 GT ISZERO PUSH2 0x1252 JUMPI PUSH1 0x0 DUP1 REVERT JUMPDEST POP PUSH2 0x125F DUP8 DUP3 DUP9 ADD PUSH2 0x1156 JUMP JUMPDEST SWAP3 POP POP PUSH2 0x126E PUSH1 0x60 DUP7 ADD PUSH2 0x11E3 JUMP JUMPDEST SWAP1 POP SWAP3 SWAP6 SWAP2 SWAP5 POP SWAP3 POP JUMP JUMPDEST PUSH1 0x0 PUSH1 0x20 DUP3 DUP5 SUB SLT ISZERO PUSH2 0x128B JUMPI PUSH1 0x0 DUP1 REVERT JUMPDEST POP CALLDATALOAD SWAP2 SWAP1 POP JUMP JUMPDEST PUSH1 0x0 DUP1 DUP4 PUSH1 0x1F DUP5 ADD SLT PUSH2 0x12A4 JUMPI PUSH1 0x0 DUP1 REVERT JUMPDEST POP DUP2 CALLDATALOAD PUSH8 0xFFFFFFFFFFFFFFFF DUP2 GT ISZERO PUSH2 0x12BC JUMPI PUSH1 0x0 DUP1 REVERT JUMPDEST PUSH1 0x20 DUP4 ADD SWAP2 POP DUP4 PUSH1 0x20 DUP3 PUSH1 0x5 SHL DUP6 ADD ADD GT ISZERO PUSH2 0x12D7 JUMPI PUSH1 0x0 DUP1 REVERT JUMPDEST SWAP3 POP SWAP3 SWAP1 POP JUMP JUMPDEST PUSH1 0x0 DUP1 PUSH1 0x0 DUP1 PUSH1 0x0 DUP1 PUSH1 0x0 DUP1 PUSH1 0x80 DUP10 DUP12 SUB SLT ISZERO PUSH2 0x12FA JUMPI PUSH1 0x0 DUP1 REVERT JUMPDEST DUP9 CALLDATALOAD PUSH8 0xFFFFFFFFFFFFFFFF DUP1 DUP3 GT ISZERO PUSH2 0x1312 JUMPI PUSH1 0x0 DUP1 REVERT JUMPDEST PUSH2 0x131E DUP13 DUP4 DUP14 ADD PUSH2 0x1292 JUMP JUMPDEST SWAP1 SWAP11 POP SWAP9 POP PUSH1 0x20 DUP12 ADD CALLDATALOAD SWAP2 POP DUP1 DUP3 GT ISZERO PUSH2 0x1337 JUMPI PUSH1 0x0 DUP1 REVERT JUMPDEST PUSH2 0x1343 DUP13 DUP4 DUP14 ADD PUSH2 0x1292 JUMP JUMPDEST SWAP1 SWAP9 POP SWAP7 POP PUSH1 0x40 DUP12 ADD CALLDATALOAD SWAP2 POP DUP1 DUP3 GT ISZERO PUSH2 0x135C JUMPI PUSH1 0x0 DUP1 REVERT JUMPDEST PUSH2 0x1368 DUP13 DUP4 DUP14 ADD PUSH2 0x1292 JUMP JUMPDEST SWAP1 SWAP7 POP SWAP5 POP PUSH1 0x60 DUP12 ADD CALLDATALOAD SWAP2 POP DUP1 DUP3 GT ISZERO PUSH2 0x1381 JUMPI PUSH1 0x0 DUP1 REVERT JUMPDEST POP PUSH2 0x138E DUP12 DUP3 DUP13 ADD PUSH2 0x1292 JUMP JUMPDEST SWAP10 SWAP13 SWAP9 SWAP12 POP SWAP7 SWAP10 POP SWAP5 SWAP8 SWAP4 SWAP7 SWAP3 SWAP6 SWAP5 POP POP POP JUMP JUMPDEST PUSH1 0x0 DUP1 PUSH1 0x0 PUSH1 0x60 DUP5 DUP7 SUB SLT ISZERO PUSH2 0x13B7 JUMPI PUSH1 0x0 DUP1 REVERT JUMPDEST PUSH2 0x13C0 DUP5 PUSH2 0x1006 JUMP JUMPDEST SWAP3 POP PUSH1 0x20 DUP5 ADD CALLDATALOAD PUSH8 0xFFFFFFFFFFFFFFFF DUP1 DUP3 GT ISZERO PUSH2 0x13DD JUMPI PUSH1 0x0 DUP1 REVERT JUMPDEST PUSH2 0x13E9 DUP8 DUP4 DUP9 ADD PUSH2 0x1156 JUMP JUMPDEST SWAP4 POP PUSH1 0x40 DUP7 ADD CALLDATALOAD SWAP2 POP DUP1 DUP3 GT ISZERO PUSH2 0x13FF JUMPI PUSH1 0x0 DUP1 REVERT JUMPDEST POP PUSH2 0x140C DUP7 DUP3 DUP8 ADD PUSH2 0x1156 JUMP JUMPDEST SWAP2 POP POP SWAP3 POP SWAP3 POP SWAP3 JUMP JUMPDEST DUP6 ISZERO ISZERO DUP2 MSTORE PUSH1 0xA0 PUSH1 0x20 DUP3 ADD MSTORE PUSH1 0x0 PUSH2 0x1431 PUSH1 0xA0 DUP4 ADD DUP8 PUSH2 0x1044 JUMP JUMPDEST DUP3 DUP2 SUB PUSH1 0x40 DUP5 ADD MSTORE PUSH2 0x1443 DUP2 DUP8 PUSH2 0x1044 JUMP JUMPDEST PUSH1 0xFF SWAP6 SWAP1 SWAP6 AND PUSH1 0x60 DUP5 ADD MSTORE POP POP PUSH1 0x80 ADD MSTORE SWAP4 SWAP3 POP POP POP JUMP JUMPDEST PUSH1 0x1 DUP2 DUP2 SHR SWAP1 DUP3 AND DUP1 PUSH2 0x146F JUMPI PUSH1 0x7F DUP3 AND SWAP2 POP JUMPDEST PUSH1 0x20 DUP3 LT DUP2 SUB PUSH2 0x148F JUMPI PUSH4 0x4E487B71 PUSH1 0xE0 SHL PUSH1 0x0 MSTORE PUSH1 0x22 PUSH1 0x4 MSTORE PUSH1 0x24 PUSH1 0x0 REVERT JUMPDEST POP SWAP2 SWAP1 POP JUMP JUMPDEST PUSH4 0x4E487B71 PUSH1 0xE0 SHL PUSH1 0x0 MSTORE PUSH1 0x32 PUSH1 0x4 MSTORE PUSH1 0x24 PUSH1 0x0 REVERT JUMPDEST PUSH4 0x4E487B71 PUSH1 0xE0 SHL PUSH1 0x0 MSTORE PUSH1 0x11 PUSH1 0x4 MSTORE PUSH1 0x24 PUSH1 0x0 REVERT JUMPDEST DUP2 DUP2 SUB DUP2 DUP2 GT ISZERO PUSH2 0x14D4 JUMPI PUSH2 0x14D4 PUSH2 0x14AB JUMP JUMPDEST SWAP3 SWAP2 POP POP JUMP JUMPDEST PUSH4 0x4E487B71 PUSH1 0xE0 SHL PUSH1 0x0 MSTORE PUSH1 0x31 PUSH1 0x4 MSTORE PUSH1 0x24 PUSH1 0x0 REVERT JUMPDEST PUSH1 0x0 PUSH1 0x1 DUP3 ADD PUSH2 0x1502 JUMPI PUSH2 0x1502 PUSH2 0x14AB JUMP JUMPDEST POP PUSH1 0x1 ADD SWAP1 JUMP JUMPDEST PUSH1 0x1F DUP3 GT ISZERO PUSH2 0x1553 JUMPI PUSH1 0x0 DUP2 DUP2 MSTORE PUSH1 0x20 DUP2 KECCAK256 PUSH1 0x1F DUP6 ADD PUSH1 0x5 SHR DUP2 ADD PUSH1 0x20 DUP7 LT ISZERO PUSH2 0x1530 JUMPI POP DUP1 JUMPDEST PUSH1 0x1F DUP6 ADD PUSH1 0x5 SHR DUP3 ADD SWAP2 POP JUMPDEST DUP2 DUP2 LT ISZERO PUSH2 0x154F JUMPI DUP3 DUP2 SSTORE PUSH1 0x1 ADD PUSH2 0x153C JUMP JUMPDEST POP POP POP JUMPDEST POP POP POP JUMP JUMPDEST DUP2 MLOAD PUSH8 0xFFFFFFFFFFFFFFFF DUP2 GT ISZERO PUSH2 0x1572 JUMPI PUSH2 0x1572 PUSH2 0x1140 JUMP JUMPDEST PUSH2 0x1586 DUP2 PUSH2 0x1580 DUP5 SLOAD PUSH2 0x145B JUMP JUMPDEST DUP5 PUSH2 0x1509 JUMP JUMPDEST PUSH1 0x20 DUP1 PUSH1 0x1F DUP4 GT PUSH1 0x1 DUP2 EQ PUSH2 0x15BB JUMPI PUSH1 0x0 DUP5 ISZERO PUSH2 0x15A3 JUMPI POP DUP6 DUP4 ADD MLOAD JUMPDEST PUSH1 0x0 NOT PUSH1 0x3 DUP7 SWAP1 SHL SHR NOT AND PUSH1 0x1 DUP6 SWAP1 SHL OR DUP6 SSTORE PUSH2 0x154F JUMP JUMPDEST PUSH1 0x0 DUP6 DUP2 MSTORE PUSH1 0x20 DUP2 KECCAK256 PUSH1 0x1F NOT DUP7 AND SWAP2 JUMPDEST DUP3 DUP2 LT ISZERO PUSH2 0x15EA JUMPI DUP9 DUP7 ADD MLOAD DUP3 SSTORE SWAP5 DUP5 ADD SWAP5 PUSH1 0x1 SWAP1 SWAP2 ADD SWAP1 DUP5 ADD PUSH2 0x15CB JUMP JUMPDEST POP DUP6 DUP3 LT ISZERO PUSH2 0x1608 JUMPI DUP8 DUP6 ADD MLOAD PUSH1 0x0 NOT PUSH1 0x3 DUP9 SWAP1 SHL PUSH1 0xF8 AND SHR NOT AND DUP2 SSTORE JUMPDEST POP POP POP POP POP PUSH1 0x1 SWAP1 DUP2 SHL ADD SWAP1 SSTORE POP JUMP JUMPDEST PUSH1 0x60 DUP2 MSTORE PUSH1 0x0 PUSH2 0x162B PUSH1 0x60 DUP4 ADD DUP7 PUSH2 0x1044 JUMP JUMPDEST DUP3 DUP2 SUB PUSH1 0x20 DUP5 ADD MSTORE PUSH2 0x163D DUP2 DUP7 PUSH2 0x1044 JUMP JUMPDEST SWAP2 POP POP PUSH1 0xFF DUP4 AND PUSH1 0x40 DUP4 ADD MSTORE SWAP5 SWAP4 POP POP POP POP JUMP JUMPDEST PUSH1 0x0 DUP1 DUP4 CALLDATALOAD PUSH1 0x1E NOT DUP5 CALLDATASIZE SUB ADD DUP2 SLT PUSH2 0x1668 JUMPI PUSH1 0x0 DUP1 REVERT JUMPDEST DUP4 ADD DUP1 CALLDATALOAD SWAP2 POP PUSH8 0xFFFFFFFFFFFFFFFF DUP3 GT ISZERO PUSH2 0x1683 JUMPI PUSH1 0x0 DUP1 REVERT JUMPDEST PUSH1 0x20 ADD SWAP2 POP CALLDATASIZE DUP2 SWAP1 SUB DUP3 SGT ISZERO PUSH2 0x12D7 JUMPI PUSH1 0x0 DUP1 REVERT JUMPDEST PUSH1 0x0 PUSH1 0x20 DUP3 DUP5 SUB SLT ISZERO PUSH2 0x16AA JUMPI PUSH1 0x0 DUP1 REVERT JUMPDEST PUSH2 0x103D DUP3 PUSH2 0x11E3 JUMP JUMPDEST DUP2 DUP4 MSTORE DUP2 DUP2 PUSH1 0x20 DUP6 ADD CALLDATACOPY POP PUSH1 0x0 DUP3 DUP3 ADD PUSH1 0x20 SWAP1 DUP2 ADD SWAP2 SWAP1 SWAP2 MSTORE PUSH1 0x1F SWAP1 SWAP2 ADD PUSH1 0x1F NOT AND SWAP1 SWAP2 ADD ADD SWAP1 JUMP JUMPDEST PUSH1 0x60 DUP2 MSTORE PUSH1 0x0 PUSH2 0x16F0 PUSH1 0x60 DUP4 ADD DUP8 DUP10 PUSH2 0x16B3 JUMP JUMPDEST DUP3 DUP2 SUB PUSH1 0x20 DUP5 ADD MSTORE PUSH2 0x1703 DUP2 DUP7 DUP9 PUSH2 0x16B3 JUMP JUMPDEST SWAP2 POP POP PUSH1 0xFF DUP4 AND PUSH1 0x40 DUP4 ADD MSTORE SWAP7 SWAP6 POP POP POP POP POP POP JUMP JUMPDEST PUSH1 0x40 DUP2 MSTORE PUSH1 0x0 PUSH2 0x172C PUSH1 0x40 DUP4 ADD DUP6 PUSH2 0x1044 JUMP JUMPDEST DUP3 DUP2 SUB PUSH1 0x20 DUP5 ADD MSTORE PUSH2 0x173E DUP2 DUP6 PUSH2 0x1044 JUMP JUMPDEST SWAP6 SWAP5 POP POP POP POP POP JUMP INVALID LOG2 PUSH5 0x6970667358 0x22 SLT KECCAK256 0xB7 0x28 0xC6 0xEE 0xC7 0xE8 PUSH20 0x733E70234E4C897F784ACB4C1246D0C49473B5F8 0xCC 0xE4 0xCA PUSH26 0xFD64736F6C634300081400330000000000000000000000000000 "},"methodIdentifiers":{"addToken(address,string,string,uint8)":"8e404e9c","addTokensBatch(address[],string[],string[],uint8[])":"b88e15f2","getAllTokens()":"2a5c792a","getTokenCount()":"78a89567","getTokenInfo(address)":"1f69565f","isWhitelisted(address)":"3af32abf","owner()":"8da5cb5b","removeToken(address)":"5fa7b584","renounceOwnership()":"715018a6","tokenList(uint256)":"9ead7222","tokens(address)":"e4860339","transferOwnership(address)":"f2fde38b","updateTokenInfo(address,string,string)":"e2992c96"}}}}}