{"contracts/Router.sol":{"Router":{"abi":[{"inputs":[{"internalType":"address","name":"_vault","type":"address"},{"internalType":"address","name":"_factory","type":"address"},{"internalType":"address","name":"_weth","type":"address"}],"stateMutability":"nonpayable","type":"constructor"},{"inputs":[],"name":"ReentrancyGuardReentrantCall","type":"error"},{"anonymous":false,"inputs":[{"indexed":true,"internalType":"address","name":"user","type":"address"},{"indexed":true,"internalType":"address","name":"pool","type":"address"},{"indexed":false,"internalType":"uint256","name":"amount0","type":"uint256"},{"indexed":false,"internalType":"uint256","name":"amount1","type":"uint256"},{"indexed":false,"internalType":"uint256","name":"liquidity","type":"uint256"}],"name":"LiquidityAdded","type":"event"},{"anonymous":false,"inputs":[{"indexed":true,"internalType":"address","name":"user","type":"address"},{"indexed":true,"internalType":"address","name":"pool","type":"address"},{"indexed":false,"internalType":"address","name":"tokenIn","type":"address"},{"indexed":false,"internalType":"address","name":"tokenOut","type":"address"},{"indexed":false,"internalType":"uint256","name":"amountIn","type":"uint256"},{"indexed":false,"internalType":"uint256","name":"amountOut","type":"uint256"},{"indexed":false,"internalType":"address","name":"to","type":"address"}],"name":"SwapExecuted","type":"event"},{"inputs":[],"name":"WETH","outputs":[{"internalType":"address","name":"","type":"address"}],"stateMutability":"view","type":"function"},{"inputs":[{"internalType":"address","name":"tokenA","type":"address"},{"internalType":"address","name":"tokenB","type":"address"},{"internalType":"uint256","name":"amountADesired","type":"uint256"},{"internalType":"uint256","name":"amountBDesired","type":"uint256"},{"internalType":"uint256","name":"amountAMin","type":"uint256"},{"internalType":"uint256","name":"amountBMin","type":"uint256"},{"internalType":"address","name":"to","type":"address"},{"internalType":"uint256","name":"deadline","type":"uint256"}],"name":"addLiquidity","outputs":[{"internalType":"uint256","name":"amountA","type":"uint256"},{"internalType":"uint256","name":"amountB","type":"uint256"},{"internalType":"uint256","name":"liquidity","type":"uint256"}],"stateMutability":"nonpayable","type":"function"},{"inputs":[],"name":"factory","outputs":[{"internalType":"contract IPoolFactory","name":"","type":"address"}],"stateMutability":"view","type":"function"},{"inputs":[{"internalType":"uint256","name":"amountIn","type":"uint256"},{"internalType":"address[]","name":"path","type":"address[]"}],"name":"getAmountOut","outputs":[{"internalType":"uint256[]","name":"amounts","type":"uint256[]"}],"stateMutability":"view","type":"function"},{"inputs":[{"internalType":"uint256","name":"amountOutMin","type":"uint256"},{"internalType":"address[]","name":"path","type":"address[]"},{"internalType":"address","name":"to","type":"address"},{"internalType":"uint256","name":"deadline","type":"uint256"}],"name":"swapExactETHForTokens","outputs":[{"internalType":"uint256[]","name":"amounts","type":"uint256[]"}],"stateMutability":"payable","type":"function"},{"inputs":[{"internalType":"uint256","name":"amountIn","type":"uint256"},{"internalType":"uint256","name":"amountOutMin","type":"uint256"},{"internalType":"address[]","name":"path","type":"address[]"},{"internalType":"address","name":"to","type":"address"},{"internalType":"uint256","name":"deadline","type":"uint256"}],"name":"swapExactTokensForTokens","outputs":[{"internalType":"uint256[]","name":"amounts","type":"uint256[]"}],"stateMutability":"nonpayable","type":"function"},{"inputs":[],"name":"vault","outputs":[{"internalType":"contract IVault","name":"","type":"address"}],"stateMutability":"view","type":"function"},{"stateMutability":"payable","type":"receive"}],"evm":{"bytecode":{"linkReferences":{},"object":"60e06040523480156200001157600080fd5b506040516200203638038062002036833981016040819052620000349162000169565b60016000556001600160a01b0383166200008a5760405162461bcd60e51b8152602060048201526012602482015271149bdd5d195c8e881e995c9bc81d985d5b1d60721b60448201526064015b60405180910390fd5b6001600160a01b038216620000e25760405162461bcd60e51b815260206004820152601460248201527f526f757465723a207a65726f20666163746f7279000000000000000000000000604482015260640162000081565b6001600160a01b0381166200012e5760405162461bcd60e51b81526020600482015260116024820152700a4deeae8cae47440f4cae4de40eecae8d607b1b604482015260640162000081565b6001600160a01b0392831660805290821660a0521660c052620001b3565b80516001600160a01b03811681146200016457600080fd5b919050565b6000806000606084860312156200017f57600080fd5b6200018a846200014c565b92506200019a602085016200014c565b9150620001aa604085016200014c565b90509250925092565b60805160a05160c051611de4620002526000396000818160840152818161014b01528181610a6d0152610bda0152600081816101b7015281816105730152818161082f01528181610c6401528181610f20015281816111b0015261142801526000818161022601528181610420015281816104a101528181610bab015281816115cf01528181611663015281816116e2015261178b0152611de46000f3fe6080604052600436106100745760003560e01c8063b8239ebb1161004e578063b8239ebb14610185578063c45a0155146101a5578063e8e33700146101d9578063fbfa77cf1461021457600080fd5b806338ed1739146100f05780637ff36ab514610126578063ad5c46481461013957600080fd5b366100eb57336001600160a01b037f000000000000000000000000000000000000000000000000000000000000000016146100e95760405162461bcd60e51b815260206004820152601060248201526f0a4deeae8cae47440dcdee840ae8aa8960831b60448201526064015b60405180910390fd5b005b600080fd5b3480156100fc57600080fd5b5061011061010b366004611a1a565b610248565b60405161011d9190611a8d565b60405180910390f35b610110610134366004611ad1565b610a1f565b34801561014557600080fd5b5061016d7f000000000000000000000000000000000000000000000000000000000000000081565b6040516001600160a01b03909116815260200161011d565b34801561019157600080fd5b506101106101a0366004611b38565b61110f565b3480156101b157600080fd5b5061016d7f000000000000000000000000000000000000000000000000000000000000000081565b3480156101e557600080fd5b506101f96101f4366004611b84565b6113d0565b6040805193845260208401929092529082015260600161011d565b34801561022057600080fd5b5061016d7f000000000000000000000000000000000000000000000000000000000000000081565b6060814281101561026b5760405162461bcd60e51b81526004016100e090611c00565b6102736118df565b60028510156102945760405162461bcd60e51b81526004016100e090611c29565b6001600160a01b0384166102e15760405162461bcd60e51b8152602060048201526014602482015273526f757465723a207a65726f206164647265737360601b60448201526064016100e0565b8467ffffffffffffffff8111156102fa576102fa611c57565b604051908082528060200260200182016040528015610323578160200160208202803683370190505b509150878260008151811061033a5761033a611c6d565b6020026020010181815250508585600081811061035957610359611c6d565b905060200201602081019061036e9190611c83565b6001600160a01b03166323b872dd33308b6040518463ffffffff1660e01b815260040161039d93929190611ca7565b6020604051808303816000875af11580156103bc573d6000803e3d6000fd5b505050506040513d601f19601f820116820180604052508101906103e09190611ccb565b50858560008181106103f4576103f4611c6d565b90506020020160208101906104099190611c83565b60405163095ea7b360e01b81526001600160a01b037f000000000000000000000000000000000000000000000000000000000000000081166004830152602482018b9052919091169063095ea7b3906044016020604051808303816000875af115801561047a573d6000803e3d6000fd5b505050506040513d601f19601f8201168201806040525081019061049e9190611ccb565b507f00000000000000000000000000000000000000000000000000000000000000006001600160a01b0316638340f549878760008181106104e1576104e1611c6d565b90506020020160208101906104f69190611c83565b338b6040518463ffffffff1660e01b815260040161051693929190611ca7565b6020604051808303816000875af1158015610535573d6000803e3d6000fd5b505050506040513d601f19601f820116820180604052508101906105599190611ced565b5060005b610568600187611d1c565b8110156107b65760007f00000000000000000000000000000000000000000000000000000000000000006001600160a01b031663531aa03e8989858181106105b2576105b2611c6d565b90506020020160208101906105c79190611c83565b8a8a6105d4876001611d35565b8181106105e3576105e3611c6d565b90506020020160208101906105f89190611c83565b6040516001600160e01b031960e085901b1681526001600160a01b03928316600482015291166024820152604401602060405180830381865afa158015610643573d6000803e3d6000fd5b505050506040513d601f19601f820116820180604052508101906106679190611d48565b90506001600160a01b03811661068f5760405162461bcd60e51b81526004016100e090611d65565b6000816001600160a01b0316631800c11a8a8a868181106106b2576106b2611c6d565b90506020020160208101906106c79190611c83565b6106d260028c611d1c565b86146106de57336106e0565b895b6106eb60028d611d1c565b87146106f85760006106fb565b60015b6040516001600160e01b031960e086901b1681526001600160a01b03938416600482015292909116602483015260ff1660448201526064016020604051808303816000875af1158015610752573d6000803e3d6000fd5b505050506040513d601f19601f820116820180604052508101906107769190611ced565b90508085610785856001611d35565b8151811061079557610795611c6d565b602002602001018181525050505080806107ae90611d95565b91505061055d565b508682600184516107c79190611d1c565b815181106107d7576107d7611c6d565b6020026020010151101561082d5760405162461bcd60e51b815260206004820152601b60248201527f526f757465723a20696e73756666696369656e74206f7574707574000000000060448201526064016100e0565b7f00000000000000000000000000000000000000000000000000000000000000006001600160a01b031663531aa03e8787600081811061086f5761086f611c6d565b90506020020160208101906108849190611c83565b8888600181811061089757610897611c6d565b90506020020160208101906108ac9190611c83565b6040516001600160e01b031960e085901b1681526001600160a01b03928316600482015291166024820152604401602060405180830381865afa1580156108f7573d6000803e3d6000fd5b505050506040513d601f19601f8201168201806040525081019061091b9190611d48565b6001600160a01b0316337fe90a90b0b0c8313457ea589ce6bdeda270d8a9aa2e9eb31dfe64603052f547d9888860008161095757610957611c6d565b905060200201602081019061096c9190611c83565b8989610979600182611d1c565b81811061098857610988611c6d565b905060200201602081019061099d9190611c83565b8c87600189516109ad9190611d1c565b815181106109bd576109bd611c6d565b60200260200101518a604051610a029594939291906001600160a01b039586168152938516602085015260408401929092526060830152909116608082015260a00190565b60405180910390a3610a146001600055565b509695505050505050565b60608142811015610a425760405162461bcd60e51b81526004016100e090611c00565b610a4a6118df565b6002851015610a6b5760405162461bcd60e51b81526004016100e090611c29565b7f00000000000000000000000000000000000000000000000000000000000000006001600160a01b031686866000818110610aa857610aa8611c6d565b9050602002016020810190610abd9190611c83565b6001600160a01b031614610ae35760405162461bcd60e51b81526004016100e090611c29565b6001600160a01b038416610b305760405162461bcd60e51b8152602060048201526014602482015273526f757465723a207a65726f206164647265737360601b60448201526064016100e0565b8467ffffffffffffffff811115610b4957610b49611c57565b604051908082528060200260200182016040528015610b72578160200160208202803683370190505b5091503482600081518110610b8957610b89611c6d565b6020908102919091010152604051638340f54960e01b81526001600160a01b037f00000000000000000000000000000000000000000000000000000000000000001690638340f549903490610c07907f0000000000000000000000000000000000000000000000000000000000000000903390600090600401611ca7565b60206040518083038185885af1158015610c25573d6000803e3d6000fd5b50505050506040513d601f19601f82011682018060405250810190610c4a9190611ced565b5060005b610c59600187611d1c565b811015610ea75760007f00000000000000000000000000000000000000000000000000000000000000006001600160a01b031663531aa03e898985818110610ca357610ca3611c6d565b9050602002016020810190610cb89190611c83565b8a8a610cc5876001611d35565b818110610cd457610cd4611c6d565b9050602002016020810190610ce99190611c83565b6040516001600160e01b031960e085901b1681526001600160a01b03928316600482015291166024820152604401602060405180830381865afa158015610d34573d6000803e3d6000fd5b505050506040513d601f19601f82011682018060405250810190610d589190611d48565b90506001600160a01b038116610d805760405162461bcd60e51b81526004016100e090611d65565b6000816001600160a01b0316631800c11a8a8a86818110610da357610da3611c6d565b9050602002016020810190610db89190611c83565b610dc360028c611d1c565b8614610dcf5733610dd1565b895b610ddc60028d611d1c565b8714610de9576000610dec565b60015b6040516001600160e01b031960e086901b1681526001600160a01b03938416600482015292909116602483015260ff1660448201526064016020604051808303816000875af1158015610e43573d6000803e3d6000fd5b505050506040513d601f19601f82011682018060405250810190610e679190611ced565b90508085610e76856001611d35565b81518110610e8657610e86611c6d565b60200260200101818152505050508080610e9f90611d95565b915050610c4e565b50868260018451610eb89190611d1c565b81518110610ec857610ec8611c6d565b60200260200101511015610f1e5760405162461bcd60e51b815260206004820152601b60248201527f526f757465723a20696e73756666696369656e74206f7574707574000000000060448201526064016100e0565b7f00000000000000000000000000000000000000000000000000000000000000006001600160a01b031663531aa03e87876000818110610f6057610f60611c6d565b9050602002016020810190610f759190611c83565b88886001818110610f8857610f88611c6d565b9050602002016020810190610f9d9190611c83565b6040516001600160e01b031960e085901b1681526001600160a01b03928316600482015291166024820152604401602060405180830381865afa158015610fe8573d6000803e3d6000fd5b505050506040513d601f19601f8201168201806040525081019061100c9190611d48565b6001600160a01b0316337fe90a90b0b0c8313457ea589ce6bdeda270d8a9aa2e9eb31dfe64603052f547d9888860008161104857611048611c6d565b905060200201602081019061105d9190611c83565b898961106a600182611d1c565b81811061107957611079611c6d565b905060200201602081019061108e9190611c83565b34876001895161109e9190611d1c565b815181106110ae576110ae611c6d565b60200260200101518a6040516110f39594939291906001600160a01b039586168152938516602085015260408401929092526060830152909116608082015260a00190565b60405180910390a36111056001600055565b5095945050505050565b606060028210156111325760405162461bcd60e51b81526004016100e090611c29565b8167ffffffffffffffff81111561114b5761114b611c57565b604051908082528060200260200182016040528015611174578160200160208202803683370190505b509050838160008151811061118b5761118b611c6d565b60200260200101818152505060005b6111a5600184611d1c565b8110156113c85760007f00000000000000000000000000000000000000000000000000000000000000006001600160a01b031663531aa03e8686858181106111ef576111ef611c6d565b90506020020160208101906112049190611c83565b8787611211876001611d35565b81811061122057611220611c6d565b90506020020160208101906112359190611c83565b6040516001600160e01b031960e085901b1681526001600160a01b03928316600482015291166024820152604401602060405180830381865afa158015611280573d6000803e3d6000fd5b505050506040513d601f19601f820116820180604052508101906112a49190611d48565b90506001600160a01b0381166112cc5760405162461bcd60e51b81526004016100e090611d65565b806001600160a01b031663ca706bcf8686858181106112ed576112ed611c6d565b90506020020160208101906113029190611c83565b85858151811061131457611314611c6d565b60200260200101516040518363ffffffff1660e01b815260040161134d9291906001600160a01b03929092168252602082015260400190565b602060405180830381865afa15801561136a573d6000803e3d6000fd5b505050506040513d601f19601f8201168201806040525081019061138e9190611ced565b8361139a846001611d35565b815181106113aa576113aa611c6d565b602090810291909101015250806113c081611d95565b91505061119a565b509392505050565b600080600083428110156113f65760405162461bcd60e51b81526004016100e090611c00565b6113fe6118df565b60405163298d501f60e11b81526001600160a01b038d811660048301528c811660248301526000917f00000000000000000000000000000000000000000000000000000000000000009091169063531aa03e90604401602060405180830381865afa158015611471573d6000803e3d6000fd5b505050506040513d601f19601f820116820180604052508101906114959190611d48565b90506001600160a01b0381166114bd5760405162461bcd60e51b81526004016100e090611d65565b6114cb8d8d8d8d8d8d611909565b6040516323b872dd60e01b815291965094506001600160a01b038e16906323b872dd9061150090339030908a90600401611ca7565b6020604051808303816000875af115801561151f573d6000803e3d6000fd5b505050506040513d601f19601f820116820180604052508101906115439190611ccb565b506040516323b872dd60e01b81526001600160a01b038d16906323b872dd9061157490339030908990600401611ca7565b6020604051808303816000875af1158015611593573d6000803e3d6000fd5b505050506040513d601f19601f820116820180604052508101906115b79190611ccb565b5060405163095ea7b360e01b81526001600160a01b037f000000000000000000000000000000000000000000000000000000000000000081166004830152602482018790528e169063095ea7b3906044016020604051808303816000875af1158015611627573d6000803e3d6000fd5b505050506040513d601f19601f8201168201806040525081019061164b9190611ccb565b5060405163095ea7b360e01b81526001600160a01b037f000000000000000000000000000000000000000000000000000000000000000081166004830152602482018690528d169063095ea7b3906044016020604051808303816000875af11580156116bb573d6000803e3d6000fd5b505050506040513d601f19601f820116820180604052508101906116df9190611ccb565b507f00000000000000000000000000000000000000000000000000000000000000006001600160a01b0316638340f5498e83886040518463ffffffff1660e01b815260040161173093929190611ca7565b6020604051808303816000875af115801561174f573d6000803e3d6000fd5b505050506040513d601f19601f820116820180604052508101906117739190611ced565b50604051638340f54960e01b81526001600160a01b037f00000000000000000000000000000000000000000000000000000000000000001690638340f549906117c4908f9085908990600401611ca7565b6020604051808303816000875af11580156117e3573d6000803e3d6000fd5b505050506040513d601f19601f820116820180604052508101906118079190611ced565b506040516335313c2160e11b81526001600160a01b038881166004830152821690636a627842906024016020604051808303816000875af1158015611850573d6000803e3d6000fd5b505050506040513d601f19601f820116820180604052508101906118749190611ced565b60408051878152602081018790529081018290529093506001600160a01b0382169033907f4a1a2a6176e9646d9e3157f7c2ab3c499f18337c0b0828cfb28e0a61de4a11f79060600160405180910390a3506118d06001600055565b50985098509895505050505050565b60026000540361190257604051633ee5aeb560e01b815260040160405180910390fd5b6002600055565b83838382101561195b5760405162461bcd60e51b815260206004820152601d60248201527f526f757465723a20696e73756666696369656e74204120616d6f756e7400000060448201526064016100e0565b828110156119ab5760405162461bcd60e51b815260206004820152601d60248201527f526f757465723a20696e73756666696369656e74204220616d6f756e7400000060448201526064016100e0565b965096945050505050565b60008083601f8401126119c857600080fd5b50813567ffffffffffffffff8111156119e057600080fd5b6020830191508360208260051b85010111156119fb57600080fd5b9250929050565b6001600160a01b0381168114611a1757600080fd5b50565b60008060008060008060a08789031215611a3357600080fd5b8635955060208701359450604087013567ffffffffffffffff811115611a5857600080fd5b611a6489828a016119b6565b9095509350506060870135611a7881611a02565b80925050608087013590509295509295509295565b6020808252825182820181905260009190848201906040850190845b81811015611ac557835183529284019291840191600101611aa9565b50909695505050505050565b600080600080600060808688031215611ae957600080fd5b85359450602086013567ffffffffffffffff811115611b0757600080fd5b611b13888289016119b6565b9095509350506040860135611b2781611a02565b949793965091946060013592915050565b600080600060408486031215611b4d57600080fd5b83359250602084013567ffffffffffffffff811115611b6b57600080fd5b611b77868287016119b6565b9497909650939450505050565b600080600080600080600080610100898b031215611ba157600080fd5b8835611bac81611a02565b97506020890135611bbc81611a02565b965060408901359550606089013594506080890135935060a0890135925060c0890135611be881611a02565b8092505060e089013590509295985092959890939650565b6020808252600f908201526e149bdd5d195c8e88195e1c1a5c9959608a1b604082015260600190565b6020808252601490820152730a4deeae8cae47440d2dcecc2d8d2c840e0c2e8d60631b604082015260600190565b634e487b7160e01b600052604160045260246000fd5b634e487b7160e01b600052603260045260246000fd5b600060208284031215611c9557600080fd5b8135611ca081611a02565b9392505050565b6001600160a01b039384168152919092166020820152604081019190915260600190565b600060208284031215611cdd57600080fd5b81518015158114611ca057600080fd5b600060208284031215611cff57600080fd5b5051919050565b634e487b7160e01b600052601160045260246000fd5b81810381811115611d2f57611d2f611d06565b92915050565b80820180821115611d2f57611d2f611d06565b600060208284031215611d5a57600080fd5b8151611ca081611a02565b602080825260169082015275149bdd5d195c8e881c1bdbdb081b9bdd08199bdd5b9960521b604082015260600190565b600060018201611da757611da7611d06565b506001019056fea2646970667358221220d942ab8e26dfaecaa4bbd29ae4d82268d2c6696fb1e9281b589c3ca69c46a16a64736f6c63430008140033","opcodes":"PUSH1 0xE0 PUSH1 0x40 MSTORE CALLVALUE DUP1 ISZERO PUSH3 0x11 JUMPI PUSH1 0x0 DUP1 REVERT JUMPDEST POP PUSH1 0x40 MLOAD PUSH3 0x2036 CODESIZE SUB DUP1 PUSH3 0x2036 DUP4 CODECOPY DUP2 ADD PUSH1 0x40 DUP2 SWAP1 MSTORE PUSH3 0x34 SWAP2 PUSH3 0x169 JUMP JUMPDEST PUSH1 0x1 PUSH1 0x0 SSTORE PUSH1 0x1 PUSH1 0x1 PUSH1 0xA0 SHL SUB DUP4 AND PUSH3 0x8A JUMPI PUSH1 0x40 MLOAD PUSH3 0x461BCD PUSH1 0xE5 SHL DUP2 MSTORE PUSH1 0x20 PUSH1 0x4 DUP3 ADD MSTORE PUSH1 0x12 PUSH1 0x24 DUP3 ADD MSTORE PUSH18 0x149BDD5D195C8E881E995C9BC81D985D5B1D PUSH1 0x72 SHL PUSH1 0x44 DUP3 ADD MSTORE PUSH1 0x64 ADD JUMPDEST PUSH1 0x40 MLOAD DUP1 SWAP2 SUB SWAP1 REVERT JUMPDEST PUSH1 0x1 PUSH1 0x1 PUSH1 0xA0 SHL SUB DUP3 AND PUSH3 0xE2 JUMPI PUSH1 0x40 MLOAD PUSH3 0x461BCD PUSH1 0xE5 SHL DUP2 MSTORE PUSH1 0x20 PUSH1 0x4 DUP3 ADD MSTORE PUSH1 0x14 PUSH1 0x24 DUP3 ADD MSTORE PUSH32 0x526F757465723A207A65726F20666163746F7279000000000000000000000000 PUSH1 0x44 DUP3 ADD MSTORE PUSH1 0x64 ADD PUSH3 0x81 JUMP JUMPDEST PUSH1 0x1 PUSH1 0x1 PUSH1 0xA0 SHL SUB DUP2 AND PUSH3 0x12E JUMPI PUSH1 0x40 MLOAD PUSH3 0x461BCD PUSH1 0xE5 SHL DUP2 MSTORE PUSH1 0x20 PUSH1 0x4 DUP3 ADD MSTORE PUSH1 0x11 PUSH1 0x24 DUP3 ADD MSTORE PUSH17 0xA4DEEAE8CAE47440F4CAE4DE40EECAE8D PUSH1 0x7B SHL PUSH1 0x44 DUP3 ADD MSTORE PUSH1 0x64 ADD PUSH3 0x81 JUMP JUMPDEST PUSH1 0x1 PUSH1 0x1 PUSH1 0xA0 SHL SUB SWAP3 DUP4 AND PUSH1 0x80 MSTORE SWAP1 DUP3 AND PUSH1 0xA0 MSTORE AND PUSH1 0xC0 MSTORE PUSH3 0x1B3 JUMP JUMPDEST DUP1 MLOAD PUSH1 0x1 PUSH1 0x1 PUSH1 0xA0 SHL SUB DUP2 AND DUP2 EQ PUSH3 0x164 JUMPI PUSH1 0x0 DUP1 REVERT JUMPDEST SWAP2 SWAP1 POP JUMP JUMPDEST PUSH1 0x0 DUP1 PUSH1 0x0 PUSH1 0x60 DUP5 DUP7 SUB SLT ISZERO PUSH3 0x17F JUMPI PUSH1 0x0 DUP1 REVERT JUMPDEST PUSH3 0x18A DUP5 PUSH3 0x14C JUMP JUMPDEST SWAP3 POP PUSH3 0x19A PUSH1 0x20 DUP6 ADD PUSH3 0x14C JUMP JUMPDEST SWAP2 POP PUSH3 0x1AA PUSH1 0x40 DUP6 ADD PUSH3 0x14C JUMP JUMPDEST SWAP1 POP SWAP3 POP SWAP3 POP SWAP3 JUMP JUMPDEST PUSH1 0x80 MLOAD PUSH1 0xA0 MLOAD PUSH1 0xC0 MLOAD PUSH2 0x1DE4 PUSH3 0x252 PUSH1 0x0 CODECOPY PUSH1 0x0 DUP2 DUP2 PUSH1 0x84 ADD MSTORE DUP2 DUP2 PUSH2 0x14B ADD MSTORE DUP2 DUP2 PUSH2 0xA6D ADD MSTORE PUSH2 0xBDA ADD MSTORE PUSH1 0x0 DUP2 DUP2 PUSH2 0x1B7 ADD MSTORE DUP2 DUP2 PUSH2 0x573 ADD MSTORE DUP2 DUP2 PUSH2 0x82F ADD MSTORE DUP2 DUP2 PUSH2 0xC64 ADD MSTORE DUP2 DUP2 PUSH2 0xF20 ADD MSTORE DUP2 DUP2 PUSH2 0x11B0 ADD MSTORE PUSH2 0x1428 ADD MSTORE PUSH1 0x0 DUP2 DUP2 PUSH2 0x226 ADD MSTORE DUP2 DUP2 PUSH2 0x420 ADD MSTORE DUP2 DUP2 PUSH2 0x4A1 ADD MSTORE DUP2 DUP2 PUSH2 0xBAB ADD MSTORE DUP2 DUP2 PUSH2 0x15CF ADD MSTORE DUP2 DUP2 PUSH2 0x1663 ADD MSTORE DUP2 DUP2 PUSH2 0x16E2 ADD MSTORE PUSH2 0x178B ADD MSTORE PUSH2 0x1DE4 PUSH1 0x0 RETURN INVALID PUSH1 0x80 PUSH1 0x40 MSTORE PUSH1 0x4 CALLDATASIZE LT PUSH2 0x74 JUMPI PUSH1 0x0 CALLDATALOAD PUSH1 0xE0 SHR DUP1 PUSH4 0xB8239EBB GT PUSH2 0x4E JUMPI DUP1 PUSH4 0xB8239EBB EQ PUSH2 0x185 JUMPI DUP1 PUSH4 0xC45A0155 EQ PUSH2 0x1A5 JUMPI DUP1 PUSH4 0xE8E33700 EQ PUSH2 0x1D9 JUMPI DUP1 PUSH4 0xFBFA77CF EQ PUSH2 0x214 JUMPI PUSH1 0x0 DUP1 REVERT JUMPDEST DUP1 PUSH4 0x38ED1739 EQ PUSH2 0xF0 JUMPI DUP1 PUSH4 0x7FF36AB5 EQ PUSH2 0x126 JUMPI DUP1 PUSH4 0xAD5C4648 EQ PUSH2 0x139 JUMPI PUSH1 0x0 DUP1 REVERT JUMPDEST CALLDATASIZE PUSH2 0xEB JUMPI CALLER PUSH1 0x1 PUSH1 0x1 PUSH1 0xA0 SHL SUB PUSH32 0x0 AND EQ PUSH2 0xE9 JUMPI PUSH1 0x40 MLOAD PUSH3 0x461BCD PUSH1 0xE5 SHL DUP2 MSTORE PUSH1 0x20 PUSH1 0x4 DUP3 ADD MSTORE PUSH1 0x10 PUSH1 0x24 DUP3 ADD MSTORE PUSH16 0xA4DEEAE8CAE47440DCDEE840AE8AA89 PUSH1 0x83 SHL PUSH1 0x44 DUP3 ADD MSTORE PUSH1 0x64 ADD JUMPDEST PUSH1 0x40 MLOAD DUP1 SWAP2 SUB SWAP1 REVERT JUMPDEST STOP JUMPDEST PUSH1 0x0 DUP1 REVERT JUMPDEST CALLVALUE DUP1 ISZERO PUSH2 0xFC JUMPI PUSH1 0x0 DUP1 REVERT JUMPDEST POP PUSH2 0x110 PUSH2 0x10B CALLDATASIZE PUSH1 0x4 PUSH2 0x1A1A JUMP JUMPDEST PUSH2 0x248 JUMP JUMPDEST PUSH1 0x40 MLOAD PUSH2 0x11D SWAP2 SWAP1 PUSH2 0x1A8D JUMP JUMPDEST PUSH1 0x40 MLOAD DUP1 SWAP2 SUB SWAP1 RETURN JUMPDEST PUSH2 0x110 PUSH2 0x134 CALLDATASIZE PUSH1 0x4 PUSH2 0x1AD1 JUMP JUMPDEST PUSH2 0xA1F JUMP JUMPDEST CALLVALUE DUP1 ISZERO PUSH2 0x145 JUMPI PUSH1 0x0 DUP1 REVERT JUMPDEST POP PUSH2 0x16D PUSH32 0x0 DUP2 JUMP JUMPDEST PUSH1 0x40 MLOAD PUSH1 0x1 PUSH1 0x1 PUSH1 0xA0 SHL SUB SWAP1 SWAP2 AND DUP2 MSTORE PUSH1 0x20 ADD PUSH2 0x11D JUMP JUMPDEST CALLVALUE DUP1 ISZERO PUSH2 0x191 JUMPI PUSH1 0x0 DUP1 REVERT JUMPDEST POP PUSH2 0x110 PUSH2 0x1A0 CALLDATASIZE PUSH1 0x4 PUSH2 0x1B38 JUMP JUMPDEST PUSH2 0x110F JUMP JUMPDEST CALLVALUE DUP1 ISZERO PUSH2 0x1B1 JUMPI PUSH1 0x0 DUP1 REVERT JUMPDEST POP PUSH2 0x16D PUSH32 0x0 DUP2 JUMP JUMPDEST CALLVALUE DUP1 ISZERO PUSH2 0x1E5 JUMPI PUSH1 0x0 DUP1 REVERT JUMPDEST POP PUSH2 0x1F9 PUSH2 0x1F4 CALLDATASIZE PUSH1 0x4 PUSH2 0x1B84 JUMP JUMPDEST PUSH2 0x13D0 JUMP JUMPDEST PUSH1 0x40 DUP1 MLOAD SWAP4 DUP5 MSTORE PUSH1 0x20 DUP5 ADD SWAP3 SWAP1 SWAP3 MSTORE SWAP1 DUP3 ADD MSTORE PUSH1 0x60 ADD PUSH2 0x11D JUMP JUMPDEST CALLVALUE DUP1 ISZERO PUSH2 0x220 JUMPI PUSH1 0x0 DUP1 REVERT JUMPDEST POP PUSH2 0x16D PUSH32 0x0 DUP2 JUMP JUMPDEST PUSH1 0x60 DUP2 TIMESTAMP DUP2 LT ISZERO PUSH2 0x26B JUMPI PUSH1 0x40 MLOAD PUSH3 0x461BCD PUSH1 0xE5 SHL DUP2 MSTORE PUSH1 0x4 ADD PUSH2 0xE0 SWAP1 PUSH2 0x1C00 JUMP JUMPDEST PUSH2 0x273 PUSH2 0x18DF JUMP JUMPDEST PUSH1 0x2 DUP6 LT ISZERO PUSH2 0x294 JUMPI PUSH1 0x40 MLOAD PUSH3 0x461BCD PUSH1 0xE5 SHL DUP2 MSTORE PUSH1 0x4 ADD PUSH2 0xE0 SWAP1 PUSH2 0x1C29 JUMP JUMPDEST PUSH1 0x1 PUSH1 0x1 PUSH1 0xA0 SHL SUB DUP5 AND PUSH2 0x2E1 JUMPI PUSH1 0x40 MLOAD PUSH3 0x461BCD PUSH1 0xE5 SHL DUP2 MSTORE PUSH1 0x20 PUSH1 0x4 DUP3 ADD MSTORE PUSH1 0x14 PUSH1 0x24 DUP3 ADD MSTORE PUSH20 0x526F757465723A207A65726F2061646472657373 PUSH1 0x60 SHL PUSH1 0x44 DUP3 ADD MSTORE PUSH1 0x64 ADD PUSH2 0xE0 JUMP JUMPDEST DUP5 PUSH8 0xFFFFFFFFFFFFFFFF DUP2 GT ISZERO PUSH2 0x2FA JUMPI PUSH2 0x2FA PUSH2 0x1C57 JUMP JUMPDEST PUSH1 0x40 MLOAD SWAP1 DUP1 DUP3 MSTORE DUP1 PUSH1 0x20 MUL PUSH1 0x20 ADD DUP3 ADD PUSH1 0x40 MSTORE DUP1 ISZERO PUSH2 0x323 JUMPI DUP2 PUSH1 0x20 ADD PUSH1 0x20 DUP3 MUL DUP1 CALLDATASIZE DUP4 CALLDATACOPY ADD SWAP1 POP JUMPDEST POP SWAP2 POP DUP8 DUP3 PUSH1 0x0 DUP2 MLOAD DUP2 LT PUSH2 0x33A JUMPI PUSH2 0x33A PUSH2 0x1C6D JUMP JUMPDEST PUSH1 0x20 MUL PUSH1 0x20 ADD ADD DUP2 DUP2 MSTORE POP POP DUP6 DUP6 PUSH1 0x0 DUP2 DUP2 LT PUSH2 0x359 JUMPI PUSH2 0x359 PUSH2 0x1C6D JUMP JUMPDEST SWAP1 POP PUSH1 0x20 MUL ADD PUSH1 0x20 DUP2 ADD SWAP1 PUSH2 0x36E SWAP2 SWAP1 PUSH2 0x1C83 JUMP JUMPDEST PUSH1 0x1 PUSH1 0x1 PUSH1 0xA0 SHL SUB AND PUSH4 0x23B872DD CALLER ADDRESS DUP12 PUSH1 0x40 MLOAD DUP5 PUSH4 0xFFFFFFFF AND PUSH1 0xE0 SHL DUP2 MSTORE PUSH1 0x4 ADD PUSH2 0x39D SWAP4 SWAP3 SWAP2 SWAP1 PUSH2 0x1CA7 JUMP JUMPDEST PUSH1 0x20 PUSH1 0x40 MLOAD DUP1 DUP4 SUB DUP2 PUSH1 0x0 DUP8 GAS CALL ISZERO DUP1 ISZERO PUSH2 0x3BC JUMPI RETURNDATASIZE PUSH1 0x0 DUP1 RETURNDATACOPY RETURNDATASIZE PUSH1 0x0 REVERT JUMPDEST POP POP POP POP PUSH1 0x40 MLOAD RETURNDATASIZE PUSH1 0x1F NOT PUSH1 0x1F DUP3 ADD AND DUP3 ADD DUP1 PUSH1 0x40 MSTORE POP DUP2 ADD SWAP1 PUSH2 0x3E0 SWAP2 SWAP1 PUSH2 0x1CCB JUMP JUMPDEST POP DUP6 DUP6 PUSH1 0x0 DUP2 DUP2 LT PUSH2 0x3F4 JUMPI PUSH2 0x3F4 PUSH2 0x1C6D JUMP JUMPDEST SWAP1 POP PUSH1 0x20 MUL ADD PUSH1 0x20 DUP2 ADD SWAP1 PUSH2 0x409 SWAP2 SWAP1 PUSH2 0x1C83 JUMP JUMPDEST PUSH1 0x40 MLOAD PUSH4 0x95EA7B3 PUSH1 0xE0 SHL DUP2 MSTORE PUSH1 0x1 PUSH1 0x1 PUSH1 0xA0 SHL SUB PUSH32 0x0 DUP2 AND PUSH1 0x4 DUP4 ADD MSTORE PUSH1 0x24 DUP3 ADD DUP12 SWAP1 MSTORE SWAP2 SWAP1 SWAP2 AND SWAP1 PUSH4 0x95EA7B3 SWAP1 PUSH1 0x44 ADD PUSH1 0x20 PUSH1 0x40 MLOAD DUP1 DUP4 SUB DUP2 PUSH1 0x0 DUP8 GAS CALL ISZERO DUP1 ISZERO PUSH2 0x47A JUMPI RETURNDATASIZE PUSH1 0x0 DUP1 RETURNDATACOPY RETURNDATASIZE PUSH1 0x0 REVERT JUMPDEST POP POP POP POP PUSH1 0x40 MLOAD RETURNDATASIZE PUSH1 0x1F NOT PUSH1 0x1F DUP3 ADD AND DUP3 ADD DUP1 PUSH1 0x40 MSTORE POP DUP2 ADD SWAP1 PUSH2 0x49E SWAP2 SWAP1 PUSH2 0x1CCB JUMP JUMPDEST POP PUSH32 0x0 PUSH1 0x1 PUSH1 0x1 PUSH1 0xA0 SHL SUB AND PUSH4 0x8340F549 DUP8 DUP8 PUSH1 0x0 DUP2 DUP2 LT PUSH2 0x4E1 JUMPI PUSH2 0x4E1 PUSH2 0x1C6D JUMP JUMPDEST SWAP1 POP PUSH1 0x20 MUL ADD PUSH1 0x20 DUP2 ADD SWAP1 PUSH2 0x4F6 SWAP2 SWAP1 PUSH2 0x1C83 JUMP JUMPDEST CALLER DUP12 PUSH1 0x40 MLOAD DUP5 PUSH4 0xFFFFFFFF AND PUSH1 0xE0 SHL DUP2 MSTORE PUSH1 0x4 ADD PUSH2 0x516 SWAP4 SWAP3 SWAP2 SWAP1 PUSH2 0x1CA7 JUMP JUMPDEST PUSH1 0x20 PUSH1 0x40 MLOAD DUP1 DUP4 SUB DUP2 PUSH1 0x0 DUP8 GAS CALL ISZERO DUP1 ISZERO PUSH2 0x535 JUMPI RETURNDATASIZE PUSH1 0x0 DUP1 RETURNDATACOPY RETURNDATASIZE PUSH1 0x0 REVERT JUMPDEST POP POP POP POP PUSH1 0x40 MLOAD RETURNDATASIZE PUSH1 0x1F NOT PUSH1 0x1F DUP3 ADD AND DUP3 ADD DUP1 PUSH1 0x40 MSTORE POP DUP2 ADD SWAP1 PUSH2 0x559 SWAP2 SWAP1 PUSH2 0x1CED JUMP JUMPDEST POP PUSH1 0x0 JUMPDEST PUSH2 0x568 PUSH1 0x1 DUP8 PUSH2 0x1D1C JUMP JUMPDEST DUP2 LT ISZERO PUSH2 0x7B6 JUMPI PUSH1 0x0 PUSH32 0x0 PUSH1 0x1 PUSH1 0x1 PUSH1 0xA0 SHL SUB AND PUSH4 0x531AA03E DUP10 DUP10 DUP6 DUP2 DUP2 LT PUSH2 0x5B2 JUMPI PUSH2 0x5B2 PUSH2 0x1C6D JUMP JUMPDEST SWAP1 POP PUSH1 0x20 MUL ADD PUSH1 0x20 DUP2 ADD SWAP1 PUSH2 0x5C7 SWAP2 SWAP1 PUSH2 0x1C83 JUMP JUMPDEST DUP11 DUP11 PUSH2 0x5D4 DUP8 PUSH1 0x1 PUSH2 0x1D35 JUMP JUMPDEST DUP2 DUP2 LT PUSH2 0x5E3 JUMPI PUSH2 0x5E3 PUSH2 0x1C6D JUMP JUMPDEST SWAP1 POP PUSH1 0x20 MUL ADD PUSH1 0x20 DUP2 ADD SWAP1 PUSH2 0x5F8 SWAP2 SWAP1 PUSH2 0x1C83 JUMP JUMPDEST PUSH1 0x40 MLOAD PUSH1 0x1 PUSH1 0x1 PUSH1 0xE0 SHL SUB NOT PUSH1 0xE0 DUP6 SWAP1 SHL AND DUP2 MSTORE PUSH1 0x1 PUSH1 0x1 PUSH1 0xA0 SHL SUB SWAP3 DUP4 AND PUSH1 0x4 DUP3 ADD MSTORE SWAP2 AND PUSH1 0x24 DUP3 ADD MSTORE PUSH1 0x44 ADD PUSH1 0x20 PUSH1 0x40 MLOAD DUP1 DUP4 SUB DUP2 DUP7 GAS STATICCALL ISZERO DUP1 ISZERO PUSH2 0x643 JUMPI RETURNDATASIZE PUSH1 0x0 DUP1 RETURNDATACOPY RETURNDATASIZE PUSH1 0x0 REVERT JUMPDEST POP POP POP POP PUSH1 0x40 MLOAD RETURNDATASIZE PUSH1 0x1F NOT PUSH1 0x1F DUP3 ADD AND DUP3 ADD DUP1 PUSH1 0x40 MSTORE POP DUP2 ADD SWAP1 PUSH2 0x667 SWAP2 SWAP1 PUSH2 0x1D48 JUMP JUMPDEST SWAP1 POP PUSH1 0x1 PUSH1 0x1 PUSH1 0xA0 SHL SUB DUP2 AND PUSH2 0x68F JUMPI PUSH1 0x40 MLOAD PUSH3 0x461BCD PUSH1 0xE5 SHL DUP2 MSTORE PUSH1 0x4 ADD PUSH2 0xE0 SWAP1 PUSH2 0x1D65 JUMP JUMPDEST PUSH1 0x0 DUP2 PUSH1 0x1 PUSH1 0x1 PUSH1 0xA0 SHL SUB AND PUSH4 0x1800C11A DUP11 DUP11 DUP7 DUP2 DUP2 LT PUSH2 0x6B2 JUMPI PUSH2 0x6B2 PUSH2 0x1C6D JUMP JUMPDEST SWAP1 POP PUSH1 0x20 MUL ADD PUSH1 0x20 DUP2 ADD SWAP1 PUSH2 0x6C7 SWAP2 SWAP1 PUSH2 0x1C83 JUMP JUMPDEST PUSH2 0x6D2 PUSH1 0x2 DUP13 PUSH2 0x1D1C JUMP JUMPDEST DUP7 EQ PUSH2 0x6DE JUMPI CALLER PUSH2 0x6E0 JUMP JUMPDEST DUP10 JUMPDEST PUSH2 0x6EB PUSH1 0x2 DUP14 PUSH2 0x1D1C JUMP JUMPDEST DUP8 EQ PUSH2 0x6F8 JUMPI PUSH1 0x0 PUSH2 0x6FB JUMP JUMPDEST PUSH1 0x1 JUMPDEST PUSH1 0x40 MLOAD PUSH1 0x1 PUSH1 0x1 PUSH1 0xE0 SHL SUB NOT PUSH1 0xE0 DUP7 SWAP1 SHL AND DUP2 MSTORE PUSH1 0x1 PUSH1 0x1 PUSH1 0xA0 SHL SUB SWAP4 DUP5 AND PUSH1 0x4 DUP3 ADD MSTORE SWAP3 SWAP1 SWAP2 AND PUSH1 0x24 DUP4 ADD MSTORE PUSH1 0xFF AND PUSH1 0x44 DUP3 ADD MSTORE PUSH1 0x64 ADD PUSH1 0x20 PUSH1 0x40 MLOAD DUP1 DUP4 SUB DUP2 PUSH1 0x0 DUP8 GAS CALL ISZERO DUP1 ISZERO PUSH2 0x752 JUMPI RETURNDATASIZE PUSH1 0x0 DUP1 RETURNDATACOPY RETURNDATASIZE PUSH1 0x0 REVERT JUMPDEST POP POP POP POP PUSH1 0x40 MLOAD RETURNDATASIZE PUSH1 0x1F NOT PUSH1 0x1F DUP3 ADD AND DUP3 ADD DUP1 PUSH1 0x40 MSTORE POP DUP2 ADD SWAP1 PUSH2 0x776 SWAP2 SWAP1 PUSH2 0x1CED JUMP JUMPDEST SWAP1 POP DUP1 DUP6 PUSH2 0x785 DUP6 PUSH1 0x1 PUSH2 0x1D35 JUMP JUMPDEST DUP2 MLOAD DUP2 LT PUSH2 0x795 JUMPI PUSH2 0x795 PUSH2 0x1C6D JUMP JUMPDEST PUSH1 0x20 MUL PUSH1 0x20 ADD ADD DUP2 DUP2 MSTORE POP POP POP POP DUP1 DUP1 PUSH2 0x7AE SWAP1 PUSH2 0x1D95 JUMP JUMPDEST SWAP2 POP POP PUSH2 0x55D JUMP JUMPDEST POP DUP7 DUP3 PUSH1 0x1 DUP5 MLOAD PUSH2 0x7C7 SWAP2 SWAP1 PUSH2 0x1D1C JUMP JUMPDEST DUP2 MLOAD DUP2 LT PUSH2 0x7D7 JUMPI PUSH2 0x7D7 PUSH2 0x1C6D JUMP JUMPDEST PUSH1 0x20 MUL PUSH1 0x20 ADD ADD MLOAD LT ISZERO PUSH2 0x82D JUMPI PUSH1 0x40 MLOAD PUSH3 0x461BCD PUSH1 0xE5 SHL DUP2 MSTORE PUSH1 0x20 PUSH1 0x4 DUP3 ADD MSTORE PUSH1 0x1B PUSH1 0x24 DUP3 ADD MSTORE PUSH32 0x526F757465723A20696E73756666696369656E74206F75747075740000000000 PUSH1 0x44 DUP3 ADD MSTORE PUSH1 0x64 ADD PUSH2 0xE0 JUMP JUMPDEST PUSH32 0x0 PUSH1 0x1 PUSH1 0x1 PUSH1 0xA0 SHL SUB AND PUSH4 0x531AA03E DUP8 DUP8 PUSH1 0x0 DUP2 DUP2 LT PUSH2 0x86F JUMPI PUSH2 0x86F PUSH2 0x1C6D JUMP JUMPDEST SWAP1 POP PUSH1 0x20 MUL ADD PUSH1 0x20 DUP2 ADD SWAP1 PUSH2 0x884 SWAP2 SWAP1 PUSH2 0x1C83 JUMP JUMPDEST DUP9 DUP9 PUSH1 0x1 DUP2 DUP2 LT PUSH2 0x897 JUMPI PUSH2 0x897 PUSH2 0x1C6D JUMP JUMPDEST SWAP1 POP PUSH1 0x20 MUL ADD PUSH1 0x20 DUP2 ADD SWAP1 PUSH2 0x8AC SWAP2 SWAP1 PUSH2 0x1C83 JUMP JUMPDEST PUSH1 0x40 MLOAD PUSH1 0x1 PUSH1 0x1 PUSH1 0xE0 SHL SUB NOT PUSH1 0xE0 DUP6 SWAP1 SHL AND DUP2 MSTORE PUSH1 0x1 PUSH1 0x1 PUSH1 0xA0 SHL SUB SWAP3 DUP4 AND PUSH1 0x4 DUP3 ADD MSTORE SWAP2 AND PUSH1 0x24 DUP3 ADD MSTORE PUSH1 0x44 ADD PUSH1 0x20 PUSH1 0x40 MLOAD DUP1 DUP4 SUB DUP2 DUP7 GAS STATICCALL ISZERO DUP1 ISZERO PUSH2 0x8F7 JUMPI RETURNDATASIZE PUSH1 0x0 DUP1 RETURNDATACOPY RETURNDATASIZE PUSH1 0x0 REVERT JUMPDEST POP POP POP POP PUSH1 0x40 MLOAD RETURNDATASIZE PUSH1 0x1F NOT PUSH1 0x1F DUP3 ADD AND DUP3 ADD DUP1 PUSH1 0x40 MSTORE POP DUP2 ADD SWAP1 PUSH2 0x91B SWAP2 SWAP1 PUSH2 0x1D48 JUMP JUMPDEST PUSH1 0x1 PUSH1 0x1 PUSH1 0xA0 SHL SUB AND CALLER PUSH32 0xE90A90B0B0C8313457EA589CE6BDEDA270D8A9AA2E9EB31DFE64603052F547D9 DUP9 DUP9 PUSH1 0x0 DUP2 PUSH2 0x957 JUMPI PUSH2 0x957 PUSH2 0x1C6D JUMP JUMPDEST SWAP1 POP PUSH1 0x20 MUL ADD PUSH1 0x20 DUP2 ADD SWAP1 PUSH2 0x96C SWAP2 SWAP1 PUSH2 0x1C83 JUMP JUMPDEST DUP10 DUP10 PUSH2 0x979 PUSH1 0x1 DUP3 PUSH2 0x1D1C JUMP JUMPDEST DUP2 DUP2 LT PUSH2 0x988 JUMPI PUSH2 0x988 PUSH2 0x1C6D JUMP JUMPDEST SWAP1 POP PUSH1 0x20 MUL ADD PUSH1 0x20 DUP2 ADD SWAP1 PUSH2 0x99D SWAP2 SWAP1 PUSH2 0x1C83 JUMP JUMPDEST DUP13 DUP8 PUSH1 0x1 DUP10 MLOAD PUSH2 0x9AD SWAP2 SWAP1 PUSH2 0x1D1C JUMP JUMPDEST DUP2 MLOAD DUP2 LT PUSH2 0x9BD JUMPI PUSH2 0x9BD PUSH2 0x1C6D JUMP JUMPDEST PUSH1 0x20 MUL PUSH1 0x20 ADD ADD MLOAD DUP11 PUSH1 0x40 MLOAD PUSH2 0xA02 SWAP6 SWAP5 SWAP4 SWAP3 SWAP2 SWAP1 PUSH1 0x1 PUSH1 0x1 PUSH1 0xA0 SHL SUB SWAP6 DUP7 AND DUP2 MSTORE SWAP4 DUP6 AND PUSH1 0x20 DUP6 ADD MSTORE PUSH1 0x40 DUP5 ADD SWAP3 SWAP1 SWAP3 MSTORE PUSH1 0x60 DUP4 ADD MSTORE SWAP1 SWAP2 AND PUSH1 0x80 DUP3 ADD MSTORE PUSH1 0xA0 ADD SWAP1 JUMP JUMPDEST PUSH1 0x40 MLOAD DUP1 SWAP2 SUB SWAP1 LOG3 PUSH2 0xA14 PUSH1 0x1 PUSH1 0x0 SSTORE JUMP JUMPDEST POP SWAP7 SWAP6 POP POP POP POP POP POP JUMP JUMPDEST PUSH1 0x60 DUP2 TIMESTAMP DUP2 LT ISZERO PUSH2 0xA42 JUMPI PUSH1 0x40 MLOAD PUSH3 0x461BCD PUSH1 0xE5 SHL DUP2 MSTORE PUSH1 0x4 ADD PUSH2 0xE0 SWAP1 PUSH2 0x1C00 JUMP JUMPDEST PUSH2 0xA4A PUSH2 0x18DF JUMP JUMPDEST PUSH1 0x2 DUP6 LT ISZERO PUSH2 0xA6B JUMPI PUSH1 0x40 MLOAD PUSH3 0x461BCD PUSH1 0xE5 SHL DUP2 MSTORE PUSH1 0x4 ADD PUSH2 0xE0 SWAP1 PUSH2 0x1C29 JUMP JUMPDEST PUSH32 0x0 PUSH1 0x1 PUSH1 0x1 PUSH1 0xA0 SHL SUB AND DUP7 DUP7 PUSH1 0x0 DUP2 DUP2 LT PUSH2 0xAA8 JUMPI PUSH2 0xAA8 PUSH2 0x1C6D JUMP JUMPDEST SWAP1 POP PUSH1 0x20 MUL ADD PUSH1 0x20 DUP2 ADD SWAP1 PUSH2 0xABD SWAP2 SWAP1 PUSH2 0x1C83 JUMP JUMPDEST PUSH1 0x1 PUSH1 0x1 PUSH1 0xA0 SHL SUB AND EQ PUSH2 0xAE3 JUMPI PUSH1 0x40 MLOAD PUSH3 0x461BCD PUSH1 0xE5 SHL DUP2 MSTORE PUSH1 0x4 ADD PUSH2 0xE0 SWAP1 PUSH2 0x1C29 JUMP JUMPDEST PUSH1 0x1 PUSH1 0x1 PUSH1 0xA0 SHL SUB DUP5 AND PUSH2 0xB30 JUMPI PUSH1 0x40 MLOAD PUSH3 0x461BCD PUSH1 0xE5 SHL DUP2 MSTORE PUSH1 0x20 PUSH1 0x4 DUP3 ADD MSTORE PUSH1 0x14 PUSH1 0x24 DUP3 ADD MSTORE PUSH20 0x526F757465723A207A65726F2061646472657373 PUSH1 0x60 SHL PUSH1 0x44 DUP3 ADD MSTORE PUSH1 0x64 ADD PUSH2 0xE0 JUMP JUMPDEST DUP5 PUSH8 0xFFFFFFFFFFFFFFFF DUP2 GT ISZERO PUSH2 0xB49 JUMPI PUSH2 0xB49 PUSH2 0x1C57 JUMP JUMPDEST PUSH1 0x40 MLOAD SWAP1 DUP1 DUP3 MSTORE DUP1 PUSH1 0x20 MUL PUSH1 0x20 ADD DUP3 ADD PUSH1 0x40 MSTORE DUP1 ISZERO PUSH2 0xB72 JUMPI DUP2 PUSH1 0x20 ADD PUSH1 0x20 DUP3 MUL DUP1 CALLDATASIZE DUP4 CALLDATACOPY ADD SWAP1 POP JUMPDEST POP SWAP2 POP CALLVALUE DUP3 PUSH1 0x0 DUP2 MLOAD DUP2 LT PUSH2 0xB89 JUMPI PUSH2 0xB89 PUSH2 0x1C6D JUMP JUMPDEST PUSH1 0x20 SWAP1 DUP2 MUL SWAP2 SWAP1 SWAP2 ADD ADD MSTORE PUSH1 0x40 MLOAD PUSH4 0x8340F549 PUSH1 0xE0 SHL DUP2 MSTORE PUSH1 0x1 PUSH1 0x1 PUSH1 0xA0 SHL SUB PUSH32 0x0 AND SWAP1 PUSH4 0x8340F549 SWAP1 CALLVALUE SWAP1 PUSH2 0xC07 SWAP1 PUSH32 0x0 SWAP1 CALLER SWAP1 PUSH1 0x0 SWAP1 PUSH1 0x4 ADD PUSH2 0x1CA7 JUMP JUMPDEST PUSH1 0x20 PUSH1 0x40 MLOAD DUP1 DUP4 SUB DUP2 DUP6 DUP9 GAS CALL ISZERO DUP1 ISZERO PUSH2 0xC25 JUMPI RETURNDATASIZE PUSH1 0x0 DUP1 RETURNDATACOPY RETURNDATASIZE PUSH1 0x0 REVERT JUMPDEST POP POP POP POP POP PUSH1 0x40 MLOAD RETURNDATASIZE PUSH1 0x1F NOT PUSH1 0x1F DUP3 ADD AND DUP3 ADD DUP1 PUSH1 0x40 MSTORE POP DUP2 ADD SWAP1 PUSH2 0xC4A SWAP2 SWAP1 PUSH2 0x1CED JUMP JUMPDEST POP PUSH1 0x0 JUMPDEST PUSH2 0xC59 PUSH1 0x1 DUP8 PUSH2 0x1D1C JUMP JUMPDEST DUP2 LT ISZERO PUSH2 0xEA7 JUMPI PUSH1 0x0 PUSH32 0x0 PUSH1 0x1 PUSH1 0x1 PUSH1 0xA0 SHL SUB AND PUSH4 0x531AA03E DUP10 DUP10 DUP6 DUP2 DUP2 LT PUSH2 0xCA3 JUMPI PUSH2 0xCA3 PUSH2 0x1C6D JUMP JUMPDEST SWAP1 POP PUSH1 0x20 MUL ADD PUSH1 0x20 DUP2 ADD SWAP1 PUSH2 0xCB8 SWAP2 SWAP1 PUSH2 0x1C83 JUMP JUMPDEST DUP11 DUP11 PUSH2 0xCC5 DUP8 PUSH1 0x1 PUSH2 0x1D35 JUMP JUMPDEST DUP2 DUP2 LT PUSH2 0xCD4 JUMPI PUSH2 0xCD4 PUSH2 0x1C6D JUMP JUMPDEST SWAP1 POP PUSH1 0x20 MUL ADD PUSH1 0x20 DUP2 ADD SWAP1 PUSH2 0xCE9 SWAP2 SWAP1 PUSH2 0x1C83 JUMP JUMPDEST PUSH1 0x40 MLOAD PUSH1 0x1 PUSH1 0x1 PUSH1 0xE0 SHL SUB NOT PUSH1 0xE0 DUP6 SWAP1 SHL AND DUP2 MSTORE PUSH1 0x1 PUSH1 0x1 PUSH1 0xA0 SHL SUB SWAP3 DUP4 AND PUSH1 0x4 DUP3 ADD MSTORE SWAP2 AND PUSH1 0x24 DUP3 ADD MSTORE PUSH1 0x44 ADD PUSH1 0x20 PUSH1 0x40 MLOAD DUP1 DUP4 SUB DUP2 DUP7 GAS STATICCALL ISZERO DUP1 ISZERO PUSH2 0xD34 JUMPI RETURNDATASIZE PUSH1 0x0 DUP1 RETURNDATACOPY RETURNDATASIZE PUSH1 0x0 REVERT JUMPDEST POP POP POP POP PUSH1 0x40 MLOAD RETURNDATASIZE PUSH1 0x1F NOT PUSH1 0x1F DUP3 ADD AND DUP3 ADD DUP1 PUSH1 0x40 MSTORE POP DUP2 ADD SWAP1 PUSH2 0xD58 SWAP2 SWAP1 PUSH2 0x1D48 JUMP JUMPDEST SWAP1 POP PUSH1 0x1 PUSH1 0x1 PUSH1 0xA0 SHL SUB DUP2 AND PUSH2 0xD80 JUMPI PUSH1 0x40 MLOAD PUSH3 0x461BCD PUSH1 0xE5 SHL DUP2 MSTORE PUSH1 0x4 ADD PUSH2 0xE0 SWAP1 PUSH2 0x1D65 JUMP JUMPDEST PUSH1 0x0 DUP2 PUSH1 0x1 PUSH1 0x1 PUSH1 0xA0 SHL SUB AND PUSH4 0x1800C11A DUP11 DUP11 DUP7 DUP2 DUP2 LT PUSH2 0xDA3 JUMPI PUSH2 0xDA3 PUSH2 0x1C6D JUMP JUMPDEST SWAP1 POP PUSH1 0x20 MUL ADD PUSH1 0x20 DUP2 ADD SWAP1 PUSH2 0xDB8 SWAP2 SWAP1 PUSH2 0x1C83 JUMP JUMPDEST PUSH2 0xDC3 PUSH1 0x2 DUP13 PUSH2 0x1D1C JUMP JUMPDEST DUP7 EQ PUSH2 0xDCF JUMPI CALLER PUSH2 0xDD1 JUMP JUMPDEST DUP10 JUMPDEST PUSH2 0xDDC PUSH1 0x2 DUP14 PUSH2 0x1D1C JUMP JUMPDEST DUP8 EQ PUSH2 0xDE9 JUMPI PUSH1 0x0 PUSH2 0xDEC JUMP JUMPDEST PUSH1 0x1 JUMPDEST PUSH1 0x40 MLOAD PUSH1 0x1 PUSH1 0x1 PUSH1 0xE0 SHL SUB NOT PUSH1 0xE0 DUP7 SWAP1 SHL AND DUP2 MSTORE PUSH1 0x1 PUSH1 0x1 PUSH1 0xA0 SHL SUB SWAP4 DUP5 AND PUSH1 0x4 DUP3 ADD MSTORE SWAP3 SWAP1 SWAP2 AND PUSH1 0x24 DUP4 ADD MSTORE PUSH1 0xFF AND PUSH1 0x44 DUP3 ADD MSTORE PUSH1 0x64 ADD PUSH1 0x20 PUSH1 0x40 MLOAD DUP1 DUP4 SUB DUP2 PUSH1 0x0 DUP8 GAS CALL ISZERO DUP1 ISZERO PUSH2 0xE43 JUMPI RETURNDATASIZE PUSH1 0x0 DUP1 RETURNDATACOPY RETURNDATASIZE PUSH1 0x0 REVERT JUMPDEST POP POP POP POP PUSH1 0x40 MLOAD RETURNDATASIZE PUSH1 0x1F NOT PUSH1 0x1F DUP3 ADD AND DUP3 ADD DUP1 PUSH1 0x40 MSTORE POP DUP2 ADD SWAP1 PUSH2 0xE67 SWAP2 SWAP1 PUSH2 0x1CED JUMP JUMPDEST SWAP1 POP DUP1 DUP6 PUSH2 0xE76 DUP6 PUSH1 0x1 PUSH2 0x1D35 JUMP JUMPDEST DUP2 MLOAD DUP2 LT PUSH2 0xE86 JUMPI PUSH2 0xE86 PUSH2 0x1C6D JUMP JUMPDEST PUSH1 0x20 MUL PUSH1 0x20 ADD ADD DUP2 DUP2 MSTORE POP POP POP POP DUP1 DUP1 PUSH2 0xE9F SWAP1 PUSH2 0x1D95 JUMP JUMPDEST SWAP2 POP POP PUSH2 0xC4E JUMP JUMPDEST POP DUP7 DUP3 PUSH1 0x1 DUP5 MLOAD PUSH2 0xEB8 SWAP2 SWAP1 PUSH2 0x1D1C JUMP JUMPDEST DUP2 MLOAD DUP2 LT PUSH2 0xEC8 JUMPI PUSH2 0xEC8 PUSH2 0x1C6D JUMP JUMPDEST PUSH1 0x20 MUL PUSH1 0x20 ADD ADD MLOAD LT ISZERO PUSH2 0xF1E JUMPI PUSH1 0x40 MLOAD PUSH3 0x461BCD PUSH1 0xE5 SHL DUP2 MSTORE PUSH1 0x20 PUSH1 0x4 DUP3 ADD MSTORE PUSH1 0x1B PUSH1 0x24 DUP3 ADD MSTORE PUSH32 0x526F757465723A20696E73756666696369656E74206F75747075740000000000 PUSH1 0x44 DUP3 ADD MSTORE PUSH1 0x64 ADD PUSH2 0xE0 JUMP JUMPDEST PUSH32 0x0 PUSH1 0x1 PUSH1 0x1 PUSH1 0xA0 SHL SUB AND PUSH4 0x531AA03E DUP8 DUP8 PUSH1 0x0 DUP2 DUP2 LT PUSH2 0xF60 JUMPI PUSH2 0xF60 PUSH2 0x1C6D JUMP JUMPDEST SWAP1 POP PUSH1 0x20 MUL ADD PUSH1 0x20 DUP2 ADD SWAP1 PUSH2 0xF75 SWAP2 SWAP1 PUSH2 0x1C83 JUMP JUMPDEST DUP9 DUP9 PUSH1 0x1 DUP2 DUP2 LT PUSH2 0xF88 JUMPI PUSH2 0xF88 PUSH2 0x1C6D JUMP JUMPDEST SWAP1 POP PUSH1 0x20 MUL ADD PUSH1 0x20 DUP2 ADD SWAP1 PUSH2 0xF9D SWAP2 SWAP1 PUSH2 0x1C83 JUMP JUMPDEST PUSH1 0x40 MLOAD PUSH1 0x1 PUSH1 0x1 PUSH1 0xE0 SHL SUB NOT PUSH1 0xE0 DUP6 SWAP1 SHL AND DUP2 MSTORE PUSH1 0x1 PUSH1 0x1 PUSH1 0xA0 SHL SUB SWAP3 DUP4 AND PUSH1 0x4 DUP3 ADD MSTORE SWAP2 AND PUSH1 0x24 DUP3 ADD MSTORE PUSH1 0x44 ADD PUSH1 0x20 PUSH1 0x40 MLOAD DUP1 DUP4 SUB DUP2 DUP7 GAS STATICCALL ISZERO DUP1 ISZERO PUSH2 0xFE8 JUMPI RETURNDATASIZE PUSH1 0x0 DUP1 RETURNDATACOPY RETURNDATASIZE PUSH1 0x0 REVERT JUMPDEST POP POP POP POP PUSH1 0x40 MLOAD RETURNDATASIZE PUSH1 0x1F NOT PUSH1 0x1F DUP3 ADD AND DUP3 ADD DUP1 PUSH1 0x40 MSTORE POP DUP2 ADD SWAP1 PUSH2 0x100C SWAP2 SWAP1 PUSH2 0x1D48 JUMP JUMPDEST PUSH1 0x1 PUSH1 0x1 PUSH1 0xA0 SHL SUB AND CALLER PUSH32 0xE90A90B0B0C8313457EA589CE6BDEDA270D8A9AA2E9EB31DFE64603052F547D9 DUP9 DUP9 PUSH1 0x0 DUP2 PUSH2 0x1048 JUMPI PUSH2 0x1048 PUSH2 0x1C6D JUMP JUMPDEST SWAP1 POP PUSH1 0x20 MUL ADD PUSH1 0x20 DUP2 ADD SWAP1 PUSH2 0x105D SWAP2 SWAP1 PUSH2 0x1C83 JUMP JUMPDEST DUP10 DUP10 PUSH2 0x106A PUSH1 0x1 DUP3 PUSH2 0x1D1C JUMP JUMPDEST DUP2 DUP2 LT PUSH2 0x1079 JUMPI PUSH2 0x1079 PUSH2 0x1C6D JUMP JUMPDEST SWAP1 POP PUSH1 0x20 MUL ADD PUSH1 0x20 DUP2 ADD SWAP1 PUSH2 0x108E SWAP2 SWAP1 PUSH2 0x1C83 JUMP JUMPDEST CALLVALUE DUP8 PUSH1 0x1 DUP10 MLOAD PUSH2 0x109E SWAP2 SWAP1 PUSH2 0x1D1C JUMP JUMPDEST DUP2 MLOAD DUP2 LT PUSH2 0x10AE JUMPI PUSH2 0x10AE PUSH2 0x1C6D JUMP JUMPDEST PUSH1 0x20 MUL PUSH1 0x20 ADD ADD MLOAD DUP11 PUSH1 0x40 MLOAD PUSH2 0x10F3 SWAP6 SWAP5 SWAP4 SWAP3 SWAP2 SWAP1 PUSH1 0x1 PUSH1 0x1 PUSH1 0xA0 SHL SUB SWAP6 DUP7 AND DUP2 MSTORE SWAP4 DUP6 AND PUSH1 0x20 DUP6 ADD MSTORE PUSH1 0x40 DUP5 ADD SWAP3 SWAP1 SWAP3 MSTORE PUSH1 0x60 DUP4 ADD MSTORE SWAP1 SWAP2 AND PUSH1 0x80 DUP3 ADD MSTORE PUSH1 0xA0 ADD SWAP1 JUMP JUMPDEST PUSH1 0x40 MLOAD DUP1 SWAP2 SUB SWAP1 LOG3 PUSH2 0x1105 PUSH1 0x1 PUSH1 0x0 SSTORE JUMP JUMPDEST POP SWAP6 SWAP5 POP POP POP POP POP JUMP JUMPDEST PUSH1 0x60 PUSH1 0x2 DUP3 LT ISZERO PUSH2 0x1132 JUMPI PUSH1 0x40 MLOAD PUSH3 0x461BCD PUSH1 0xE5 SHL DUP2 MSTORE PUSH1 0x4 ADD PUSH2 0xE0 SWAP1 PUSH2 0x1C29 JUMP JUMPDEST DUP2 PUSH8 0xFFFFFFFFFFFFFFFF DUP2 GT ISZERO PUSH2 0x114B JUMPI PUSH2 0x114B PUSH2 0x1C57 JUMP JUMPDEST PUSH1 0x40 MLOAD SWAP1 DUP1 DUP3 MSTORE DUP1 PUSH1 0x20 MUL PUSH1 0x20 ADD DUP3 ADD PUSH1 0x40 MSTORE DUP1 ISZERO PUSH2 0x1174 JUMPI DUP2 PUSH1 0x20 ADD PUSH1 0x20 DUP3 MUL DUP1 CALLDATASIZE DUP4 CALLDATACOPY ADD SWAP1 POP JUMPDEST POP SWAP1 POP DUP4 DUP2 PUSH1 0x0 DUP2 MLOAD DUP2 LT PUSH2 0x118B JUMPI PUSH2 0x118B PUSH2 0x1C6D JUMP JUMPDEST PUSH1 0x20 MUL PUSH1 0x20 ADD ADD DUP2 DUP2 MSTORE POP POP PUSH1 0x0 JUMPDEST PUSH2 0x11A5 PUSH1 0x1 DUP5 PUSH2 0x1D1C JUMP JUMPDEST DUP2 LT ISZERO PUSH2 0x13C8 JUMPI PUSH1 0x0 PUSH32 0x0 PUSH1 0x1 PUSH1 0x1 PUSH1 0xA0 SHL SUB AND PUSH4 0x531AA03E DUP7 DUP7 DUP6 DUP2 DUP2 LT PUSH2 0x11EF JUMPI PUSH2 0x11EF PUSH2 0x1C6D JUMP JUMPDEST SWAP1 POP PUSH1 0x20 MUL ADD PUSH1 0x20 DUP2 ADD SWAP1 PUSH2 0x1204 SWAP2 SWAP1 PUSH2 0x1C83 JUMP JUMPDEST DUP8 DUP8 PUSH2 0x1211 DUP8 PUSH1 0x1 PUSH2 0x1D35 JUMP JUMPDEST DUP2 DUP2 LT PUSH2 0x1220 JUMPI PUSH2 0x1220 PUSH2 0x1C6D JUMP JUMPDEST SWAP1 POP PUSH1 0x20 MUL ADD PUSH1 0x20 DUP2 ADD SWAP1 PUSH2 0x1235 SWAP2 SWAP1 PUSH2 0x1C83 JUMP JUMPDEST PUSH1 0x40 MLOAD PUSH1 0x1 PUSH1 0x1 PUSH1 0xE0 SHL SUB NOT PUSH1 0xE0 DUP6 SWAP1 SHL AND DUP2 MSTORE PUSH1 0x1 PUSH1 0x1 PUSH1 0xA0 SHL SUB SWAP3 DUP4 AND PUSH1 0x4 DUP3 ADD MSTORE SWAP2 AND PUSH1 0x24 DUP3 ADD MSTORE PUSH1 0x44 ADD PUSH1 0x20 PUSH1 0x40 MLOAD DUP1 DUP4 SUB DUP2 DUP7 GAS STATICCALL ISZERO DUP1 ISZERO PUSH2 0x1280 JUMPI RETURNDATASIZE PUSH1 0x0 DUP1 RETURNDATACOPY RETURNDATASIZE PUSH1 0x0 REVERT JUMPDEST POP POP POP POP PUSH1 0x40 MLOAD RETURNDATASIZE PUSH1 0x1F NOT PUSH1 0x1F DUP3 ADD AND DUP3 ADD DUP1 PUSH1 0x40 MSTORE POP DUP2 ADD SWAP1 PUSH2 0x12A4 SWAP2 SWAP1 PUSH2 0x1D48 JUMP JUMPDEST SWAP1 POP PUSH1 0x1 PUSH1 0x1 PUSH1 0xA0 SHL SUB DUP2 AND PUSH2 0x12CC JUMPI PUSH1 0x40 MLOAD PUSH3 0x461BCD PUSH1 0xE5 SHL DUP2 MSTORE PUSH1 0x4 ADD PUSH2 0xE0 SWAP1 PUSH2 0x1D65 JUMP JUMPDEST DUP1 PUSH1 0x1 PUSH1 0x1 PUSH1 0xA0 SHL SUB AND PUSH4 0xCA706BCF DUP7 DUP7 DUP6 DUP2 DUP2 LT PUSH2 0x12ED JUMPI PUSH2 0x12ED PUSH2 0x1C6D JUMP JUMPDEST SWAP1 POP PUSH1 0x20 MUL ADD PUSH1 0x20 DUP2 ADD SWAP1 PUSH2 0x1302 SWAP2 SWAP1 PUSH2 0x1C83 JUMP JUMPDEST DUP6 DUP6 DUP2 MLOAD DUP2 LT PUSH2 0x1314 JUMPI PUSH2 0x1314 PUSH2 0x1C6D JUMP JUMPDEST PUSH1 0x20 MUL PUSH1 0x20 ADD ADD MLOAD PUSH1 0x40 MLOAD DUP4 PUSH4 0xFFFFFFFF AND PUSH1 0xE0 SHL DUP2 MSTORE PUSH1 0x4 ADD PUSH2 0x134D SWAP3 SWAP2 SWAP1 PUSH1 0x1 PUSH1 0x1 PUSH1 0xA0 SHL SUB SWAP3 SWAP1 SWAP3 AND DUP3 MSTORE PUSH1 0x20 DUP3 ADD MSTORE PUSH1 0x40 ADD SWAP1 JUMP JUMPDEST PUSH1 0x20 PUSH1 0x40 MLOAD DUP1 DUP4 SUB DUP2 DUP7 GAS STATICCALL ISZERO DUP1 ISZERO PUSH2 0x136A JUMPI RETURNDATASIZE PUSH1 0x0 DUP1 RETURNDATACOPY RETURNDATASIZE PUSH1 0x0 REVERT JUMPDEST POP POP POP POP PUSH1 0x40 MLOAD RETURNDATASIZE PUSH1 0x1F NOT PUSH1 0x1F DUP3 ADD AND DUP3 ADD DUP1 PUSH1 0x40 MSTORE POP DUP2 ADD SWAP1 PUSH2 0x138E SWAP2 SWAP1 PUSH2 0x1CED JUMP JUMPDEST DUP4 PUSH2 0x139A DUP5 PUSH1 0x1 PUSH2 0x1D35 JUMP JUMPDEST DUP2 MLOAD DUP2 LT PUSH2 0x13AA JUMPI PUSH2 0x13AA PUSH2 0x1C6D JUMP JUMPDEST PUSH1 0x20 SWAP1 DUP2 MUL SWAP2 SWAP1 SWAP2 ADD ADD MSTORE POP DUP1 PUSH2 0x13C0 DUP2 PUSH2 0x1D95 JUMP JUMPDEST SWAP2 POP POP PUSH2 0x119A JUMP JUMPDEST POP SWAP4 SWAP3 POP POP POP JUMP JUMPDEST PUSH1 0x0 DUP1 PUSH1 0x0 DUP4 TIMESTAMP DUP2 LT ISZERO PUSH2 0x13F6 JUMPI PUSH1 0x40 MLOAD PUSH3 0x461BCD PUSH1 0xE5 SHL DUP2 MSTORE PUSH1 0x4 ADD PUSH2 0xE0 SWAP1 PUSH2 0x1C00 JUMP JUMPDEST PUSH2 0x13FE PUSH2 0x18DF JUMP JUMPDEST PUSH1 0x40 MLOAD PUSH4 0x298D501F PUSH1 0xE1 SHL DUP2 MSTORE PUSH1 0x1 PUSH1 0x1 PUSH1 0xA0 SHL SUB DUP14 DUP2 AND PUSH1 0x4 DUP4 ADD MSTORE DUP13 DUP2 AND PUSH1 0x24 DUP4 ADD MSTORE PUSH1 0x0 SWAP2 PUSH32 0x0 SWAP1 SWAP2 AND SWAP1 PUSH4 0x531AA03E SWAP1 PUSH1 0x44 ADD PUSH1 0x20 PUSH1 0x40 MLOAD DUP1 DUP4 SUB DUP2 DUP7 GAS STATICCALL ISZERO DUP1 ISZERO PUSH2 0x1471 JUMPI RETURNDATASIZE PUSH1 0x0 DUP1 RETURNDATACOPY RETURNDATASIZE PUSH1 0x0 REVERT JUMPDEST POP POP POP POP PUSH1 0x40 MLOAD RETURNDATASIZE PUSH1 0x1F NOT PUSH1 0x1F DUP3 ADD AND DUP3 ADD DUP1 PUSH1 0x40 MSTORE POP DUP2 ADD SWAP1 PUSH2 0x1495 SWAP2 SWAP1 PUSH2 0x1D48 JUMP JUMPDEST SWAP1 POP PUSH1 0x1 PUSH1 0x1 PUSH1 0xA0 SHL SUB DUP2 AND PUSH2 0x14BD JUMPI PUSH1 0x40 MLOAD PUSH3 0x461BCD PUSH1 0xE5 SHL DUP2 MSTORE PUSH1 0x4 ADD PUSH2 0xE0 SWAP1 PUSH2 0x1D65 JUMP JUMPDEST PUSH2 0x14CB DUP14 DUP14 DUP14 DUP14 DUP14 DUP14 PUSH2 0x1909 JUMP JUMPDEST PUSH1 0x40 MLOAD PUSH4 0x23B872DD PUSH1 0xE0 SHL DUP2 MSTORE SWAP2 SWAP7 POP SWAP5 POP PUSH1 0x1 PUSH1 0x1 PUSH1 0xA0 SHL SUB DUP15 AND SWAP1 PUSH4 0x23B872DD SWAP1 PUSH2 0x1500 SWAP1 CALLER SWAP1 ADDRESS SWAP1 DUP11 SWAP1 PUSH1 0x4 ADD PUSH2 0x1CA7 JUMP JUMPDEST PUSH1 0x20 PUSH1 0x40 MLOAD DUP1 DUP4 SUB DUP2 PUSH1 0x0 DUP8 GAS CALL ISZERO DUP1 ISZERO PUSH2 0x151F JUMPI RETURNDATASIZE PUSH1 0x0 DUP1 RETURNDATACOPY RETURNDATASIZE PUSH1 0x0 REVERT JUMPDEST POP POP POP POP PUSH1 0x40 MLOAD RETURNDATASIZE PUSH1 0x1F NOT PUSH1 0x1F DUP3 ADD AND DUP3 ADD DUP1 PUSH1 0x40 MSTORE POP DUP2 ADD SWAP1 PUSH2 0x1543 SWAP2 SWAP1 PUSH2 0x1CCB JUMP JUMPDEST POP PUSH1 0x40 MLOAD PUSH4 0x23B872DD PUSH1 0xE0 SHL DUP2 MSTORE PUSH1 0x1 PUSH1 0x1 PUSH1 0xA0 SHL SUB DUP14 AND SWAP1 PUSH4 0x23B872DD SWAP1 PUSH2 0x1574 SWAP1 CALLER SWAP1 ADDRESS SWAP1 DUP10 SWAP1 PUSH1 0x4 ADD PUSH2 0x1CA7 JUMP JUMPDEST PUSH1 0x20 PUSH1 0x40 MLOAD DUP1 DUP4 SUB DUP2 PUSH1 0x0 DUP8 GAS CALL ISZERO DUP1 ISZERO PUSH2 0x1593 JUMPI RETURNDATASIZE PUSH1 0x0 DUP1 RETURNDATACOPY RETURNDATASIZE PUSH1 0x0 REVERT JUMPDEST POP POP POP POP PUSH1 0x40 MLOAD RETURNDATASIZE PUSH1 0x1F NOT PUSH1 0x1F DUP3 ADD AND DUP3 ADD DUP1 PUSH1 0x40 MSTORE POP DUP2 ADD SWAP1 PUSH2 0x15B7 SWAP2 SWAP1 PUSH2 0x1CCB JUMP JUMPDEST POP PUSH1 0x40 MLOAD PUSH4 0x95EA7B3 PUSH1 0xE0 SHL DUP2 MSTORE PUSH1 0x1 PUSH1 0x1 PUSH1 0xA0 SHL SUB PUSH32 0x0 DUP2 AND PUSH1 0x4 DUP4 ADD MSTORE PUSH1 0x24 DUP3 ADD DUP8 SWAP1 MSTORE DUP15 AND SWAP1 PUSH4 0x95EA7B3 SWAP1 PUSH1 0x44 ADD PUSH1 0x20 PUSH1 0x40 MLOAD DUP1 DUP4 SUB DUP2 PUSH1 0x0 DUP8 GAS CALL ISZERO DUP1 ISZERO PUSH2 0x1627 JUMPI RETURNDATASIZE PUSH1 0x0 DUP1 RETURNDATACOPY RETURNDATASIZE PUSH1 0x0 REVERT JUMPDEST POP POP POP POP PUSH1 0x40 MLOAD RETURNDATASIZE PUSH1 0x1F NOT PUSH1 0x1F DUP3 ADD AND DUP3 ADD DUP1 PUSH1 0x40 MSTORE POP DUP2 ADD SWAP1 PUSH2 0x164B SWAP2 SWAP1 PUSH2 0x1CCB JUMP JUMPDEST POP PUSH1 0x40 MLOAD PUSH4 0x95EA7B3 PUSH1 0xE0 SHL DUP2 MSTORE PUSH1 0x1 PUSH1 0x1 PUSH1 0xA0 SHL SUB PUSH32 0x0 DUP2 AND PUSH1 0x4 DUP4 ADD MSTORE PUSH1 0x24 DUP3 ADD DUP7 SWAP1 MSTORE DUP14 AND SWAP1 PUSH4 0x95EA7B3 SWAP1 PUSH1 0x44 ADD PUSH1 0x20 PUSH1 0x40 MLOAD DUP1 DUP4 SUB DUP2 PUSH1 0x0 DUP8 GAS CALL ISZERO DUP1 ISZERO PUSH2 0x16BB JUMPI RETURNDATASIZE PUSH1 0x0 DUP1 RETURNDATACOPY RETURNDATASIZE PUSH1 0x0 REVERT JUMPDEST POP POP POP POP PUSH1 0x40 MLOAD RETURNDATASIZE PUSH1 0x1F NOT PUSH1 0x1F DUP3 ADD AND DUP3 ADD DUP1 PUSH1 0x40 MSTORE POP DUP2 ADD SWAP1 PUSH2 0x16DF SWAP2 SWAP1 PUSH2 0x1CCB JUMP JUMPDEST POP PUSH32 0x0 PUSH1 0x1 PUSH1 0x1 PUSH1 0xA0 SHL SUB AND PUSH4 0x8340F549 DUP15 DUP4 DUP9 PUSH1 0x40 MLOAD DUP5 PUSH4 0xFFFFFFFF AND PUSH1 0xE0 SHL DUP2 MSTORE PUSH1 0x4 ADD PUSH2 0x1730 SWAP4 SWAP3 SWAP2 SWAP1 PUSH2 0x1CA7 JUMP JUMPDEST PUSH1 0x20 PUSH1 0x40 MLOAD DUP1 DUP4 SUB DUP2 PUSH1 0x0 DUP8 GAS CALL ISZERO DUP1 ISZERO PUSH2 0x174F JUMPI RETURNDATASIZE PUSH1 0x0 DUP1 RETURNDATACOPY RETURNDATASIZE PUSH1 0x0 REVERT JUMPDEST POP POP POP POP PUSH1 0x40 MLOAD RETURNDATASIZE PUSH1 0x1F NOT PUSH1 0x1F DUP3 ADD AND DUP3 ADD DUP1 PUSH1 0x40 MSTORE POP DUP2 ADD SWAP1 PUSH2 0x1773 SWAP2 SWAP1 PUSH2 0x1CED JUMP JUMPDEST POP PUSH1 0x40 MLOAD PUSH4 0x8340F549 PUSH1 0xE0 SHL DUP2 MSTORE PUSH1 0x1 PUSH1 0x1 PUSH1 0xA0 SHL SUB PUSH32 0x0 AND SWAP1 PUSH4 0x8340F549 SWAP1 PUSH2 0x17C4 SWAP1 DUP16 SWAP1 DUP6 SWAP1 DUP10 SWAP1 PUSH1 0x4 ADD PUSH2 0x1CA7 JUMP JUMPDEST PUSH1 0x20 PUSH1 0x40 MLOAD DUP1 DUP4 SUB DUP2 PUSH1 0x0 DUP8 GAS CALL ISZERO DUP1 ISZERO PUSH2 0x17E3 JUMPI RETURNDATASIZE PUSH1 0x0 DUP1 RETURNDATACOPY RETURNDATASIZE PUSH1 0x0 REVERT JUMPDEST POP POP POP POP PUSH1 0x40 MLOAD RETURNDATASIZE PUSH1 0x1F NOT PUSH1 0x1F DUP3 ADD AND DUP3 ADD DUP1 PUSH1 0x40 MSTORE POP DUP2 ADD SWAP1 PUSH2 0x1807 SWAP2 SWAP1 PUSH2 0x1CED JUMP JUMPDEST POP PUSH1 0x40 MLOAD PUSH4 0x35313C21 PUSH1 0xE1 SHL DUP2 MSTORE PUSH1 0x1 PUSH1 0x1 PUSH1 0xA0 SHL SUB DUP9 DUP2 AND PUSH1 0x4 DUP4 ADD MSTORE DUP3 AND SWAP1 PUSH4 0x6A627842 SWAP1 PUSH1 0x24 ADD PUSH1 0x20 PUSH1 0x40 MLOAD DUP1 DUP4 SUB DUP2 PUSH1 0x0 DUP8 GAS CALL ISZERO DUP1 ISZERO PUSH2 0x1850 JUMPI RETURNDATASIZE PUSH1 0x0 DUP1 RETURNDATACOPY RETURNDATASIZE PUSH1 0x0 REVERT JUMPDEST POP POP POP POP PUSH1 0x40 MLOAD RETURNDATASIZE PUSH1 0x1F NOT PUSH1 0x1F DUP3 ADD AND DUP3 ADD DUP1 PUSH1 0x40 MSTORE POP DUP2 ADD SWAP1 PUSH2 0x1874 SWAP2 SWAP1 PUSH2 0x1CED JUMP JUMPDEST PUSH1 0x40 DUP1 MLOAD DUP8 DUP2 MSTORE PUSH1 0x20 DUP2 ADD DUP8 SWAP1 MSTORE SWAP1 DUP2 ADD DUP3 SWAP1 MSTORE SWAP1 SWAP4 POP PUSH1 0x1 PUSH1 0x1 PUSH1 0xA0 SHL SUB DUP3 AND SWAP1 CALLER SWAP1 PUSH32 0x4A1A2A6176E9646D9E3157F7C2AB3C499F18337C0B0828CFB28E0A61DE4A11F7 SWAP1 PUSH1 0x60 ADD PUSH1 0x40 MLOAD DUP1 SWAP2 SUB SWAP1 LOG3 POP PUSH2 0x18D0 PUSH1 0x1 PUSH1 0x0 SSTORE JUMP JUMPDEST POP SWAP9 POP SWAP9 POP SWAP9 SWAP6 POP POP POP POP POP POP JUMP JUMPDEST PUSH1 0x2 PUSH1 0x0 SLOAD SUB PUSH2 0x1902 JUMPI PUSH1 0x40 MLOAD PUSH4 0x3EE5AEB5 PUSH1 0xE0 SHL DUP2 MSTORE PUSH1 0x4 ADD PUSH1 0x40 MLOAD DUP1 SWAP2 SUB SWAP1 REVERT JUMPDEST PUSH1 0x2 PUSH1 0x0 SSTORE JUMP JUMPDEST DUP4 DUP4 DUP4 DUP3 LT ISZERO PUSH2 0x195B JUMPI PUSH1 0x40 MLOAD PUSH3 0x461BCD PUSH1 0xE5 SHL DUP2 MSTORE PUSH1 0x20 PUSH1 0x4 DUP3 ADD MSTORE PUSH1 0x1D PUSH1 0x24 DUP3 ADD MSTORE PUSH32 0x526F757465723A20696E73756666696369656E74204120616D6F756E74000000 PUSH1 0x44 DUP3 ADD MSTORE PUSH1 0x64 ADD PUSH2 0xE0 JUMP JUMPDEST DUP3 DUP2 LT ISZERO PUSH2 0x19AB JUMPI PUSH1 0x40 MLOAD PUSH3 0x461BCD PUSH1 0xE5 SHL DUP2 MSTORE PUSH1 0x20 PUSH1 0x4 DUP3 ADD MSTORE PUSH1 0x1D PUSH1 0x24 DUP3 ADD MSTORE PUSH32 0x526F757465723A20696E73756666696369656E74204220616D6F756E74000000 PUSH1 0x44 DUP3 ADD MSTORE PUSH1 0x64 ADD PUSH2 0xE0 JUMP JUMPDEST SWAP7 POP SWAP7 SWAP5 POP POP POP POP POP JUMP JUMPDEST PUSH1 0x0 DUP1 DUP4 PUSH1 0x1F DUP5 ADD SLT PUSH2 0x19C8 JUMPI PUSH1 0x0 DUP1 REVERT JUMPDEST POP DUP2 CALLDATALOAD PUSH8 0xFFFFFFFFFFFFFFFF DUP2 GT ISZERO PUSH2 0x19E0 JUMPI PUSH1 0x0 DUP1 REVERT JUMPDEST PUSH1 0x20 DUP4 ADD SWAP2 POP DUP4 PUSH1 0x20 DUP3 PUSH1 0x5 SHL DUP6 ADD ADD GT ISZERO PUSH2 0x19FB JUMPI PUSH1 0x0 DUP1 REVERT JUMPDEST SWAP3 POP SWAP3 SWAP1 POP JUMP JUMPDEST PUSH1 0x1 PUSH1 0x1 PUSH1 0xA0 SHL SUB DUP2 AND DUP2 EQ PUSH2 0x1A17 JUMPI PUSH1 0x0 DUP1 REVERT JUMPDEST POP JUMP JUMPDEST PUSH1 0x0 DUP1 PUSH1 0x0 DUP1 PUSH1 0x0 DUP1 PUSH1 0xA0 DUP8 DUP10 SUB SLT ISZERO PUSH2 0x1A33 JUMPI PUSH1 0x0 DUP1 REVERT JUMPDEST DUP7 CALLDATALOAD SWAP6 POP PUSH1 0x20 DUP8 ADD CALLDATALOAD SWAP5 POP PUSH1 0x40 DUP8 ADD CALLDATALOAD PUSH8 0xFFFFFFFFFFFFFFFF DUP2 GT ISZERO PUSH2 0x1A58 JUMPI PUSH1 0x0 DUP1 REVERT JUMPDEST PUSH2 0x1A64 DUP10 DUP3 DUP11 ADD PUSH2 0x19B6 JUMP JUMPDEST SWAP1 SWAP6 POP SWAP4 POP POP PUSH1 0x60 DUP8 ADD CALLDATALOAD PUSH2 0x1A78 DUP2 PUSH2 0x1A02 JUMP JUMPDEST DUP1 SWAP3 POP POP PUSH1 0x80 DUP8 ADD CALLDATALOAD SWAP1 POP SWAP3 SWAP6 POP SWAP3 SWAP6 POP SWAP3 SWAP6 JUMP JUMPDEST PUSH1 0x20 DUP1 DUP3 MSTORE DUP3 MLOAD DUP3 DUP3 ADD DUP2 SWAP1 MSTORE PUSH1 0x0 SWAP2 SWAP1 DUP5 DUP3 ADD SWAP1 PUSH1 0x40 DUP6 ADD SWAP1 DUP5 JUMPDEST DUP2 DUP2 LT ISZERO PUSH2 0x1AC5 JUMPI DUP4 MLOAD DUP4 MSTORE SWAP3 DUP5 ADD SWAP3 SWAP2 DUP5 ADD SWAP2 PUSH1 0x1 ADD PUSH2 0x1AA9 JUMP JUMPDEST POP SWAP1 SWAP7 SWAP6 POP POP POP POP POP POP JUMP JUMPDEST PUSH1 0x0 DUP1 PUSH1 0x0 DUP1 PUSH1 0x0 PUSH1 0x80 DUP7 DUP9 SUB SLT ISZERO PUSH2 0x1AE9 JUMPI PUSH1 0x0 DUP1 REVERT JUMPDEST DUP6 CALLDATALOAD SWAP5 POP PUSH1 0x20 DUP7 ADD CALLDATALOAD PUSH8 0xFFFFFFFFFFFFFFFF DUP2 GT ISZERO PUSH2 0x1B07 JUMPI PUSH1 0x0 DUP1 REVERT JUMPDEST PUSH2 0x1B13 DUP9 DUP3 DUP10 ADD PUSH2 0x19B6 JUMP JUMPDEST SWAP1 SWAP6 POP SWAP4 POP POP PUSH1 0x40 DUP7 ADD CALLDATALOAD PUSH2 0x1B27 DUP2 PUSH2 0x1A02 JUMP JUMPDEST SWAP5 SWAP8 SWAP4 SWAP7 POP SWAP2 SWAP5 PUSH1 0x60 ADD CALLDATALOAD SWAP3 SWAP2 POP POP JUMP JUMPDEST PUSH1 0x0 DUP1 PUSH1 0x0 PUSH1 0x40 DUP5 DUP7 SUB SLT ISZERO PUSH2 0x1B4D JUMPI PUSH1 0x0 DUP1 REVERT JUMPDEST DUP4 CALLDATALOAD SWAP3 POP PUSH1 0x20 DUP5 ADD CALLDATALOAD PUSH8 0xFFFFFFFFFFFFFFFF DUP2 GT ISZERO PUSH2 0x1B6B JUMPI PUSH1 0x0 DUP1 REVERT JUMPDEST PUSH2 0x1B77 DUP7 DUP3 DUP8 ADD PUSH2 0x19B6 JUMP JUMPDEST SWAP5 SWAP8 SWAP1 SWAP7 POP SWAP4 SWAP5 POP POP POP POP JUMP JUMPDEST PUSH1 0x0 DUP1 PUSH1 0x0 DUP1 PUSH1 0x0 DUP1 PUSH1 0x0 DUP1 PUSH2 0x100 DUP10 DUP12 SUB SLT ISZERO PUSH2 0x1BA1 JUMPI PUSH1 0x0 DUP1 REVERT JUMPDEST DUP9 CALLDATALOAD PUSH2 0x1BAC DUP2 PUSH2 0x1A02 JUMP JUMPDEST SWAP8 POP PUSH1 0x20 DUP10 ADD CALLDATALOAD PUSH2 0x1BBC DUP2 PUSH2 0x1A02 JUMP JUMPDEST SWAP7 POP PUSH1 0x40 DUP10 ADD CALLDATALOAD SWAP6 POP PUSH1 0x60 DUP10 ADD CALLDATALOAD SWAP5 POP PUSH1 0x80 DUP10 ADD CALLDATALOAD SWAP4 POP PUSH1 0xA0 DUP10 ADD CALLDATALOAD SWAP3 POP PUSH1 0xC0 DUP10 ADD CALLDATALOAD PUSH2 0x1BE8 DUP2 PUSH2 0x1A02 JUMP JUMPDEST DUP1 SWAP3 POP POP PUSH1 0xE0 DUP10 ADD CALLDATALOAD SWAP1 POP SWAP3 SWAP6 SWAP9 POP SWAP3 SWAP6 SWAP9 SWAP1 SWAP4 SWAP7 POP JUMP JUMPDEST PUSH1 0x20 DUP1 DUP3 MSTORE PUSH1 0xF SWAP1 DUP3 ADD MSTORE PUSH15 0x149BDD5D195C8E88195E1C1A5C9959 PUSH1 0x8A SHL PUSH1 0x40 DUP3 ADD MSTORE PUSH1 0x60 ADD SWAP1 JUMP JUMPDEST PUSH1 0x20 DUP1 DUP3 MSTORE PUSH1 0x14 SWAP1 DUP3 ADD MSTORE PUSH20 0xA4DEEAE8CAE47440D2DCECC2D8D2C840E0C2E8D PUSH1 0x63 SHL PUSH1 0x40 DUP3 ADD MSTORE PUSH1 0x60 ADD SWAP1 JUMP JUMPDEST PUSH4 0x4E487B71 PUSH1 0xE0 SHL PUSH1 0x0 MSTORE PUSH1 0x41 PUSH1 0x4 MSTORE PUSH1 0x24 PUSH1 0x0 REVERT JUMPDEST PUSH4 0x4E487B71 PUSH1 0xE0 SHL PUSH1 0x0 MSTORE PUSH1 0x32 PUSH1 0x4 MSTORE PUSH1 0x24 PUSH1 0x0 REVERT JUMPDEST PUSH1 0x0 PUSH1 0x20 DUP3 DUP5 SUB SLT ISZERO PUSH2 0x1C95 JUMPI PUSH1 0x0 DUP1 REVERT JUMPDEST DUP2 CALLDATALOAD PUSH2 0x1CA0 DUP2 PUSH2 0x1A02 JUMP JUMPDEST SWAP4 SWAP3 POP POP POP JUMP JUMPDEST PUSH1 0x1 PUSH1 0x1 PUSH1 0xA0 SHL SUB SWAP4 DUP5 AND DUP2 MSTORE SWAP2 SWAP1 SWAP3 AND PUSH1 0x20 DUP3 ADD MSTORE PUSH1 0x40 DUP2 ADD SWAP2 SWAP1 SWAP2 MSTORE PUSH1 0x60 ADD SWAP1 JUMP JUMPDEST PUSH1 0x0 PUSH1 0x20 DUP3 DUP5 SUB SLT ISZERO PUSH2 0x1CDD JUMPI PUSH1 0x0 DUP1 REVERT JUMPDEST DUP2 MLOAD DUP1 ISZERO ISZERO DUP2 EQ PUSH2 0x1CA0 JUMPI PUSH1 0x0 DUP1 REVERT JUMPDEST PUSH1 0x0 PUSH1 0x20 DUP3 DUP5 SUB SLT ISZERO PUSH2 0x1CFF JUMPI PUSH1 0x0 DUP1 REVERT JUMPDEST POP MLOAD SWAP2 SWAP1 POP JUMP JUMPDEST PUSH4 0x4E487B71 PUSH1 0xE0 SHL PUSH1 0x0 MSTORE PUSH1 0x11 PUSH1 0x4 MSTORE PUSH1 0x24 PUSH1 0x0 REVERT JUMPDEST DUP2 DUP2 SUB DUP2 DUP2 GT ISZERO PUSH2 0x1D2F JUMPI PUSH2 0x1D2F PUSH2 0x1D06 JUMP JUMPDEST SWAP3 SWAP2 POP POP JUMP JUMPDEST DUP1 DUP3 ADD DUP1 DUP3 GT ISZERO PUSH2 0x1D2F JUMPI PUSH2 0x1D2F PUSH2 0x1D06 JUMP JUMPDEST PUSH1 0x0 PUSH1 0x20 DUP3 DUP5 SUB SLT ISZERO PUSH2 0x1D5A JUMPI PUSH1 0x0 DUP1 REVERT JUMPDEST DUP2 MLOAD PUSH2 0x1CA0 DUP2 PUSH2 0x1A02 JUMP JUMPDEST PUSH1 0x20 DUP1 DUP3 MSTORE PUSH1 0x16 SWAP1 DUP3 ADD MSTORE PUSH22 0x149BDD5D195C8E881C1BDBDB081B9BDD08199BDD5B99 PUSH1 0x52 SHL PUSH1 0x40 DUP3 ADD MSTORE PUSH1 0x60 ADD SWAP1 JUMP JUMPDEST PUSH1 0x0 PUSH1 0x1 DUP3 ADD PUSH2 0x1DA7 JUMPI PUSH2 0x1DA7 PUSH2 0x1D06 JUMP JUMPDEST POP PUSH1 0x1 ADD SWAP1 JUMP INVALID LOG2 PUSH5 0x6970667358 0x22 SLT KECCAK256 0xD9 TIMESTAMP 0xAB DUP15 0x26 0xDF 0xAE 0xCA LOG4 0xBB 0xD2 SWAP11 0xE4 0xD8 0x22 PUSH9 0xD2C6696FB1E9281B58 SWAP13 EXTCODECOPY 0xA6 SWAP13 CHAINID LOG1 PUSH11 0x64736F6C63430008140033 "},"methodIdentifiers":{"WETH()":"ad5c4648","addLiquidity(address,address,uint256,uint256,uint256,uint256,address,uint256)":"e8e33700","factory()":"c45a0155","getAmountOut(uint256,address[])":"b8239ebb","swapExactETHForTokens(uint256,address[],address,uint256)":"7ff36ab5","swapExactTokensForTokens(uint256,uint256,address[],address,uint256)":"38ed1739","vault()":"fbfa77cf"}}}}}