{
  "_format": "hh-sol-artifact-1",
  "contractName": "ClassicPool",
  "sourceName": "contracts/ClassicPool.sol",
  "abi": [
    {
      "inputs": [
        {
          "internalType": "address",
          "name": "_vault",
          "type": "address"
        },
        {
          "internalType": "address",
          "name": "_token0",
          "type": "address"
        },
        {
          "internalType": "address",
          "name": "_token1",
          "type": "address"
        },
        {
          "internalType": "uint24",
          "name": "_swapFee",
          "type": "uint24"
        },
        {
          "internalType": "uint24",
          "name": "_protocolFee",
          "type": "uint24"
        }
      ],
      "stateMutability": "nonpayable",
      "type": "constructor"
    },
    {
      "inputs": [
        {
          "internalType": "address",
          "name": "spender",
          "type": "address"
        },
        {
          "internalType": "uint256",
          "name": "allowance",
          "type": "uint256"
        },
        {
          "internalType": "uint256",
          "name": "needed",
          "type": "uint256"
        }
      ],
      "name": "ERC20InsufficientAllowance",
      "type": "error"
    },
    {
      "inputs": [
        {
          "internalType": "address",
          "name": "sender",
          "type": "address"
        },
        {
          "internalType": "uint256",
          "name": "balance",
          "type": "uint256"
        },
        {
          "internalType": "uint256",
          "name": "needed",
          "type": "uint256"
        }
      ],
      "name": "ERC20InsufficientBalance",
      "type": "error"
    },
    {
      "inputs": [
        {
          "internalType": "address",
          "name": "approver",
          "type": "address"
        }
      ],
      "name": "ERC20InvalidApprover",
      "type": "error"
    },
    {
      "inputs": [
        {
          "internalType": "address",
          "name": "receiver",
          "type": "address"
        }
      ],
      "name": "ERC20InvalidReceiver",
      "type": "error"
    },
    {
      "inputs": [
        {
          "internalType": "address",
          "name": "sender",
          "type": "address"
        }
      ],
      "name": "ERC20InvalidSender",
      "type": "error"
    },
    {
      "inputs": [
        {
          "internalType": "address",
          "name": "spender",
          "type": "address"
        }
      ],
      "name": "ERC20InvalidSpender",
      "type": "error"
    },
    {
      "inputs": [],
      "name": "ReentrancyGuardReentrantCall",
      "type": "error"
    },
    {
      "anonymous": false,
      "inputs": [
        {
          "indexed": true,
          "internalType": "address",
          "name": "owner",
          "type": "address"
        },
        {
          "indexed": true,
          "internalType": "address",
          "name": "spender",
          "type": "address"
        },
        {
          "indexed": false,
          "internalType": "uint256",
          "name": "value",
          "type": "uint256"
        }
      ],
      "name": "Approval",
      "type": "event"
    },
    {
      "anonymous": false,
      "inputs": [
        {
          "indexed": true,
          "internalType": "address",
          "name": "sender",
          "type": "address"
        },
        {
          "indexed": false,
          "internalType": "uint256",
          "name": "amount0",
          "type": "uint256"
        },
        {
          "indexed": false,
          "internalType": "uint256",
          "name": "amount1",
          "type": "uint256"
        },
        {
          "indexed": true,
          "internalType": "address",
          "name": "to",
          "type": "address"
        }
      ],
      "name": "Burn",
      "type": "event"
    },
    {
      "anonymous": false,
      "inputs": [
        {
          "indexed": true,
          "internalType": "address",
          "name": "sender",
          "type": "address"
        },
        {
          "indexed": false,
          "internalType": "uint256",
          "name": "amount0",
          "type": "uint256"
        },
        {
          "indexed": false,
          "internalType": "uint256",
          "name": "amount1",
          "type": "uint256"
        },
        {
          "indexed": true,
          "internalType": "address",
          "name": "to",
          "type": "address"
        }
      ],
      "name": "Mint",
      "type": "event"
    },
    {
      "anonymous": false,
      "inputs": [
        {
          "indexed": true,
          "internalType": "address",
          "name": "sender",
          "type": "address"
        },
        {
          "indexed": false,
          "internalType": "uint256",
          "name": "amount0In",
          "type": "uint256"
        },
        {
          "indexed": false,
          "internalType": "uint256",
          "name": "amount1In",
          "type": "uint256"
        },
        {
          "indexed": false,
          "internalType": "uint256",
          "name": "amount0Out",
          "type": "uint256"
        },
        {
          "indexed": false,
          "internalType": "uint256",
          "name": "amount1Out",
          "type": "uint256"
        },
        {
          "indexed": true,
          "internalType": "address",
          "name": "to",
          "type": "address"
        }
      ],
      "name": "Swap",
      "type": "event"
    },
    {
      "anonymous": false,
      "inputs": [
        {
          "indexed": false,
          "internalType": "uint256",
          "name": "reserve0",
          "type": "uint256"
        },
        {
          "indexed": false,
          "internalType": "uint256",
          "name": "reserve1",
          "type": "uint256"
        }
      ],
      "name": "Sync",
      "type": "event"
    },
    {
      "anonymous": false,
      "inputs": [
        {
          "indexed": true,
          "internalType": "address",
          "name": "from",
          "type": "address"
        },
        {
          "indexed": true,
          "internalType": "address",
          "name": "to",
          "type": "address"
        },
        {
          "indexed": false,
          "internalType": "uint256",
          "name": "value",
          "type": "uint256"
        }
      ],
      "name": "Transfer",
      "type": "event"
    },
    {
      "inputs": [
        {
          "internalType": "address",
          "name": "owner",
          "type": "address"
        },
        {
          "internalType": "address",
          "name": "spender",
          "type": "address"
        }
      ],
      "name": "allowance",
      "outputs": [
        {
          "internalType": "uint256",
          "name": "",
          "type": "uint256"
        }
      ],
      "stateMutability": "view",
      "type": "function"
    },
    {
      "inputs": [
        {
          "internalType": "address",
          "name": "spender",
          "type": "address"
        },
        {
          "internalType": "uint256",
          "name": "value",
          "type": "uint256"
        }
      ],
      "name": "approve",
      "outputs": [
        {
          "internalType": "bool",
          "name": "",
          "type": "bool"
        }
      ],
      "stateMutability": "nonpayable",
      "type": "function"
    },
    {
      "inputs": [
        {
          "internalType": "address",
          "name": "account",
          "type": "address"
        }
      ],
      "name": "balanceOf",
      "outputs": [
        {
          "internalType": "uint256",
          "name": "",
          "type": "uint256"
        }
      ],
      "stateMutability": "view",
      "type": "function"
    },
    {
      "inputs": [
        {
          "internalType": "address",
          "name": "to",
          "type": "address"
        }
      ],
      "name": "burn",
      "outputs": [
        {
          "internalType": "uint256",
          "name": "amount0",
          "type": "uint256"
        },
        {
          "internalType": "uint256",
          "name": "amount1",
          "type": "uint256"
        }
      ],
      "stateMutability": "nonpayable",
      "type": "function"
    },
    {
      "inputs": [],
      "name": "decimals",
      "outputs": [
        {
          "internalType": "uint8",
          "name": "",
          "type": "uint8"
        }
      ],
      "stateMutability": "view",
      "type": "function"
    },
    {
      "inputs": [],
      "name": "factory",
      "outputs": [
        {
          "internalType": "address",
          "name": "",
          "type": "address"
        }
      ],
      "stateMutability": "view",
      "type": "function"
    },
    {
      "inputs": [],
      "name": "feeRecipient",
      "outputs": [
        {
          "internalType": "address",
          "name": "",
          "type": "address"
        }
      ],
      "stateMutability": "view",
      "type": "function"
    },
    {
      "inputs": [
        {
          "internalType": "address",
          "name": "tokenIn",
          "type": "address"
        },
        {
          "internalType": "uint256",
          "name": "amountIn",
          "type": "uint256"
        }
      ],
      "name": "getAmountOut",
      "outputs": [
        {
          "internalType": "uint256",
          "name": "amountOut",
          "type": "uint256"
        }
      ],
      "stateMutability": "view",
      "type": "function"
    },
    {
      "inputs": [],
      "name": "getReserves",
      "outputs": [
        {
          "internalType": "uint256",
          "name": "_reserve0",
          "type": "uint256"
        },
        {
          "internalType": "uint256",
          "name": "_reserve1",
          "type": "uint256"
        }
      ],
      "stateMutability": "view",
      "type": "function"
    },
    {
      "inputs": [
        {
          "internalType": "address",
          "name": "to",
          "type": "address"
        }
      ],
      "name": "mint",
      "outputs": [
        {
          "internalType": "uint256",
          "name": "liquidity",
          "type": "uint256"
        }
      ],
      "stateMutability": "nonpayable",
      "type": "function"
    },
    {
      "inputs": [],
      "name": "name",
      "outputs": [
        {
          "internalType": "string",
          "name": "",
          "type": "string"
        }
      ],
      "stateMutability": "view",
      "type": "function"
    },
    {
      "inputs": [],
      "name": "protocolFee",
      "outputs": [
        {
          "internalType": "uint24",
          "name": "",
          "type": "uint24"
        }
      ],
      "stateMutability": "view",
      "type": "function"
    },
    {
      "inputs": [],
      "name": "reserve0",
      "outputs": [
        {
          "internalType": "uint256",
          "name": "",
          "type": "uint256"
        }
      ],
      "stateMutability": "view",
      "type": "function"
    },
    {
      "inputs": [],
      "name": "reserve1",
      "outputs": [
        {
          "internalType": "uint256",
          "name": "",
          "type": "uint256"
        }
      ],
      "stateMutability": "view",
      "type": "function"
    },
    {
      "inputs": [
        {
          "internalType": "address",
          "name": "_feeRecipient",
          "type": "address"
        }
      ],
      "name": "setFeeRecipient",
      "outputs": [],
      "stateMutability": "nonpayable",
      "type": "function"
    },
    {
      "inputs": [
        {
          "internalType": "address",
          "name": "tokenIn",
          "type": "address"
        },
        {
          "internalType": "address",
          "name": "to",
          "type": "address"
        },
        {
          "internalType": "uint8",
          "name": "withdrawMode",
          "type": "uint8"
        }
      ],
      "name": "swap",
      "outputs": [
        {
          "internalType": "uint256",
          "name": "amountOut",
          "type": "uint256"
        }
      ],
      "stateMutability": "nonpayable",
      "type": "function"
    },
    {
      "inputs": [],
      "name": "swapFee",
      "outputs": [
        {
          "internalType": "uint24",
          "name": "",
          "type": "uint24"
        }
      ],
      "stateMutability": "view",
      "type": "function"
    },
    {
      "inputs": [],
      "name": "symbol",
      "outputs": [
        {
          "internalType": "string",
          "name": "",
          "type": "string"
        }
      ],
      "stateMutability": "view",
      "type": "function"
    },
    {
      "inputs": [],
      "name": "token0",
      "outputs": [
        {
          "internalType": "address",
          "name": "",
          "type": "address"
        }
      ],
      "stateMutability": "view",
      "type": "function"
    },
    {
      "inputs": [],
      "name": "token1",
      "outputs": [
        {
          "internalType": "address",
          "name": "",
          "type": "address"
        }
      ],
      "stateMutability": "view",
      "type": "function"
    },
    {
      "inputs": [],
      "name": "totalSupply",
      "outputs": [
        {
          "internalType": "uint256",
          "name": "",
          "type": "uint256"
        }
      ],
      "stateMutability": "view",
      "type": "function"
    },
    {
      "inputs": [
        {
          "internalType": "address",
          "name": "to",
          "type": "address"
        },
        {
          "internalType": "uint256",
          "name": "value",
          "type": "uint256"
        }
      ],
      "name": "transfer",
      "outputs": [
        {
          "internalType": "bool",
          "name": "",
          "type": "bool"
        }
      ],
      "stateMutability": "nonpayable",
      "type": "function"
    },
    {
      "inputs": [
        {
          "internalType": "address",
          "name": "from",
          "type": "address"
        },
        {
          "internalType": "address",
          "name": "to",
          "type": "address"
        },
        {
          "internalType": "uint256",
          "name": "value",
          "type": "uint256"
        }
      ],
      "name": "transferFrom",
      "outputs": [
        {
          "internalType": "bool",
          "name": "",
          "type": "bool"
        }
      ],
      "stateMutability": "nonpayable",
      "type": "function"
    },
    {
      "inputs": [],
      "name": "vault",
      "outputs": [
        {
          "internalType": "contract IVault",
          "name": "",
          "type": "address"
        }
      ],
      "stateMutability": "view",
      "type": "function"
    }
  ],
  "bytecode": "0x60e06040523480156200001157600080fd5b506040516200208f3803806200208f83398101604081905262000034916200020c565b6040518060400160405280600c81526020016b20b931902628102a37b5b2b760a11b8152506040518060400160405280600681526020016504152432d4c560d41b815250816003908162000089919062000321565b50600462000098828262000321565b50506001600555506001600160a01b0380841690851603620001015760405162461bcd60e51b815260206004820152601660248201527f506f6f6c3a206964656e746963616c20746f6b656e730000000000000000000060448201526064015b60405180910390fd5b6001600160a01b038416158015906200012257506001600160a01b03831615155b620001655760405162461bcd60e51b8152602060048201526012602482015271506f6f6c3a207a65726f206164647265737360701b6044820152606401620000f8565b6001600160a01b0394851660805292841660a052921660c0526008805462ffffff93841665ffffffffffff19909116176301000000939092169290920217600160301b600160d01b031916336601000000000000810291909117909155600980546001600160a01b0319169091179055620003ed565b80516001600160a01b0381168114620001f357600080fd5b919050565b805162ffffff81168114620001f357600080fd5b600080600080600060a086880312156200022557600080fd5b6200023086620001db565b94506200024060208701620001db565b93506200025060408701620001db565b92506200026060608701620001f8565b91506200027060808701620001f8565b90509295509295909350565b634e487b7160e01b600052604160045260246000fd5b600181811c90821680620002a757607f821691505b602082108103620002c857634e487b7160e01b600052602260045260246000fd5b50919050565b601f8211156200031c57600081815260208120601f850160051c81016020861015620002f75750805b601f850160051c820191505b81811015620003185782815560010162000303565b5050505b505050565b81516001600160401b038111156200033d576200033d6200027c565b62000355816200034e845462000292565b84620002ce565b602080601f8311600181146200038d5760008415620003745750858301515b600019600386901b1c1916600185901b17855562000318565b600085815260208120601f198616915b82811015620003be578886015182559484019460019091019084016200039d565b5085821015620003dd5787850151600019600388901b60f8161c191681555b5050505050600190811b01905550565b60805160a05160c051611bae620004e160003960008181610341015281816104cb01528181610604015281816109ed01528181610c3501528181610fc00152818161111f015261127f0152600081816101bf01528181610490015281816105a0015281816105de0152818161093801528181610b8001528181610f180152818161106a0152818161124401526113490152600081816103b60152818161064f0152818161073e01528181610835015281816108c40152818161096901528181610a2101528181610bb101528181610c6901528181610f4f01528181610ff70152818161109c01526111530152611bae6000f3fe608060405234801561001057600080fd5b50600436106101585760003560e01c80636a627842116100c3578063c45a01551161007c578063c45a01551461030c578063ca706bcf14610329578063d21220a71461033c578063dd62ed3e14610363578063e74b981b1461039c578063fbfa77cf146103b157600080fd5b80636a6278421461028c57806370a082311461029f57806389afcb44146102c857806395d89b41146102db578063a9059cbb146102e3578063b0e21e8a146102f657600080fd5b806323b872dd1161011557806323b872dd14610222578063313ce56714610235578063443cb4bc14610244578063469048401461024d57806354cf2aeb146102605780635a76f25e1461028357600080fd5b806306fdde031461015d5780630902f1ac1461017b578063095ea7b3146101975780630dfe1681146101ba5780631800c11a146101f957806318160ddd1461021a575b600080fd5b6101656103d8565b604051610172919061192d565b60405180910390f35b6006546007545b60408051928352602083019190915201610172565b6101aa6101a5366004611992565b61046a565b6040519015158152602001610172565b6101e17f000000000000000000000000000000000000000000000000000000000000000081565b6040516001600160a01b039091168152602001610172565b61020c6102073660046119bc565b610484565b604051908152602001610172565b60025461020c565b6101aa610230366004611a09565b610b35565b60405160128152602001610172565b61020c60065481565b6009546101e1906001600160a01b031681565b60085461026f9062ffffff1681565b60405162ffffff9091168152602001610172565b61020c60075481565b61020c61029a366004611a45565b610b59565b61020c6102ad366004611a45565b6001600160a01b031660009081526020819052604090205490565b6101826102d6366004611a45565b610e3b565b610165611223565b6101aa6102f1366004611992565b611232565b60085461026f906301000000900462ffffff1681565b6008546101e190660100000000000090046001600160a01b031681565b61020c610337366004611992565b611240565b6101e17f000000000000000000000000000000000000000000000000000000000000000081565b61020c610371366004611a60565b6001600160a01b03918216600090815260016020908152604080832093909416825291909152205490565b6103af6103aa366004611a45565b611460565b005b6101e17f000000000000000000000000000000000000000000000000000000000000000081565b6060600380546103e790611a93565b80601f016020809104026020016040519081016040528092919081815260200182805461041390611a93565b80156104605780601f1061043557610100808354040283529160200191610460565b820191906000526020600020905b81548152906001019060200180831161044357829003601f168201915b5050505050905090565b6000336104788185856114d8565b60019150505b92915050565b600061048e6114ea565b7f00000000000000000000000000000000000000000000000000000000000000006001600160a01b0316846001600160a01b031614806104ff57507f00000000000000000000000000000000000000000000000000000000000000006001600160a01b0316846001600160a01b0316145b6105465760405162461bcd60e51b81526020600482015260136024820152722837b7b61d1034b73b30b634b2103a37b5b2b760691b60448201526064015b60405180910390fd5b6001600160a01b03831661059c5760405162461bcd60e51b815260206004820152601760248201527f506f6f6c3a20696e76616c696420726563697069656e74000000000000000000604482015260640161053d565b60007f00000000000000000000000000000000000000000000000000000000000000006001600160a01b0316856001600160a01b0316149050600081610602577f0000000000000000000000000000000000000000000000000000000000000000610624565b7f00000000000000000000000000000000000000000000000000000000000000005b604051633de222bb60e21b81526001600160a01b0388811660048301523360248301529192506000917f0000000000000000000000000000000000000000000000000000000000000000169063f7888aec90604401602060405180830381865afa158015610696573d6000803e3d6000fd5b505050506040513d601f19601f820116820180604052508101906106ba9190611ac7565b90506000811161070c5760405162461bcd60e51b815260206004820152601760248201527f506f6f6c3a207a65726f20696e70757420616d6f756e74000000000000000000604482015260640161053d565b6040516322514f1560e11b81526001600160a01b038881166004830152336024830152306044830152606482018390527f000000000000000000000000000000000000000000000000000000000000000016906344a29e2a90608401600060405180830381600087803b15801561078257600080fd5b505af1158015610796573d6000803e3d6000fd5b505050506107a48782611240565b9350600084116107f65760405162461bcd60e51b815260206004820181905260248201527f506f6f6c3a20696e73756666696369656e74206f757470757420616d6f756e74604482015260640161053d565b8460ff16600003610896576040516322514f1560e11b81526001600160a01b0383811660048301523060248301528781166044830152606482018690527f000000000000000000000000000000000000000000000000000000000000000016906344a29e2a90608401600060405180830381600087803b15801561087957600080fd5b505af115801561088d573d6000803e3d6000fd5b50505050610921565b604051636ce5768960e11b81526001600160a01b0383811660048301528781166024830152604482018690527f0000000000000000000000000000000000000000000000000000000000000000169063d9caed1290606401600060405180830381600087803b15801561090857600080fd5b505af115801561091c573d6000803e3d6000fd5b505050505b604051633de222bb60e21b81526001600160a01b037f0000000000000000000000000000000000000000000000000000000000000000811660048301523060248301526000917f00000000000000000000000000000000000000000000000000000000000000009091169063f7888aec90604401602060405180830381865afa1580156109b2573d6000803e3d6000fd5b505050506040513d601f19601f820116820180604052508101906109d69190611ac7565b604051633de222bb60e21b81526001600160a01b037f0000000000000000000000000000000000000000000000000000000000000000811660048301523060248301529192506000917f0000000000000000000000000000000000000000000000000000000000000000169063f7888aec90604401602060405180830381865afa158015610a68573d6000803e3d6000fd5b505050506040513d601f19601f82011682018060405250810190610a8c9190611ac7565b9050610a988282611514565b6001600160a01b038816337fd78ad95fa46c994b6551d0da85fc275fe613ce37657fb8d5e3d130840159d82287610ad0576000610ad2565b855b88610add5786610ae0565b60005b89610aeb578a610aee565b60005b8a610afa576000610afc565b8b5b60408051948552602085019390935291830152606082015260800160405180910390a35050505050610b2e6001600555565b9392505050565b600033610b4385828561155b565b610b4e8585856115da565b506001949350505050565b6000610b636114ea565b600654600754604051633de222bb60e21b81526001600160a01b037f0000000000000000000000000000000000000000000000000000000000000000811660048301523060248301526000917f00000000000000000000000000000000000000000000000000000000000000009091169063f7888aec90604401602060405180830381865afa158015610bfa573d6000803e3d6000fd5b505050506040513d601f19601f82011682018060405250810190610c1e9190611ac7565b604051633de222bb60e21b81526001600160a01b037f0000000000000000000000000000000000000000000000000000000000000000811660048301523060248301529192506000917f0000000000000000000000000000000000000000000000000000000000000000169063f7888aec90604401602060405180830381865afa158015610cb0573d6000803e3d6000fd5b505050506040513d601f19601f82011682018060405250810190610cd49190611ac7565b90506000610ce28584611af6565b90506000610cf08584611af6565b90506000610cfd60025490565b905080600003610d3a576103e8610d1c610d178486611b09565b611639565b610d269190611af6565b9750610d3560016103e86116a8565b610d6f565b610d6c87610d488386611b09565b610d529190611b20565b87610d5d8486611b09565b610d679190611b20565b6116e2565b97505b60008811610dcb5760405162461bcd60e51b815260206004820152602360248201527f506f6f6c3a20696e73756666696369656e74206c6971756964697479206d696e6044820152621d195960ea1b606482015260840161053d565b610dd589896116a8565b610ddf8585611514565b60408051848152602081018490526001600160a01b038b169133917fdbba30eb0402b389513e87f51f4db2db80bed454384ec6925a24097c3548a02a910160405180910390a350505050505050610e366001600555565b919050565b600080610e466114ea565b306000908152602081905260409020546002546006548190610e689084611b09565b610e729190611b20565b93508060075483610e839190611b09565b610e8d9190611b20565b9250600084118015610e9f5750600083115b610ef75760405162461bcd60e51b815260206004820152602360248201527f506f6f6c3a20696e73756666696369656e74206c6971756964697479206275726044820152621b995960ea1b606482015260840161053d565b610f0130836116f8565b604051636ce5768960e11b81526001600160a01b037f0000000000000000000000000000000000000000000000000000000000000000811660048301528681166024830152604482018690527f0000000000000000000000000000000000000000000000000000000000000000169063d9caed1290606401600060405180830381600087803b158015610f9357600080fd5b505af1158015610fa7573d6000803e3d6000fd5b5050604051636ce5768960e11b81526001600160a01b037f0000000000000000000000000000000000000000000000000000000000000000811660048301528881166024830152604482018790527f000000000000000000000000000000000000000000000000000000000000000016925063d9caed129150606401600060405180830381600087803b15801561103d57600080fd5b505af1158015611051573d6000803e3d6000fd5b5050604051633de222bb60e21b81526001600160a01b037f000000000000000000000000000000000000000000000000000000000000000081166004830152306024830152600093507f000000000000000000000000000000000000000000000000000000000000000016915063f7888aec90604401602060405180830381865afa1580156110e4573d6000803e3d6000fd5b505050506040513d601f19601f820116820180604052508101906111089190611ac7565b604051633de222bb60e21b81526001600160a01b037f0000000000000000000000000000000000000000000000000000000000000000811660048301523060248301529192506000917f0000000000000000000000000000000000000000000000000000000000000000169063f7888aec90604401602060405180830381865afa15801561119a573d6000803e3d6000fd5b505050506040513d601f19601f820116820180604052508101906111be9190611ac7565b90506111ca8282611514565b60408051878152602081018790526001600160a01b0389169133917fdccd412f0b1252819cb1fd330b93224ca42612892bb3f4f789976e6d81936496910160405180910390a35050505061121e6001600555565b915091565b6060600480546103e790611a93565b6000336104788185856115da565b60007f00000000000000000000000000000000000000000000000000000000000000006001600160a01b0316836001600160a01b031614806112b357507f00000000000000000000000000000000000000000000000000000000000000006001600160a01b0316836001600160a01b0316145b6112f55760405162461bcd60e51b81526020600482015260136024820152722837b7b61d1034b73b30b634b2103a37b5b2b760691b604482015260640161053d565b600082116113455760405162461bcd60e51b815260206004820152601860248201527f506f6f6c3a20696e73756666696369656e7420696e7075740000000000000000604482015260640161053d565b60007f00000000000000000000000000000000000000000000000000000000000000006001600160a01b0316846001600160a01b03161490506000808261139157600754600654611398565b6006546007545b915091506000821180156113ac5750600081115b6113f85760405162461bcd60e51b815260206004820152601c60248201527f506f6f6c3a20696e73756666696369656e74206c697175696469747900000000604482015260640161053d565b60085460009061140f9062ffffff16612710611b42565b61141e9062ffffff1687611b09565b9050600061142c8383611b09565b905060008261143d86612710611b09565b6114479190611b65565b90506114538183611b20565b9998505050505050505050565b600854660100000000000090046001600160a01b031633146114b65760405162461bcd60e51b815260206004820152600f60248201526e2837b7b61d103337b93134b23232b760891b604482015260640161053d565b600980546001600160a01b0319166001600160a01b0392909216919091179055565b6114e5838383600161172e565b505050565b60026005540361150d57604051633ee5aeb560e01b815260040160405180910390fd5b6002600555565b6006829055600781905560408051838152602081018390527fcf2aa50876cdfbb541206f89af0ee78d44a2abf8d328e37fa4917f982149848a910160405180910390a15050565b6001600160a01b038381166000908152600160209081526040808320938616835292905220546000198110156115d457818110156115c557604051637dc7a0d960e11b81526001600160a01b0384166004820152602481018290526044810183905260640161053d565b6115d48484848403600061172e565b50505050565b6001600160a01b03831661160457604051634b637e8f60e11b81526000600482015260240161053d565b6001600160a01b03821661162e5760405163ec442f0560e01b81526000600482015260240161053d565b6114e5838383611803565b6000600382111561169a5750806000611653600283611b20565b61165e906001611b65565b90505b81811015611694579050806002816116798186611b20565b6116839190611b65565b61168d9190611b20565b9050611661565b50919050565b8115610e3657506001919050565b6001600160a01b0382166116d25760405163ec442f0560e01b81526000600482015260240161053d565b6116de60008383611803565b5050565b60008183106116f15781610b2e565b5090919050565b6001600160a01b03821661172257604051634b637e8f60e11b81526000600482015260240161053d565b6116de82600083611803565b6001600160a01b0384166117585760405163e602df0560e01b81526000600482015260240161053d565b6001600160a01b03831661178257604051634a1406b160e11b81526000600482015260240161053d565b6001600160a01b03808516600090815260016020908152604080832093871683529290522082905580156115d457826001600160a01b0316846001600160a01b03167f8c5be1e5ebec7d5bd14f71427d1e84f3dd0314c0f7b2291e5b200ac8c7c3b925846040516117f591815260200190565b60405180910390a350505050565b6001600160a01b03831661182e5780600260008282546118239190611b65565b909155506118a09050565b6001600160a01b038316600090815260208190526040902054818110156118815760405163391434e360e21b81526001600160a01b0385166004820152602481018290526044810183905260640161053d565b6001600160a01b03841660009081526020819052604090209082900390555b6001600160a01b0382166118bc576002805482900390556118db565b6001600160a01b03821660009081526020819052604090208054820190555b816001600160a01b0316836001600160a01b03167fddf252ad1be2c89b69c2b068fc378daa952ba7f163c4a11628f55a4df523b3ef8360405161192091815260200190565b60405180910390a3505050565b600060208083528351808285015260005b8181101561195a5785810183015185820160400152820161193e565b506000604082860101526040601f19601f8301168501019250505092915050565b80356001600160a01b0381168114610e3657600080fd5b600080604083850312156119a557600080fd5b6119ae8361197b565b946020939093013593505050565b6000806000606084860312156119d157600080fd5b6119da8461197b565b92506119e86020850161197b565b9150604084013560ff811681146119fe57600080fd5b809150509250925092565b600080600060608486031215611a1e57600080fd5b611a278461197b565b9250611a356020850161197b565b9150604084013590509250925092565b600060208284031215611a5757600080fd5b610b2e8261197b565b60008060408385031215611a7357600080fd5b611a7c8361197b565b9150611a8a6020840161197b565b90509250929050565b600181811c90821680611aa757607f821691505b60208210810361169457634e487b7160e01b600052602260045260246000fd5b600060208284031215611ad957600080fd5b5051919050565b634e487b7160e01b600052601160045260246000fd5b8181038181111561047e5761047e611ae0565b808202811582820484141761047e5761047e611ae0565b600082611b3d57634e487b7160e01b600052601260045260246000fd5b500490565b62ffffff828116828216039080821115611b5e57611b5e611ae0565b5092915050565b8082018082111561047e5761047e611ae056fea26469706673582212202714734a07a51ac4686de4923da594c13771f51b46e9006f932b78051a7ce5fe64736f6c63430008140033",
  "linkReferences": {},
  "deployedLinkReferences": {}
}