{
  "_format": "hh-sol-artifact-1",
  "contractName": "TokenWhitelist",
  "sourceName": "contracts/TokenWhitelist.sol",
  "abi": [
    {
      "inputs": [
        {
          "internalType": "address",
          "name": "_owner",
          "type": "address"
        }
      ],
      "stateMutability": "nonpayable",
      "type": "constructor"
    },
    {
      "inputs": [
        {
          "internalType": "address",
          "name": "owner",
          "type": "address"
        }
      ],
      "name": "OwnableInvalidOwner",
      "type": "error"
    },
    {
      "inputs": [
        {
          "internalType": "address",
          "name": "account",
          "type": "address"
        }
      ],
      "name": "OwnableUnauthorizedAccount",
      "type": "error"
    },
    {
      "anonymous": false,
      "inputs": [
        {
          "indexed": true,
          "internalType": "address",
          "name": "previousOwner",
          "type": "address"
        },
        {
          "indexed": true,
          "internalType": "address",
          "name": "newOwner",
          "type": "address"
        }
      ],
      "name": "OwnershipTransferred",
      "type": "event"
    },
    {
      "anonymous": false,
      "inputs": [
        {
          "indexed": true,
          "internalType": "address",
          "name": "token",
          "type": "address"
        }
      ],
      "name": "TokenRemoved",
      "type": "event"
    },
    {
      "anonymous": false,
      "inputs": [
        {
          "indexed": true,
          "internalType": "address",
          "name": "token",
          "type": "address"
        },
        {
          "indexed": false,
          "internalType": "string",
          "name": "name",
          "type": "string"
        },
        {
          "indexed": false,
          "internalType": "string",
          "name": "symbol",
          "type": "string"
        }
      ],
      "name": "TokenUpdated",
      "type": "event"
    },
    {
      "anonymous": false,
      "inputs": [
        {
          "indexed": true,
          "internalType": "address",
          "name": "token",
          "type": "address"
        },
        {
          "indexed": false,
          "internalType": "string",
          "name": "name",
          "type": "string"
        },
        {
          "indexed": false,
          "internalType": "string",
          "name": "symbol",
          "type": "string"
        },
        {
          "indexed": false,
          "internalType": "uint8",
          "name": "decimals",
          "type": "uint8"
        }
      ],
      "name": "TokenWhitelisted",
      "type": "event"
    },
    {
      "inputs": [
        {
          "internalType": "address",
          "name": "token",
          "type": "address"
        },
        {
          "internalType": "string",
          "name": "name",
          "type": "string"
        },
        {
          "internalType": "string",
          "name": "symbol",
          "type": "string"
        },
        {
          "internalType": "uint8",
          "name": "decimals",
          "type": "uint8"
        }
      ],
      "name": "addToken",
      "outputs": [],
      "stateMutability": "nonpayable",
      "type": "function"
    },
    {
      "inputs": [
        {
          "internalType": "address[]",
          "name": "_tokens",
          "type": "address[]"
        },
        {
          "internalType": "string[]",
          "name": "names",
          "type": "string[]"
        },
        {
          "internalType": "string[]",
          "name": "symbols",
          "type": "string[]"
        },
        {
          "internalType": "uint8[]",
          "name": "decimalsArray",
          "type": "uint8[]"
        }
      ],
      "name": "addTokensBatch",
      "outputs": [],
      "stateMutability": "nonpayable",
      "type": "function"
    },
    {
      "inputs": [],
      "name": "getAllTokens",
      "outputs": [
        {
          "internalType": "address[]",
          "name": "",
          "type": "address[]"
        }
      ],
      "stateMutability": "view",
      "type": "function"
    },
    {
      "inputs": [],
      "name": "getTokenCount",
      "outputs": [
        {
          "internalType": "uint256",
          "name": "",
          "type": "uint256"
        }
      ],
      "stateMutability": "view",
      "type": "function"
    },
    {
      "inputs": [
        {
          "internalType": "address",
          "name": "token",
          "type": "address"
        }
      ],
      "name": "getTokenInfo",
      "outputs": [
        {
          "components": [
            {
              "internalType": "bool",
              "name": "isWhitelisted",
              "type": "bool"
            },
            {
              "internalType": "string",
              "name": "name",
              "type": "string"
            },
            {
              "internalType": "string",
              "name": "symbol",
              "type": "string"
            },
            {
              "internalType": "uint8",
              "name": "decimals",
              "type": "uint8"
            },
            {
              "internalType": "uint256",
              "name": "addedAt",
              "type": "uint256"
            }
          ],
          "internalType": "struct TokenWhitelist.TokenInfo",
          "name": "",
          "type": "tuple"
        }
      ],
      "stateMutability": "view",
      "type": "function"
    },
    {
      "inputs": [
        {
          "internalType": "address",
          "name": "token",
          "type": "address"
        }
      ],
      "name": "isWhitelisted",
      "outputs": [
        {
          "internalType": "bool",
          "name": "",
          "type": "bool"
        }
      ],
      "stateMutability": "view",
      "type": "function"
    },
    {
      "inputs": [],
      "name": "owner",
      "outputs": [
        {
          "internalType": "address",
          "name": "",
          "type": "address"
        }
      ],
      "stateMutability": "view",
      "type": "function"
    },
    {
      "inputs": [
        {
          "internalType": "address",
          "name": "token",
          "type": "address"
        }
      ],
      "name": "removeToken",
      "outputs": [],
      "stateMutability": "nonpayable",
      "type": "function"
    },
    {
      "inputs": [],
      "name": "renounceOwnership",
      "outputs": [],
      "stateMutability": "nonpayable",
      "type": "function"
    },
    {
      "inputs": [
        {
          "internalType": "uint256",
          "name": "",
          "type": "uint256"
        }
      ],
      "name": "tokenList",
      "outputs": [
        {
          "internalType": "address",
          "name": "",
          "type": "address"
        }
      ],
      "stateMutability": "view",
      "type": "function"
    },
    {
      "inputs": [
        {
          "internalType": "address",
          "name": "",
          "type": "address"
        }
      ],
      "name": "tokens",
      "outputs": [
        {
          "internalType": "bool",
          "name": "isWhitelisted",
          "type": "bool"
        },
        {
          "internalType": "string",
          "name": "name",
          "type": "string"
        },
        {
          "internalType": "string",
          "name": "symbol",
          "type": "string"
        },
        {
          "internalType": "uint8",
          "name": "decimals",
          "type": "uint8"
        },
        {
          "internalType": "uint256",
          "name": "addedAt",
          "type": "uint256"
        }
      ],
      "stateMutability": "view",
      "type": "function"
    },
    {
      "inputs": [
        {
          "internalType": "address",
          "name": "newOwner",
          "type": "address"
        }
      ],
      "name": "transferOwnership",
      "outputs": [],
      "stateMutability": "nonpayable",
      "type": "function"
    },
    {
      "inputs": [
        {
          "internalType": "address",
          "name": "token",
          "type": "address"
        },
        {
          "internalType": "string",
          "name": "name",
          "type": "string"
        },
        {
          "internalType": "string",
          "name": "symbol",
          "type": "string"
        }
      ],
      "name": "updateTokenInfo",
      "outputs": [],
      "stateMutability": "nonpayable",
      "type": "function"
    }
  ],
  "bytecode": "0x608060405234801561001057600080fd5b506040516200187d3803806200187d833981016040819052610031916100c0565b806001600160a01b03811661006057604051631e4fbdf760e01b81526000600482015260240160405180910390fd5b61006981610070565b50506100f0565b600080546001600160a01b038381166001600160a01b0319831681178455604051919092169283917f8be0079c531659141344cd1fd0a4f28419497f9722a3daafe3b4186f6b6457e09190a35050565b6000602082840312156100d257600080fd5b81516001600160a01b03811681146100e957600080fd5b9392505050565b61177d80620001006000396000f3fe608060405234801561001057600080fd5b50600436106100cf5760003560e01c80638da5cb5b1161008c578063b88e15f211610066578063b88e15f2146101c7578063e2992c96146101da578063e4860339146101ed578063f2fde38b1461021157600080fd5b80638da5cb5b1461017c5780638e404e9c146101a15780639ead7222146101b457600080fd5b80631f69565f146100d45780632a5c792a146100fd5780633af32abf146101125780635fa7b5841461014e578063715018a61461016357806378a895671461016b575b600080fd5b6100e76100e2366004611022565b610224565b6040516100f4919061108a565b60405180910390f35b6101056103cd565b6040516100f491906110f3565b61013e610120366004611022565b6001600160a01b031660009081526001602052604090205460ff1690565b60405190151581526020016100f4565b61016161015c366004611022565b61042f565b005b610161610602565b6002546040519081526020016100f4565b6000546001600160a01b03165b6040516001600160a01b0390911681526020016100f4565b6101616101af3660046111f4565b610616565b6101896101c2366004611279565b6108ba565b6101616101d53660046112de565b6108e4565b6101616101e83660046113a2565b610c5c565b6102006101fb366004611022565b610e03565b6040516100f4959493929190611416565b61016161021f366004611022565b610f4b565b61025b6040518060a001604052806000151581526020016060815260200160608152602001600060ff168152602001600081525090565b6001600160a01b038216600090815260016020818152604092839020835160a08101909452805460ff161515845291820180549184019161029b9061145b565b80601f01602080910402602001604051908101604052809291908181526020018280546102c79061145b565b80156103145780601f106102e957610100808354040283529160200191610314565b820191906000526020600020905b8154815290600101906020018083116102f757829003601f168201915b5050505050815260200160028201805461032d9061145b565b80601f01602080910402602001604051908101604052809291908181526020018280546103599061145b565b80156103a65780601f1061037b576101008083540402835291602001916103a6565b820191906000526020600020905b81548152906001019060200180831161038957829003601f168201915b5050509183525050600382015460ff16602082015260049091015460409091015292915050565b6060600280548060200260200160405190810160405280929190818152602001828054801561042557602002820191906000526020600020905b81546001600160a01b03168152600190910190602001808311610407575b5050505050905090565b610437610f89565b6001600160a01b03811660009081526001602052604090205460ff166104a45760405162461bcd60e51b815260206004820152601f60248201527f546f6b656e57686974656c6973743a206e6f742077686974656c69737465640060448201526064015b60405180910390fd5b6001600160a01b0381166000908152600160205260408120805460ff191690555b6002548110156105ca57816001600160a01b0316600282815481106104ec576104ec611495565b6000918252602090912001546001600160a01b0316036105b85760028054610516906001906114c1565b8154811061052657610526611495565b600091825260209091200154600280546001600160a01b03909216918390811061055257610552611495565b9060005260206000200160006101000a8154816001600160a01b0302191690836001600160a01b031602179055506002805480610591576105916114da565b600082815260209020810160001990810180546001600160a01b03191690550190556105ca565b806105c2816114f0565b9150506104c5565b506040516001600160a01b038216907f4c910b69fe65a61f7531b9c5042b2329ca7179c77290aa7e2eb3afa3c8511fd390600090a250565b61060a610f89565b6106146000610fb6565b565b61061e610f89565b6001600160a01b0384166106745760405162461bcd60e51b815260206004820152601c60248201527f546f6b656e57686974656c6973743a207a65726f206164647265737300000000604482015260640161049b565b6001600160a01b03841660009081526001602052604090205460ff16156106e95760405162461bcd60e51b815260206004820152602360248201527f546f6b656e57686974656c6973743a20616c72656164792077686974656c69736044820152621d195960ea1b606482015260840161049b565b600083511161073a5760405162461bcd60e51b815260206004820152601a60248201527f546f6b656e57686974656c6973743a20656d707479206e616d65000000000000604482015260640161049b565b600082511161078b5760405162461bcd60e51b815260206004820152601c60248201527f546f6b656e57686974656c6973743a20656d7074792073796d626f6c00000000604482015260640161049b565b6040805160a0810182526001808252602080830187815283850187905260ff861660608501524260808501526001600160a01b0389166000908152918390529390208251815460ff19169015151781559251919291908201906107ee9082611558565b50604082015160028201906108039082611558565b50606082015160038201805460ff191660ff909216919091179055608090910151600490910155600280546001810182556000919091527f405787fa12a823e0f2b7631cc41b3ba8828b3321ca811111fa75cd3aa3bb5ace0180546001600160a01b0319166001600160a01b0386169081179091556040517f56958cfd9a34d9ad6540286497fc4e261f9718cc00321cfbfc6565fe381a65d6906108ac90869086908690611618565b60405180910390a250505050565b600281815481106108ca57600080fd5b6000918252602090912001546001600160a01b0316905081565b6108ec610f89565b86851480156108fa57508683145b801561090557508681145b61095f5760405162461bcd60e51b815260206004820152602560248201527f546f6b656e57686974656c6973743a206172726179206c656e677468206d69736044820152640dac2e8c6d60db1b606482015260840161049b565b60005b87811015610c5157600089898381811061097e5761097e611495565b90506020020160208101906109939190611022565b90506001600160a01b03811615806109c357506001600160a01b03811660009081526001602052604090205460ff165b156109ce5750610c3f565b6040518060a001604052806001151581526020018989858181106109f4576109f4611495565b9050602002810190610a069190611651565b8080601f016020809104026020016040519081016040528093929190818152602001838380828437600092019190915250505090825250602001878785818110610a5257610a52611495565b9050602002810190610a649190611651565b8080601f016020809104026020016040519081016040528093929190818152602001838380828437600092019190915250505090825250602001858585818110610ab057610ab0611495565b9050602002016020810190610ac59190611698565b60ff168152426020918201526001600160a01b0383166000908152600180835260409091208351815460ff19169015151781559183015190820190610b0a9082611558565b5060408201516002820190610b1f9082611558565b50606082015160038201805460ff191660ff909216919091179055608090910151600490910155600280546001810182556000919091527f405787fa12a823e0f2b7631cc41b3ba8828b3321ca811111fa75cd3aa3bb5ace0180546001600160a01b0319166001600160a01b0383169081179091557f56958cfd9a34d9ad6540286497fc4e261f9718cc00321cfbfc6565fe381a65d6898985818110610bc757610bc7611495565b9050602002810190610bd99190611651565b898987818110610beb57610beb611495565b9050602002810190610bfd9190611651565b898989818110610c0f57610c0f611495565b9050602002016020810190610c249190611698565b604051610c359594939291906116dc565b60405180910390a2505b80610c49816114f0565b915050610962565b505050505050505050565b610c64610f89565b6001600160a01b03831660009081526001602052604090205460ff16610ccc5760405162461bcd60e51b815260206004820152601f60248201527f546f6b656e57686974656c6973743a206e6f742077686974656c697374656400604482015260640161049b565b6000825111610d1d5760405162461bcd60e51b815260206004820152601a60248201527f546f6b656e57686974656c6973743a20656d707479206e616d65000000000000604482015260640161049b565b6000815111610d6e5760405162461bcd60e51b815260206004820152601c60248201527f546f6b656e57686974656c6973743a20656d7074792073796d626f6c00000000604482015260640161049b565b6001600160a01b038316600090815260016020819052604090912001610d948382611558565b506001600160a01b0383166000908152600160205260409020600201610dba8282611558565b50826001600160a01b03167fb3e1aa3e69f1db38ccdf9ccba25011a57b7c5ae8bfa5b06f5eaba83d8cfbfd398383604051610df6929190611719565b60405180910390a2505050565b60016020819052600091825260409091208054918101805460ff90931692610e2a9061145b565b80601f0160208091040260200160405190810160405280929190818152602001828054610e569061145b565b8015610ea35780601f10610e7857610100808354040283529160200191610ea3565b820191906000526020600020905b815481529060010190602001808311610e8657829003601f168201915b505050505090806002018054610eb89061145b565b80601f0160208091040260200160405190810160405280929190818152602001828054610ee49061145b565b8015610f315780601f10610f0657610100808354040283529160200191610f31565b820191906000526020600020905b815481529060010190602001808311610f1457829003601f168201915b505050506003830154600490930154919260ff1691905085565b610f53610f89565b6001600160a01b038116610f7d57604051631e4fbdf760e01b81526000600482015260240161049b565b610f8681610fb6565b50565b6000546001600160a01b031633146106145760405163118cdaa760e01b815233600482015260240161049b565b600080546001600160a01b038381166001600160a01b0319831681178455604051919092169283917f8be0079c531659141344cd1fd0a4f28419497f9722a3daafe3b4186f6b6457e09190a35050565b80356001600160a01b038116811461101d57600080fd5b919050565b60006020828403121561103457600080fd5b61103d82611006565b9392505050565b6000815180845260005b8181101561106a5760208185018101518683018201520161104e565b506000602082860101526020601f19601f83011685010191505092915050565b602081528151151560208201526000602083015160a060408401526110b260c0840182611044565b90506040840151601f198483030160608501526110cf8282611044565b91505060ff6060850151166080840152608084015160a08401528091505092915050565b6020808252825182820181905260009190848201906040850190845b818110156111345783516001600160a01b03168352928401929184019160010161110f565b50909695505050505050565b634e487b7160e01b600052604160045260246000fd5b600082601f83011261116757600080fd5b813567ffffffffffffffff8082111561118257611182611140565b604051601f8301601f19908116603f011681019082821181831017156111aa576111aa611140565b816040528381528660208588010111156111c357600080fd5b836020870160208301376000602085830101528094505050505092915050565b803560ff8116811461101d57600080fd5b6000806000806080858703121561120a57600080fd5b61121385611006565b9350602085013567ffffffffffffffff8082111561123057600080fd5b61123c88838901611156565b9450604087013591508082111561125257600080fd5b5061125f87828801611156565b92505061126e606086016111e3565b905092959194509250565b60006020828403121561128b57600080fd5b5035919050565b60008083601f8401126112a457600080fd5b50813567ffffffffffffffff8111156112bc57600080fd5b6020830191508360208260051b85010111156112d757600080fd5b9250929050565b6000806000806000806000806080898b0312156112fa57600080fd5b883567ffffffffffffffff8082111561131257600080fd5b61131e8c838d01611292565b909a50985060208b013591508082111561133757600080fd5b6113438c838d01611292565b909850965060408b013591508082111561135c57600080fd5b6113688c838d01611292565b909650945060608b013591508082111561138157600080fd5b5061138e8b828c01611292565b999c989b5096995094979396929594505050565b6000806000606084860312156113b757600080fd5b6113c084611006565b9250602084013567ffffffffffffffff808211156113dd57600080fd5b6113e987838801611156565b935060408601359150808211156113ff57600080fd5b5061140c86828701611156565b9150509250925092565b851515815260a06020820152600061143160a0830187611044565b82810360408401526114438187611044565b60ff9590951660608401525050608001529392505050565b600181811c9082168061146f57607f821691505b60208210810361148f57634e487b7160e01b600052602260045260246000fd5b50919050565b634e487b7160e01b600052603260045260246000fd5b634e487b7160e01b600052601160045260246000fd5b818103818111156114d4576114d46114ab565b92915050565b634e487b7160e01b600052603160045260246000fd5b600060018201611502576115026114ab565b5060010190565b601f82111561155357600081815260208120601f850160051c810160208610156115305750805b601f850160051c820191505b8181101561154f5782815560010161153c565b5050505b505050565b815167ffffffffffffffff81111561157257611572611140565b61158681611580845461145b565b84611509565b602080601f8311600181146115bb57600084156115a35750858301515b600019600386901b1c1916600185901b17855561154f565b600085815260208120601f198616915b828110156115ea578886015182559484019460019091019084016115cb565b50858210156116085787850151600019600388901b60f8161c191681555b5050505050600190811b01905550565b60608152600061162b6060830186611044565b828103602084015261163d8186611044565b91505060ff83166040830152949350505050565b6000808335601e1984360301811261166857600080fd5b83018035915067ffffffffffffffff82111561168357600080fd5b6020019150368190038213156112d757600080fd5b6000602082840312156116aa57600080fd5b61103d826111e3565b81835281816020850137506000828201602090810191909152601f909101601f19169091010190565b6060815260006116f06060830187896116b3565b82810360208401526117038186886116b3565b91505060ff831660408301529695505050505050565b60408152600061172c6040830185611044565b828103602084015261173e8185611044565b9594505050505056fea2646970667358221220b728c6eec7e873733e70234e4c897f784acb4c1246d0c49473b5f8cce4ca79fd64736f6c63430008140033",
  "linkReferences": {},
  "deployedLinkReferences": {}
}