{
  "_format": "hh-sol-artifact-1",
  "contractName": "Vault",
  "sourceName": "contracts/Vault.sol",
  "abi": [
    {
      "inputs": [
        {
          "internalType": "address",
          "name": "_weth",
          "type": "address"
        }
      ],
      "stateMutability": "nonpayable",
      "type": "constructor"
    },
    {
      "inputs": [],
      "name": "ReentrancyGuardReentrantCall",
      "type": "error"
    },
    {
      "anonymous": false,
      "inputs": [
        {
          "indexed": true,
          "internalType": "address",
          "name": "token",
          "type": "address"
        },
        {
          "indexed": true,
          "internalType": "address",
          "name": "from",
          "type": "address"
        },
        {
          "indexed": true,
          "internalType": "address",
          "name": "to",
          "type": "address"
        },
        {
          "indexed": false,
          "internalType": "uint256",
          "name": "amount",
          "type": "uint256"
        }
      ],
      "name": "Deposited",
      "type": "event"
    },
    {
      "anonymous": false,
      "inputs": [
        {
          "indexed": true,
          "internalType": "address",
          "name": "receiver",
          "type": "address"
        },
        {
          "indexed": true,
          "internalType": "address",
          "name": "token",
          "type": "address"
        },
        {
          "indexed": false,
          "internalType": "uint256",
          "name": "amount",
          "type": "uint256"
        },
        {
          "indexed": false,
          "internalType": "uint256",
          "name": "fee",
          "type": "uint256"
        }
      ],
      "name": "FlashLoan",
      "type": "event"
    },
    {
      "anonymous": false,
      "inputs": [
        {
          "indexed": true,
          "internalType": "address",
          "name": "token",
          "type": "address"
        },
        {
          "indexed": true,
          "internalType": "address",
          "name": "from",
          "type": "address"
        },
        {
          "indexed": true,
          "internalType": "address",
          "name": "to",
          "type": "address"
        },
        {
          "indexed": false,
          "internalType": "uint256",
          "name": "amount",
          "type": "uint256"
        }
      ],
      "name": "InternalTransfer",
      "type": "event"
    },
    {
      "anonymous": false,
      "inputs": [
        {
          "indexed": true,
          "internalType": "address",
          "name": "pool",
          "type": "address"
        },
        {
          "indexed": false,
          "internalType": "bool",
          "name": "status",
          "type": "bool"
        }
      ],
      "name": "PoolAuthorized",
      "type": "event"
    },
    {
      "anonymous": false,
      "inputs": [
        {
          "indexed": true,
          "internalType": "address",
          "name": "token",
          "type": "address"
        },
        {
          "indexed": true,
          "internalType": "address",
          "name": "to",
          "type": "address"
        },
        {
          "indexed": false,
          "internalType": "uint256",
          "name": "amount",
          "type": "uint256"
        }
      ],
      "name": "Withdrawn",
      "type": "event"
    },
    {
      "inputs": [],
      "name": "FLASH_LOAN_FEE_BPS",
      "outputs": [
        {
          "internalType": "uint256",
          "name": "",
          "type": "uint256"
        }
      ],
      "stateMutability": "view",
      "type": "function"
    },
    {
      "inputs": [],
      "name": "WETH",
      "outputs": [
        {
          "internalType": "address",
          "name": "",
          "type": "address"
        }
      ],
      "stateMutability": "view",
      "type": "function"
    },
    {
      "inputs": [
        {
          "internalType": "address",
          "name": "pool",
          "type": "address"
        },
        {
          "internalType": "bool",
          "name": "status",
          "type": "bool"
        }
      ],
      "name": "authorizePool",
      "outputs": [],
      "stateMutability": "nonpayable",
      "type": "function"
    },
    {
      "inputs": [
        {
          "internalType": "address",
          "name": "",
          "type": "address"
        }
      ],
      "name": "authorizedPools",
      "outputs": [
        {
          "internalType": "bool",
          "name": "",
          "type": "bool"
        }
      ],
      "stateMutability": "view",
      "type": "function"
    },
    {
      "inputs": [
        {
          "internalType": "address",
          "name": "token",
          "type": "address"
        },
        {
          "internalType": "address",
          "name": "owner",
          "type": "address"
        }
      ],
      "name": "balanceOf",
      "outputs": [
        {
          "internalType": "uint256",
          "name": "",
          "type": "uint256"
        }
      ],
      "stateMutability": "view",
      "type": "function"
    },
    {
      "inputs": [
        {
          "internalType": "address",
          "name": "token",
          "type": "address"
        },
        {
          "internalType": "address",
          "name": "to",
          "type": "address"
        },
        {
          "internalType": "uint256",
          "name": "amount",
          "type": "uint256"
        }
      ],
      "name": "deposit",
      "outputs": [
        {
          "internalType": "uint256",
          "name": "",
          "type": "uint256"
        }
      ],
      "stateMutability": "payable",
      "type": "function"
    },
    {
      "inputs": [
        {
          "internalType": "address",
          "name": "token",
          "type": "address"
        },
        {
          "internalType": "uint256",
          "name": "amount",
          "type": "uint256"
        },
        {
          "internalType": "bytes",
          "name": "params",
          "type": "bytes"
        }
      ],
      "name": "flashLoan",
      "outputs": [],
      "stateMutability": "nonpayable",
      "type": "function"
    },
    {
      "inputs": [],
      "name": "governance",
      "outputs": [
        {
          "internalType": "address",
          "name": "",
          "type": "address"
        }
      ],
      "stateMutability": "view",
      "type": "function"
    },
    {
      "inputs": [
        {
          "internalType": "address",
          "name": "token",
          "type": "address"
        },
        {
          "internalType": "address",
          "name": "from",
          "type": "address"
        },
        {
          "internalType": "address",
          "name": "to",
          "type": "address"
        },
        {
          "internalType": "uint256",
          "name": "amount",
          "type": "uint256"
        }
      ],
      "name": "internalTransfer",
      "outputs": [],
      "stateMutability": "nonpayable",
      "type": "function"
    },
    {
      "inputs": [
        {
          "internalType": "address",
          "name": "token",
          "type": "address"
        }
      ],
      "name": "reserves",
      "outputs": [
        {
          "internalType": "uint256",
          "name": "",
          "type": "uint256"
        }
      ],
      "stateMutability": "view",
      "type": "function"
    },
    {
      "inputs": [
        {
          "internalType": "address",
          "name": "newGovernance",
          "type": "address"
        }
      ],
      "name": "setGovernance",
      "outputs": [],
      "stateMutability": "nonpayable",
      "type": "function"
    },
    {
      "inputs": [
        {
          "internalType": "address",
          "name": "token",
          "type": "address"
        },
        {
          "internalType": "address",
          "name": "to",
          "type": "address"
        },
        {
          "internalType": "uint256",
          "name": "amount",
          "type": "uint256"
        }
      ],
      "name": "withdraw",
      "outputs": [],
      "stateMutability": "nonpayable",
      "type": "function"
    },
    {
      "stateMutability": "payable",
      "type": "receive"
    }
  ],
  "bytecode": "0x60a060405234801561001057600080fd5b5060405161128a38038061128a83398101604081905261002f91610057565b60016000556001600160a01b0316608052600480546001600160a01b03191633179055610087565b60006020828403121561006957600080fd5b81516001600160a01b038116811461008057600080fd5b9392505050565b6080516111da6100b06000396000818161017e0152818161046401526109aa01526111da6000f3fe6080604052600436106100ab5760003560e01c8063c921634411610064578063c9216344146101a0578063d66bd524146101c0578063d9caed12146101f6578063e0232b4214610216578063e816b39314610236578063f7888aec1461027657600080fd5b80633fed1dac146100b757806344a29e2a146100df5780635aa6e675146101015780638340f54914610139578063ab033ea91461014c578063ad5c46481461016c57600080fd5b366100b257005b600080fd5b3480156100c357600080fd5b506100cc600581565b6040519081526020015b60405180910390f35b3480156100eb57600080fd5b506100ff6100fa366004610edc565b610296565b005b34801561010d57600080fd5b50600454610121906001600160a01b031681565b6040516001600160a01b0390911681526020016100d6565b6100cc610147366004610f27565b61041f565b34801561015857600080fd5b506100ff610167366004610f63565b610746565b34801561017857600080fd5b506101217f000000000000000000000000000000000000000000000000000000000000000081565b3480156101ac57600080fd5b506100ff6101bb366004610f8f565b6107e0565b3480156101cc57600080fd5b506100cc6101db366004610f63565b6001600160a01b031660009081526002602052604090205490565b34801561020257600080fd5b506100ff610211366004610f27565b610891565b34801561022257600080fd5b506100ff610231366004610fc6565b610af0565b34801561024257600080fd5b50610266610251366004610f63565b60036020526000908152604090205460ff1681565b60405190151581526020016100d6565b34801561028257600080fd5b506100cc61029136600461104d565b610e69565b61029e610e96565b6001600160a01b038085166000908152600160209081526040808320938716835292905220548111156103185760405162461bcd60e51b815260206004820152601b60248201527f5661756c743a20696e73756666696369656e742062616c616e6365000000000060448201526064015b60405180910390fd5b6001600160a01b03821661033e5760405162461bcd60e51b815260040161030f90611080565b6001600160a01b038085166000908152600160209081526040808320938716835292905290812080548392906103759084906110c3565b90915550506001600160a01b038085166000908152600160209081526040808320938616835292905290812080548392906103b19084906110d6565b92505081905550816001600160a01b0316836001600160a01b0316856001600160a01b03167f77178bcf8f3c991d39734824771477a42787fe19b60d5a29c0ec72de167699b38460405161040791815260200190565b60405180910390a46104196001600055565b50505050565b6000610429610e96565b6001600160a01b03831661044f5760405162461bcd60e51b815260040161030f90611080565b60006001600160a01b038516158061049857507f00000000000000000000000000000000000000000000000000000000000000006001600160a01b0316856001600160a01b0316145b156104e3575034806104de5760405162461bcd60e51b815260206004820152600f60248201526e0acc2ead8e87440f4cae4de408aa89608b1b604482015260640161030f565b610686565b600083116105285760405162461bcd60e51b815260206004820152601260248201527115985d5b1d0e881e995c9bc8185b5bdd5b9d60721b604482015260640161030f565b6040516370a0823160e01b81523060048201526000906001600160a01b038716906370a0823190602401602060405180830381865afa15801561056f573d6000803e3d6000fd5b505050506040513d601f19601f8201168201806040525081019061059391906110e9565b6040516323b872dd60e01b8152336004820152306024820152604481018690529091506001600160a01b038716906323b872dd906064016020604051808303816000875af11580156105e9573d6000803e3d6000fd5b505050506040513d601f19601f8201168201806040525081019061060d9190611102565b506040516370a0823160e01b815230600482015281906001600160a01b038816906370a0823190602401602060405180830381865afa158015610654573d6000803e3d6000fd5b505050506040513d601f19601f8201168201806040525081019061067891906110e9565b61068291906110c3565b9150505b6001600160a01b038086166000908152600160209081526040808320938816835292905290812080548392906106bd9084906110d6565b90915550506001600160a01b038516600090815260026020526040812080548392906106ea9084906110d6565b90915550506040518181526001600160a01b038086169133918816907f4174a9435a04d04d274c76779cad136a41fde6937c56241c09ab9d3c7064a1a99060200160405180910390a4905061073f6001600055565b9392505050565b6004546001600160a01b031633146107985760405162461bcd60e51b81526020600482015260156024820152745661756c743a206e6f7420676f7665726e616e636560581b604482015260640161030f565b6001600160a01b0381166107be5760405162461bcd60e51b815260040161030f90611080565b600480546001600160a01b0319166001600160a01b0392909216919091179055565b6004546001600160a01b031633146108325760405162461bcd60e51b81526020600482015260156024820152745661756c743a206e6f7420676f7665726e616e636560581b604482015260640161030f565b6001600160a01b038216600081815260036020908152604091829020805460ff191685151590811790915591519182527fe36c1c5646056c35ea7cf47929401e11acbbe689ed31e681ae372723ce3621dc910160405180910390a25050565b610899610e96565b6001600160a01b038316600090815260016020908152604080832033845290915290205481111561090c5760405162461bcd60e51b815260206004820152601b60248201527f5661756c743a20696e73756666696369656e742062616c616e63650000000000604482015260640161030f565b6001600160a01b0382166109325760405162461bcd60e51b815260040161030f90611080565b6001600160a01b0383166000908152600160209081526040808320338452909152812080548392906109659084906110c3565b90915550506001600160a01b038316600090815260026020526040812080548392906109929084906110c3565b90915550506001600160a01b03831615806109de57507f00000000000000000000000000000000000000000000000000000000000000006001600160a01b0316836001600160a01b0316145b15610a1f576040516001600160a01b0383169082156108fc029083906000818181858888f19350505050158015610a19573d6000803e3d6000fd5b50610a94565b60405163a9059cbb60e01b81526001600160a01b0383811660048301526024820183905284169063a9059cbb906044016020604051808303816000875af1158015610a6e573d6000803e3d6000fd5b505050506040513d601f19601f82011682018060405250810190610a929190611102565b505b816001600160a01b0316836001600160a01b03167fd1c19fbcd4551a5edfb66d43d2e337c04837afda3482b42bdf569a8fccdae5fb83604051610ad991815260200190565b60405180910390a3610aeb6001600055565b505050565b610af8610e96565b6001600160a01b03841660009081526002602052604090205480841115610b615760405162461bcd60e51b815260206004820152601c60248201527f5661756c743a20696e73756666696369656e7420726573657276657300000000604482015260640161030f565b6000612710610b7160058761111f565b610b7b9190611136565b6040516370a0823160e01b81523060048201529091506000906001600160a01b038816906370a0823190602401602060405180830381865afa158015610bc5573d6000803e3d6000fd5b505050506040513d601f19601f82011682018060405250810190610be991906110e9565b60405163a9059cbb60e01b8152336004820152602481018890529091506001600160a01b0388169063a9059cbb906044016020604051808303816000875af1158015610c39573d6000803e3d6000fd5b505050506040513d601f19601f82011682018060405250810190610c5d9190611102565b50604051631dd0e4ab60e31b8152339063ee87255890610c89908a908a9087908b908b90600401611158565b6020604051808303816000875af1158015610ca8573d6000803e3d6000fd5b505050506040513d601f19601f82011682018060405250810190610ccc9190611102565b610d225760405162461bcd60e51b815260206004820152602160248201527f5661756c743a20666c617368206c6f616e2063616c6c6261636b206661696c656044820152601960fa1b606482015260840161030f565b6040516370a0823160e01b81523060048201526000906001600160a01b038916906370a0823190602401602060405180830381865afa158015610d69573d6000803e3d6000fd5b505050506040513d601f19601f82011682018060405250810190610d8d91906110e9565b9050610d9983836110d6565b811015610de85760405162461bcd60e51b815260206004820152601c60248201527f5661756c743a20666c617368206c6f616e206e6f742072657061696400000000604482015260640161030f565b6001600160a01b03881660009081526002602052604081208054859290610e109084906110d6565b909155505060408051888152602081018590526001600160a01b038a169133917f0d7d75e01ab95780d3cd1c8ec0dd6c2ce19e3a20427eec8bf53283b6fb8e95f0910160405180910390a3505050506104196001600055565b6001600160a01b038083166000908152600160209081526040808320938516835292905220545b92915050565b600260005403610eb957604051633ee5aeb560e01b815260040160405180910390fd5b6002600055565b80356001600160a01b0381168114610ed757600080fd5b919050565b60008060008060808587031215610ef257600080fd5b610efb85610ec0565b9350610f0960208601610ec0565b9250610f1760408601610ec0565b9396929550929360600135925050565b600080600060608486031215610f3c57600080fd5b610f4584610ec0565b9250610f5360208501610ec0565b9150604084013590509250925092565b600060208284031215610f7557600080fd5b61073f82610ec0565b8015158114610f8c57600080fd5b50565b60008060408385031215610fa257600080fd5b610fab83610ec0565b91506020830135610fbb81610f7e565b809150509250929050565b60008060008060608587031215610fdc57600080fd5b610fe585610ec0565b935060208501359250604085013567ffffffffffffffff8082111561100957600080fd5b818701915087601f83011261101d57600080fd5b81358181111561102c57600080fd5b88602082850101111561103e57600080fd5b95989497505060200194505050565b6000806040838503121561106057600080fd5b61106983610ec0565b915061107760208401610ec0565b90509250929050565b6020808252601390820152725661756c743a207a65726f206164647265737360681b604082015260600190565b634e487b7160e01b600052601160045260246000fd5b81810381811115610e9057610e906110ad565b80820180821115610e9057610e906110ad565b6000602082840312156110fb57600080fd5b5051919050565b60006020828403121561111457600080fd5b815161073f81610f7e565b8082028115828204841417610e9057610e906110ad565b60008261115357634e487b7160e01b600052601260045260246000fd5b500490565b60018060a01b038616815284602082015283604082015260806060820152816080820152818360a0830137600081830160a090810191909152601f909201601f1916010194935050505056fea2646970667358221220e536b0c49b870aa3ae22656e556a8f225c35c9d2f73312f17a4bf601b673262364736f6c63430008140033",
  "linkReferences": {},
  "deployedLinkReferences": {}
}