{
  "_format": "hh-sol-artifact-1",
  "contractName": "Router",
  "sourceName": "contracts/Router.sol",
  "abi": [
    {
      "inputs": [
        {
          "internalType": "address",
          "name": "_vault",
          "type": "address"
        },
        {
          "internalType": "address",
          "name": "_factory",
          "type": "address"
        },
        {
          "internalType": "address",
          "name": "_weth",
          "type": "address"
        }
      ],
      "stateMutability": "nonpayable",
      "type": "constructor"
    },
    {
      "inputs": [],
      "name": "ReentrancyGuardReentrantCall",
      "type": "error"
    },
    {
      "anonymous": false,
      "inputs": [
        {
          "indexed": true,
          "internalType": "address",
          "name": "user",
          "type": "address"
        },
        {
          "indexed": true,
          "internalType": "address",
          "name": "pool",
          "type": "address"
        },
        {
          "indexed": false,
          "internalType": "uint256",
          "name": "amount0",
          "type": "uint256"
        },
        {
          "indexed": false,
          "internalType": "uint256",
          "name": "amount1",
          "type": "uint256"
        },
        {
          "indexed": false,
          "internalType": "uint256",
          "name": "liquidity",
          "type": "uint256"
        }
      ],
      "name": "LiquidityAdded",
      "type": "event"
    },
    {
      "anonymous": false,
      "inputs": [
        {
          "indexed": true,
          "internalType": "address",
          "name": "user",
          "type": "address"
        },
        {
          "indexed": true,
          "internalType": "address",
          "name": "pool",
          "type": "address"
        },
        {
          "indexed": false,
          "internalType": "address",
          "name": "tokenIn",
          "type": "address"
        },
        {
          "indexed": false,
          "internalType": "address",
          "name": "tokenOut",
          "type": "address"
        },
        {
          "indexed": false,
          "internalType": "uint256",
          "name": "amountIn",
          "type": "uint256"
        },
        {
          "indexed": false,
          "internalType": "uint256",
          "name": "amountOut",
          "type": "uint256"
        },
        {
          "indexed": false,
          "internalType": "address",
          "name": "to",
          "type": "address"
        }
      ],
      "name": "SwapExecuted",
      "type": "event"
    },
    {
      "inputs": [],
      "name": "WETH",
      "outputs": [
        {
          "internalType": "address",
          "name": "",
          "type": "address"
        }
      ],
      "stateMutability": "view",
      "type": "function"
    },
    {
      "inputs": [
        {
          "internalType": "address",
          "name": "tokenA",
          "type": "address"
        },
        {
          "internalType": "address",
          "name": "tokenB",
          "type": "address"
        },
        {
          "internalType": "uint256",
          "name": "amountADesired",
          "type": "uint256"
        },
        {
          "internalType": "uint256",
          "name": "amountBDesired",
          "type": "uint256"
        },
        {
          "internalType": "uint256",
          "name": "amountAMin",
          "type": "uint256"
        },
        {
          "internalType": "uint256",
          "name": "amountBMin",
          "type": "uint256"
        },
        {
          "internalType": "address",
          "name": "to",
          "type": "address"
        },
        {
          "internalType": "uint256",
          "name": "deadline",
          "type": "uint256"
        }
      ],
      "name": "addLiquidity",
      "outputs": [
        {
          "internalType": "uint256",
          "name": "amountA",
          "type": "uint256"
        },
        {
          "internalType": "uint256",
          "name": "amountB",
          "type": "uint256"
        },
        {
          "internalType": "uint256",
          "name": "liquidity",
          "type": "uint256"
        }
      ],
      "stateMutability": "nonpayable",
      "type": "function"
    },
    {
      "inputs": [],
      "name": "factory",
      "outputs": [
        {
          "internalType": "contract IPoolFactory",
          "name": "",
          "type": "address"
        }
      ],
      "stateMutability": "view",
      "type": "function"
    },
    {
      "inputs": [
        {
          "internalType": "uint256",
          "name": "amountIn",
          "type": "uint256"
        },
        {
          "internalType": "address[]",
          "name": "path",
          "type": "address[]"
        }
      ],
      "name": "getAmountOut",
      "outputs": [
        {
          "internalType": "uint256[]",
          "name": "amounts",
          "type": "uint256[]"
        }
      ],
      "stateMutability": "view",
      "type": "function"
    },
    {
      "inputs": [
        {
          "internalType": "uint256",
          "name": "amountOutMin",
          "type": "uint256"
        },
        {
          "internalType": "address[]",
          "name": "path",
          "type": "address[]"
        },
        {
          "internalType": "address",
          "name": "to",
          "type": "address"
        },
        {
          "internalType": "uint256",
          "name": "deadline",
          "type": "uint256"
        }
      ],
      "name": "swapExactETHForTokens",
      "outputs": [
        {
          "internalType": "uint256[]",
          "name": "amounts",
          "type": "uint256[]"
        }
      ],
      "stateMutability": "payable",
      "type": "function"
    },
    {
      "inputs": [
        {
          "internalType": "uint256",
          "name": "amountIn",
          "type": "uint256"
        },
        {
          "internalType": "uint256",
          "name": "amountOutMin",
          "type": "uint256"
        },
        {
          "internalType": "address[]",
          "name": "path",
          "type": "address[]"
        },
        {
          "internalType": "address",
          "name": "to",
          "type": "address"
        },
        {
          "internalType": "uint256",
          "name": "deadline",
          "type": "uint256"
        }
      ],
      "name": "swapExactTokensForTokens",
      "outputs": [
        {
          "internalType": "uint256[]",
          "name": "amounts",
          "type": "uint256[]"
        }
      ],
      "stateMutability": "nonpayable",
      "type": "function"
    },
    {
      "inputs": [],
      "name": "vault",
      "outputs": [
        {
          "internalType": "contract IVault",
          "name": "",
          "type": "address"
        }
      ],
      "stateMutability": "view",
      "type": "function"
    },
    {
      "stateMutability": "payable",
      "type": "receive"
    }
  ],
  "bytecode": "0x60e06040523480156200001157600080fd5b506040516200203638038062002036833981016040819052620000349162000169565b60016000556001600160a01b0383166200008a5760405162461bcd60e51b8152602060048201526012602482015271149bdd5d195c8e881e995c9bc81d985d5b1d60721b60448201526064015b60405180910390fd5b6001600160a01b038216620000e25760405162461bcd60e51b815260206004820152601460248201527f526f757465723a207a65726f20666163746f7279000000000000000000000000604482015260640162000081565b6001600160a01b0381166200012e5760405162461bcd60e51b81526020600482015260116024820152700a4deeae8cae47440f4cae4de40eecae8d607b1b604482015260640162000081565b6001600160a01b0392831660805290821660a0521660c052620001b3565b80516001600160a01b03811681146200016457600080fd5b919050565b6000806000606084860312156200017f57600080fd5b6200018a846200014c565b92506200019a602085016200014c565b9150620001aa604085016200014c565b90509250925092565b60805160a05160c051611de4620002526000396000818160840152818161014b01528181610a6d0152610bda0152600081816101b7015281816105730152818161082f01528181610c6401528181610f20015281816111b0015261142801526000818161022601528181610420015281816104a101528181610bab015281816115cf01528181611663015281816116e2015261178b0152611de46000f3fe6080604052600436106100745760003560e01c8063b8239ebb1161004e578063b8239ebb14610185578063c45a0155146101a5578063e8e33700146101d9578063fbfa77cf1461021457600080fd5b806338ed1739146100f05780637ff36ab514610126578063ad5c46481461013957600080fd5b366100eb57336001600160a01b037f000000000000000000000000000000000000000000000000000000000000000016146100e95760405162461bcd60e51b815260206004820152601060248201526f0a4deeae8cae47440dcdee840ae8aa8960831b60448201526064015b60405180910390fd5b005b600080fd5b3480156100fc57600080fd5b5061011061010b366004611a1a565b610248565b60405161011d9190611a8d565b60405180910390f35b610110610134366004611ad1565b610a1f565b34801561014557600080fd5b5061016d7f000000000000000000000000000000000000000000000000000000000000000081565b6040516001600160a01b03909116815260200161011d565b34801561019157600080fd5b506101106101a0366004611b38565b61110f565b3480156101b157600080fd5b5061016d7f000000000000000000000000000000000000000000000000000000000000000081565b3480156101e557600080fd5b506101f96101f4366004611b84565b6113d0565b6040805193845260208401929092529082015260600161011d565b34801561022057600080fd5b5061016d7f000000000000000000000000000000000000000000000000000000000000000081565b6060814281101561026b5760405162461bcd60e51b81526004016100e090611c00565b6102736118df565b60028510156102945760405162461bcd60e51b81526004016100e090611c29565b6001600160a01b0384166102e15760405162461bcd60e51b8152602060048201526014602482015273526f757465723a207a65726f206164647265737360601b60448201526064016100e0565b8467ffffffffffffffff8111156102fa576102fa611c57565b604051908082528060200260200182016040528015610323578160200160208202803683370190505b509150878260008151811061033a5761033a611c6d565b6020026020010181815250508585600081811061035957610359611c6d565b905060200201602081019061036e9190611c83565b6001600160a01b03166323b872dd33308b6040518463ffffffff1660e01b815260040161039d93929190611ca7565b6020604051808303816000875af11580156103bc573d6000803e3d6000fd5b505050506040513d601f19601f820116820180604052508101906103e09190611ccb565b50858560008181106103f4576103f4611c6d565b90506020020160208101906104099190611c83565b60405163095ea7b360e01b81526001600160a01b037f000000000000000000000000000000000000000000000000000000000000000081166004830152602482018b9052919091169063095ea7b3906044016020604051808303816000875af115801561047a573d6000803e3d6000fd5b505050506040513d601f19601f8201168201806040525081019061049e9190611ccb565b507f00000000000000000000000000000000000000000000000000000000000000006001600160a01b0316638340f549878760008181106104e1576104e1611c6d565b90506020020160208101906104f69190611c83565b338b6040518463ffffffff1660e01b815260040161051693929190611ca7565b6020604051808303816000875af1158015610535573d6000803e3d6000fd5b505050506040513d601f19601f820116820180604052508101906105599190611ced565b5060005b610568600187611d1c565b8110156107b65760007f00000000000000000000000000000000000000000000000000000000000000006001600160a01b031663531aa03e8989858181106105b2576105b2611c6d565b90506020020160208101906105c79190611c83565b8a8a6105d4876001611d35565b8181106105e3576105e3611c6d565b90506020020160208101906105f89190611c83565b6040516001600160e01b031960e085901b1681526001600160a01b03928316600482015291166024820152604401602060405180830381865afa158015610643573d6000803e3d6000fd5b505050506040513d601f19601f820116820180604052508101906106679190611d48565b90506001600160a01b03811661068f5760405162461bcd60e51b81526004016100e090611d65565b6000816001600160a01b0316631800c11a8a8a868181106106b2576106b2611c6d565b90506020020160208101906106c79190611c83565b6106d260028c611d1c565b86146106de57336106e0565b895b6106eb60028d611d1c565b87146106f85760006106fb565b60015b6040516001600160e01b031960e086901b1681526001600160a01b03938416600482015292909116602483015260ff1660448201526064016020604051808303816000875af1158015610752573d6000803e3d6000fd5b505050506040513d601f19601f820116820180604052508101906107769190611ced565b90508085610785856001611d35565b8151811061079557610795611c6d565b602002602001018181525050505080806107ae90611d95565b91505061055d565b508682600184516107c79190611d1c565b815181106107d7576107d7611c6d565b6020026020010151101561082d5760405162461bcd60e51b815260206004820152601b60248201527f526f757465723a20696e73756666696369656e74206f7574707574000000000060448201526064016100e0565b7f00000000000000000000000000000000000000000000000000000000000000006001600160a01b031663531aa03e8787600081811061086f5761086f611c6d565b90506020020160208101906108849190611c83565b8888600181811061089757610897611c6d565b90506020020160208101906108ac9190611c83565b6040516001600160e01b031960e085901b1681526001600160a01b03928316600482015291166024820152604401602060405180830381865afa1580156108f7573d6000803e3d6000fd5b505050506040513d601f19601f8201168201806040525081019061091b9190611d48565b6001600160a01b0316337fe90a90b0b0c8313457ea589ce6bdeda270d8a9aa2e9eb31dfe64603052f547d9888860008161095757610957611c6d565b905060200201602081019061096c9190611c83565b8989610979600182611d1c565b81811061098857610988611c6d565b905060200201602081019061099d9190611c83565b8c87600189516109ad9190611d1c565b815181106109bd576109bd611c6d565b60200260200101518a604051610a029594939291906001600160a01b039586168152938516602085015260408401929092526060830152909116608082015260a00190565b60405180910390a3610a146001600055565b509695505050505050565b60608142811015610a425760405162461bcd60e51b81526004016100e090611c00565b610a4a6118df565b6002851015610a6b5760405162461bcd60e51b81526004016100e090611c29565b7f00000000000000000000000000000000000000000000000000000000000000006001600160a01b031686866000818110610aa857610aa8611c6d565b9050602002016020810190610abd9190611c83565b6001600160a01b031614610ae35760405162461bcd60e51b81526004016100e090611c29565b6001600160a01b038416610b305760405162461bcd60e51b8152602060048201526014602482015273526f757465723a207a65726f206164647265737360601b60448201526064016100e0565b8467ffffffffffffffff811115610b4957610b49611c57565b604051908082528060200260200182016040528015610b72578160200160208202803683370190505b5091503482600081518110610b8957610b89611c6d565b6020908102919091010152604051638340f54960e01b81526001600160a01b037f00000000000000000000000000000000000000000000000000000000000000001690638340f549903490610c07907f0000000000000000000000000000000000000000000000000000000000000000903390600090600401611ca7565b60206040518083038185885af1158015610c25573d6000803e3d6000fd5b50505050506040513d601f19601f82011682018060405250810190610c4a9190611ced565b5060005b610c59600187611d1c565b811015610ea75760007f00000000000000000000000000000000000000000000000000000000000000006001600160a01b031663531aa03e898985818110610ca357610ca3611c6d565b9050602002016020810190610cb89190611c83565b8a8a610cc5876001611d35565b818110610cd457610cd4611c6d565b9050602002016020810190610ce99190611c83565b6040516001600160e01b031960e085901b1681526001600160a01b03928316600482015291166024820152604401602060405180830381865afa158015610d34573d6000803e3d6000fd5b505050506040513d601f19601f82011682018060405250810190610d589190611d48565b90506001600160a01b038116610d805760405162461bcd60e51b81526004016100e090611d65565b6000816001600160a01b0316631800c11a8a8a86818110610da357610da3611c6d565b9050602002016020810190610db89190611c83565b610dc360028c611d1c565b8614610dcf5733610dd1565b895b610ddc60028d611d1c565b8714610de9576000610dec565b60015b6040516001600160e01b031960e086901b1681526001600160a01b03938416600482015292909116602483015260ff1660448201526064016020604051808303816000875af1158015610e43573d6000803e3d6000fd5b505050506040513d601f19601f82011682018060405250810190610e679190611ced565b90508085610e76856001611d35565b81518110610e8657610e86611c6d565b60200260200101818152505050508080610e9f90611d95565b915050610c4e565b50868260018451610eb89190611d1c565b81518110610ec857610ec8611c6d565b60200260200101511015610f1e5760405162461bcd60e51b815260206004820152601b60248201527f526f757465723a20696e73756666696369656e74206f7574707574000000000060448201526064016100e0565b7f00000000000000000000000000000000000000000000000000000000000000006001600160a01b031663531aa03e87876000818110610f6057610f60611c6d565b9050602002016020810190610f759190611c83565b88886001818110610f8857610f88611c6d565b9050602002016020810190610f9d9190611c83565b6040516001600160e01b031960e085901b1681526001600160a01b03928316600482015291166024820152604401602060405180830381865afa158015610fe8573d6000803e3d6000fd5b505050506040513d601f19601f8201168201806040525081019061100c9190611d48565b6001600160a01b0316337fe90a90b0b0c8313457ea589ce6bdeda270d8a9aa2e9eb31dfe64603052f547d9888860008161104857611048611c6d565b905060200201602081019061105d9190611c83565b898961106a600182611d1c565b81811061107957611079611c6d565b905060200201602081019061108e9190611c83565b34876001895161109e9190611d1c565b815181106110ae576110ae611c6d565b60200260200101518a6040516110f39594939291906001600160a01b039586168152938516602085015260408401929092526060830152909116608082015260a00190565b60405180910390a36111056001600055565b5095945050505050565b606060028210156111325760405162461bcd60e51b81526004016100e090611c29565b8167ffffffffffffffff81111561114b5761114b611c57565b604051908082528060200260200182016040528015611174578160200160208202803683370190505b509050838160008151811061118b5761118b611c6d565b60200260200101818152505060005b6111a5600184611d1c565b8110156113c85760007f00000000000000000000000000000000000000000000000000000000000000006001600160a01b031663531aa03e8686858181106111ef576111ef611c6d565b90506020020160208101906112049190611c83565b8787611211876001611d35565b81811061122057611220611c6d565b90506020020160208101906112359190611c83565b6040516001600160e01b031960e085901b1681526001600160a01b03928316600482015291166024820152604401602060405180830381865afa158015611280573d6000803e3d6000fd5b505050506040513d601f19601f820116820180604052508101906112a49190611d48565b90506001600160a01b0381166112cc5760405162461bcd60e51b81526004016100e090611d65565b806001600160a01b031663ca706bcf8686858181106112ed576112ed611c6d565b90506020020160208101906113029190611c83565b85858151811061131457611314611c6d565b60200260200101516040518363ffffffff1660e01b815260040161134d9291906001600160a01b03929092168252602082015260400190565b602060405180830381865afa15801561136a573d6000803e3d6000fd5b505050506040513d601f19601f8201168201806040525081019061138e9190611ced565b8361139a846001611d35565b815181106113aa576113aa611c6d565b602090810291909101015250806113c081611d95565b91505061119a565b509392505050565b600080600083428110156113f65760405162461bcd60e51b81526004016100e090611c00565b6113fe6118df565b60405163298d501f60e11b81526001600160a01b038d811660048301528c811660248301526000917f00000000000000000000000000000000000000000000000000000000000000009091169063531aa03e90604401602060405180830381865afa158015611471573d6000803e3d6000fd5b505050506040513d601f19601f820116820180604052508101906114959190611d48565b90506001600160a01b0381166114bd5760405162461bcd60e51b81526004016100e090611d65565b6114cb8d8d8d8d8d8d611909565b6040516323b872dd60e01b815291965094506001600160a01b038e16906323b872dd9061150090339030908a90600401611ca7565b6020604051808303816000875af115801561151f573d6000803e3d6000fd5b505050506040513d601f19601f820116820180604052508101906115439190611ccb565b506040516323b872dd60e01b81526001600160a01b038d16906323b872dd9061157490339030908990600401611ca7565b6020604051808303816000875af1158015611593573d6000803e3d6000fd5b505050506040513d601f19601f820116820180604052508101906115b79190611ccb565b5060405163095ea7b360e01b81526001600160a01b037f000000000000000000000000000000000000000000000000000000000000000081166004830152602482018790528e169063095ea7b3906044016020604051808303816000875af1158015611627573d6000803e3d6000fd5b505050506040513d601f19601f8201168201806040525081019061164b9190611ccb565b5060405163095ea7b360e01b81526001600160a01b037f000000000000000000000000000000000000000000000000000000000000000081166004830152602482018690528d169063095ea7b3906044016020604051808303816000875af11580156116bb573d6000803e3d6000fd5b505050506040513d601f19601f820116820180604052508101906116df9190611ccb565b507f00000000000000000000000000000000000000000000000000000000000000006001600160a01b0316638340f5498e83886040518463ffffffff1660e01b815260040161173093929190611ca7565b6020604051808303816000875af115801561174f573d6000803e3d6000fd5b505050506040513d601f19601f820116820180604052508101906117739190611ced565b50604051638340f54960e01b81526001600160a01b037f00000000000000000000000000000000000000000000000000000000000000001690638340f549906117c4908f9085908990600401611ca7565b6020604051808303816000875af11580156117e3573d6000803e3d6000fd5b505050506040513d601f19601f820116820180604052508101906118079190611ced565b506040516335313c2160e11b81526001600160a01b038881166004830152821690636a627842906024016020604051808303816000875af1158015611850573d6000803e3d6000fd5b505050506040513d601f19601f820116820180604052508101906118749190611ced565b60408051878152602081018790529081018290529093506001600160a01b0382169033907f4a1a2a6176e9646d9e3157f7c2ab3c499f18337c0b0828cfb28e0a61de4a11f79060600160405180910390a3506118d06001600055565b50985098509895505050505050565b60026000540361190257604051633ee5aeb560e01b815260040160405180910390fd5b6002600055565b83838382101561195b5760405162461bcd60e51b815260206004820152601d60248201527f526f757465723a20696e73756666696369656e74204120616d6f756e7400000060448201526064016100e0565b828110156119ab5760405162461bcd60e51b815260206004820152601d60248201527f526f757465723a20696e73756666696369656e74204220616d6f756e7400000060448201526064016100e0565b965096945050505050565b60008083601f8401126119c857600080fd5b50813567ffffffffffffffff8111156119e057600080fd5b6020830191508360208260051b85010111156119fb57600080fd5b9250929050565b6001600160a01b0381168114611a1757600080fd5b50565b60008060008060008060a08789031215611a3357600080fd5b8635955060208701359450604087013567ffffffffffffffff811115611a5857600080fd5b611a6489828a016119b6565b9095509350506060870135611a7881611a02565b80925050608087013590509295509295509295565b6020808252825182820181905260009190848201906040850190845b81811015611ac557835183529284019291840191600101611aa9565b50909695505050505050565b600080600080600060808688031215611ae957600080fd5b85359450602086013567ffffffffffffffff811115611b0757600080fd5b611b13888289016119b6565b9095509350506040860135611b2781611a02565b949793965091946060013592915050565b600080600060408486031215611b4d57600080fd5b83359250602084013567ffffffffffffffff811115611b6b57600080fd5b611b77868287016119b6565b9497909650939450505050565b600080600080600080600080610100898b031215611ba157600080fd5b8835611bac81611a02565b97506020890135611bbc81611a02565b965060408901359550606089013594506080890135935060a0890135925060c0890135611be881611a02565b8092505060e089013590509295985092959890939650565b6020808252600f908201526e149bdd5d195c8e88195e1c1a5c9959608a1b604082015260600190565b6020808252601490820152730a4deeae8cae47440d2dcecc2d8d2c840e0c2e8d60631b604082015260600190565b634e487b7160e01b600052604160045260246000fd5b634e487b7160e01b600052603260045260246000fd5b600060208284031215611c9557600080fd5b8135611ca081611a02565b9392505050565b6001600160a01b039384168152919092166020820152604081019190915260600190565b600060208284031215611cdd57600080fd5b81518015158114611ca057600080fd5b600060208284031215611cff57600080fd5b5051919050565b634e487b7160e01b600052601160045260246000fd5b81810381811115611d2f57611d2f611d06565b92915050565b80820180821115611d2f57611d2f611d06565b600060208284031215611d5a57600080fd5b8151611ca081611a02565b602080825260169082015275149bdd5d195c8e881c1bdbdb081b9bdd08199bdd5b9960521b604082015260600190565b600060018201611da757611da7611d06565b506001019056fea2646970667358221220d942ab8e26dfaecaa4bbd29ae4d82268d2c6696fb1e9281b589c3ca69c46a16a64736f6c63430008140033",
  "linkReferences": {},
  "deployedLinkReferences": {}
}