{
  "_format": "hh-sol-artifact-1",
  "contractName": "DEXCore",
  "sourceName": "contracts/DEXCore.sol",
  "abi": [
    {
      "inputs": [
        {
          "internalType": "address",
          "name": "_whitelist",
          "type": "address"
        },
        {
          "internalType": "address",
          "name": "_owner",
          "type": "address"
        }
      ],
      "stateMutability": "nonpayable",
      "type": "constructor"
    },
    {
      "inputs": [],
      "name": "EnforcedPause",
      "type": "error"
    },
    {
      "inputs": [],
      "name": "ExpectedPause",
      "type": "error"
    },
    {
      "inputs": [
        {
          "internalType": "address",
          "name": "owner",
          "type": "address"
        }
      ],
      "name": "OwnableInvalidOwner",
      "type": "error"
    },
    {
      "inputs": [
        {
          "internalType": "address",
          "name": "account",
          "type": "address"
        }
      ],
      "name": "OwnableUnauthorizedAccount",
      "type": "error"
    },
    {
      "inputs": [],
      "name": "ReentrancyGuardReentrantCall",
      "type": "error"
    },
    {
      "inputs": [
        {
          "internalType": "address",
          "name": "token",
          "type": "address"
        }
      ],
      "name": "SafeERC20FailedOperation",
      "type": "error"
    },
    {
      "anonymous": false,
      "inputs": [
        {
          "indexed": true,
          "internalType": "bytes32",
          "name": "poolId",
          "type": "bytes32"
        },
        {
          "indexed": true,
          "internalType": "address",
          "name": "provider",
          "type": "address"
        },
        {
          "indexed": false,
          "internalType": "uint256",
          "name": "amountA",
          "type": "uint256"
        },
        {
          "indexed": false,
          "internalType": "uint256",
          "name": "amountB",
          "type": "uint256"
        },
        {
          "indexed": false,
          "internalType": "uint256",
          "name": "liquidity",
          "type": "uint256"
        }
      ],
      "name": "LiquidityAdded",
      "type": "event"
    },
    {
      "anonymous": false,
      "inputs": [
        {
          "indexed": true,
          "internalType": "bytes32",
          "name": "poolId",
          "type": "bytes32"
        },
        {
          "indexed": true,
          "internalType": "address",
          "name": "provider",
          "type": "address"
        },
        {
          "indexed": false,
          "internalType": "uint256",
          "name": "amountA",
          "type": "uint256"
        },
        {
          "indexed": false,
          "internalType": "uint256",
          "name": "amountB",
          "type": "uint256"
        },
        {
          "indexed": false,
          "internalType": "uint256",
          "name": "liquidity",
          "type": "uint256"
        }
      ],
      "name": "LiquidityRemoved",
      "type": "event"
    },
    {
      "anonymous": false,
      "inputs": [
        {
          "indexed": true,
          "internalType": "address",
          "name": "previousOwner",
          "type": "address"
        },
        {
          "indexed": true,
          "internalType": "address",
          "name": "newOwner",
          "type": "address"
        }
      ],
      "name": "OwnershipTransferred",
      "type": "event"
    },
    {
      "anonymous": false,
      "inputs": [
        {
          "indexed": false,
          "internalType": "address",
          "name": "account",
          "type": "address"
        }
      ],
      "name": "Paused",
      "type": "event"
    },
    {
      "anonymous": false,
      "inputs": [
        {
          "indexed": true,
          "internalType": "bytes32",
          "name": "poolId",
          "type": "bytes32"
        },
        {
          "indexed": true,
          "internalType": "address",
          "name": "tokenA",
          "type": "address"
        },
        {
          "indexed": true,
          "internalType": "address",
          "name": "tokenB",
          "type": "address"
        },
        {
          "indexed": false,
          "internalType": "address",
          "name": "lpToken",
          "type": "address"
        }
      ],
      "name": "PoolCreated",
      "type": "event"
    },
    {
      "anonymous": false,
      "inputs": [
        {
          "indexed": true,
          "internalType": "bytes32",
          "name": "poolId",
          "type": "bytes32"
        },
        {
          "indexed": true,
          "internalType": "address",
          "name": "trader",
          "type": "address"
        },
        {
          "indexed": false,
          "internalType": "address",
          "name": "tokenIn",
          "type": "address"
        },
        {
          "indexed": false,
          "internalType": "address",
          "name": "tokenOut",
          "type": "address"
        },
        {
          "indexed": false,
          "internalType": "uint256",
          "name": "amountIn",
          "type": "uint256"
        },
        {
          "indexed": false,
          "internalType": "uint256",
          "name": "amountOut",
          "type": "uint256"
        }
      ],
      "name": "Swap",
      "type": "event"
    },
    {
      "anonymous": false,
      "inputs": [
        {
          "indexed": false,
          "internalType": "uint256",
          "name": "oldFee",
          "type": "uint256"
        },
        {
          "indexed": false,
          "internalType": "uint256",
          "name": "newFee",
          "type": "uint256"
        }
      ],
      "name": "SwapFeeUpdated",
      "type": "event"
    },
    {
      "anonymous": false,
      "inputs": [
        {
          "indexed": false,
          "internalType": "address",
          "name": "account",
          "type": "address"
        }
      ],
      "name": "Unpaused",
      "type": "event"
    },
    {
      "inputs": [],
      "name": "FEE_DENOMINATOR",
      "outputs": [
        {
          "internalType": "uint256",
          "name": "",
          "type": "uint256"
        }
      ],
      "stateMutability": "view",
      "type": "function"
    },
    {
      "inputs": [],
      "name": "MAX_SWAP_FEE",
      "outputs": [
        {
          "internalType": "uint256",
          "name": "",
          "type": "uint256"
        }
      ],
      "stateMutability": "view",
      "type": "function"
    },
    {
      "inputs": [],
      "name": "MINIMUM_LIQUIDITY",
      "outputs": [
        {
          "internalType": "uint256",
          "name": "",
          "type": "uint256"
        }
      ],
      "stateMutability": "view",
      "type": "function"
    },
    {
      "inputs": [
        {
          "internalType": "address",
          "name": "tokenA",
          "type": "address"
        },
        {
          "internalType": "address",
          "name": "tokenB",
          "type": "address"
        },
        {
          "internalType": "uint256",
          "name": "amountA",
          "type": "uint256"
        },
        {
          "internalType": "uint256",
          "name": "amountB",
          "type": "uint256"
        },
        {
          "internalType": "uint256",
          "name": "minLiquidity",
          "type": "uint256"
        }
      ],
      "name": "addLiquidity",
      "outputs": [
        {
          "internalType": "uint256",
          "name": "liquidity",
          "type": "uint256"
        }
      ],
      "stateMutability": "nonpayable",
      "type": "function"
    },
    {
      "inputs": [
        {
          "internalType": "address",
          "name": "tokenA",
          "type": "address"
        },
        {
          "internalType": "address",
          "name": "tokenB",
          "type": "address"
        }
      ],
      "name": "createPool",
      "outputs": [
        {
          "internalType": "bytes32",
          "name": "",
          "type": "bytes32"
        }
      ],
      "stateMutability": "nonpayable",
      "type": "function"
    },
    {
      "inputs": [],
      "name": "getAllPoolIds",
      "outputs": [
        {
          "internalType": "bytes32[]",
          "name": "",
          "type": "bytes32[]"
        }
      ],
      "stateMutability": "view",
      "type": "function"
    },
    {
      "inputs": [
        {
          "internalType": "address",
          "name": "tokenIn",
          "type": "address"
        },
        {
          "internalType": "address",
          "name": "tokenOut",
          "type": "address"
        },
        {
          "internalType": "uint256",
          "name": "amountIn",
          "type": "uint256"
        }
      ],
      "name": "getAmountOut",
      "outputs": [
        {
          "internalType": "uint256",
          "name": "amountOut",
          "type": "uint256"
        }
      ],
      "stateMutability": "view",
      "type": "function"
    },
    {
      "inputs": [
        {
          "internalType": "address",
          "name": "tokenA",
          "type": "address"
        },
        {
          "internalType": "address",
          "name": "tokenB",
          "type": "address"
        }
      ],
      "name": "getPool",
      "outputs": [
        {
          "components": [
            {
              "internalType": "address",
              "name": "tokenA",
              "type": "address"
            },
            {
              "internalType": "address",
              "name": "tokenB",
              "type": "address"
            },
            {
              "internalType": "uint256",
              "name": "reserveA",
              "type": "uint256"
            },
            {
              "internalType": "uint256",
              "name": "reserveB",
              "type": "uint256"
            },
            {
              "internalType": "address",
              "name": "lpToken",
              "type": "address"
            },
            {
              "internalType": "uint256",
              "name": "totalLiquidity",
              "type": "uint256"
            },
            {
              "internalType": "bool",
              "name": "exists",
              "type": "bool"
            }
          ],
          "internalType": "struct DEXCore.Pool",
          "name": "",
          "type": "tuple"
        }
      ],
      "stateMutability": "view",
      "type": "function"
    },
    {
      "inputs": [],
      "name": "getPoolCount",
      "outputs": [
        {
          "internalType": "uint256",
          "name": "",
          "type": "uint256"
        }
      ],
      "stateMutability": "view",
      "type": "function"
    },
    {
      "inputs": [
        {
          "internalType": "address",
          "name": "tokenA",
          "type": "address"
        },
        {
          "internalType": "address",
          "name": "tokenB",
          "type": "address"
        }
      ],
      "name": "getPoolId",
      "outputs": [
        {
          "internalType": "bytes32",
          "name": "",
          "type": "bytes32"
        }
      ],
      "stateMutability": "pure",
      "type": "function"
    },
    {
      "inputs": [],
      "name": "owner",
      "outputs": [
        {
          "internalType": "address",
          "name": "",
          "type": "address"
        }
      ],
      "stateMutability": "view",
      "type": "function"
    },
    {
      "inputs": [],
      "name": "pause",
      "outputs": [],
      "stateMutability": "nonpayable",
      "type": "function"
    },
    {
      "inputs": [],
      "name": "paused",
      "outputs": [
        {
          "internalType": "bool",
          "name": "",
          "type": "bool"
        }
      ],
      "stateMutability": "view",
      "type": "function"
    },
    {
      "inputs": [
        {
          "internalType": "uint256",
          "name": "",
          "type": "uint256"
        }
      ],
      "name": "poolIds",
      "outputs": [
        {
          "internalType": "bytes32",
          "name": "",
          "type": "bytes32"
        }
      ],
      "stateMutability": "view",
      "type": "function"
    },
    {
      "inputs": [
        {
          "internalType": "bytes32",
          "name": "",
          "type": "bytes32"
        }
      ],
      "name": "pools",
      "outputs": [
        {
          "internalType": "address",
          "name": "tokenA",
          "type": "address"
        },
        {
          "internalType": "address",
          "name": "tokenB",
          "type": "address"
        },
        {
          "internalType": "uint256",
          "name": "reserveA",
          "type": "uint256"
        },
        {
          "internalType": "uint256",
          "name": "reserveB",
          "type": "uint256"
        },
        {
          "internalType": "address",
          "name": "lpToken",
          "type": "address"
        },
        {
          "internalType": "uint256",
          "name": "totalLiquidity",
          "type": "uint256"
        },
        {
          "internalType": "bool",
          "name": "exists",
          "type": "bool"
        }
      ],
      "stateMutability": "view",
      "type": "function"
    },
    {
      "inputs": [
        {
          "internalType": "address",
          "name": "tokenA",
          "type": "address"
        },
        {
          "internalType": "address",
          "name": "tokenB",
          "type": "address"
        },
        {
          "internalType": "uint256",
          "name": "liquidity",
          "type": "uint256"
        },
        {
          "internalType": "uint256",
          "name": "minAmountA",
          "type": "uint256"
        },
        {
          "internalType": "uint256",
          "name": "minAmountB",
          "type": "uint256"
        }
      ],
      "name": "removeLiquidity",
      "outputs": [
        {
          "internalType": "uint256",
          "name": "amountA",
          "type": "uint256"
        },
        {
          "internalType": "uint256",
          "name": "amountB",
          "type": "uint256"
        }
      ],
      "stateMutability": "nonpayable",
      "type": "function"
    },
    {
      "inputs": [],
      "name": "renounceOwnership",
      "outputs": [],
      "stateMutability": "nonpayable",
      "type": "function"
    },
    {
      "inputs": [
        {
          "internalType": "uint256",
          "name": "newFee",
          "type": "uint256"
        }
      ],
      "name": "setSwapFee",
      "outputs": [],
      "stateMutability": "nonpayable",
      "type": "function"
    },
    {
      "inputs": [
        {
          "internalType": "address",
          "name": "tokenIn",
          "type": "address"
        },
        {
          "internalType": "address",
          "name": "tokenOut",
          "type": "address"
        },
        {
          "internalType": "uint256",
          "name": "amountIn",
          "type": "uint256"
        },
        {
          "internalType": "uint256",
          "name": "minAmountOut",
          "type": "uint256"
        }
      ],
      "name": "swap",
      "outputs": [
        {
          "internalType": "uint256",
          "name": "amountOut",
          "type": "uint256"
        }
      ],
      "stateMutability": "nonpayable",
      "type": "function"
    },
    {
      "inputs": [],
      "name": "swapFee",
      "outputs": [
        {
          "internalType": "uint256",
          "name": "",
          "type": "uint256"
        }
      ],
      "stateMutability": "view",
      "type": "function"
    },
    {
      "inputs": [
        {
          "internalType": "address",
          "name": "newOwner",
          "type": "address"
        }
      ],
      "name": "transferOwnership",
      "outputs": [],
      "stateMutability": "nonpayable",
      "type": "function"
    },
    {
      "inputs": [],
      "name": "unpause",
      "outputs": [],
      "stateMutability": "nonpayable",
      "type": "function"
    },
    {
      "inputs": [],
      "name": "whitelist",
      "outputs": [
        {
          "internalType": "contract TokenWhitelist",
          "name": "",
          "type": "address"
        }
      ],
      "stateMutability": "view",
      "type": "function"
    }
  ],
  "bytecode": "0x6080604052601e6003553480156200001657600080fd5b506040516200371638038062003716833981016040819052620000399162000174565b6001600055806001600160a01b0381166200006f57604051631e4fbdf760e01b8152600060048201526024015b60405180910390fd5b6200007a8162000105565b506001600160a01b038216620000de5760405162461bcd60e51b815260206004820152602260248201527f444558436f72653a2077686974656c697374206973207a65726f206164647265604482015261737360f01b606482015260840162000066565b50600280546001600160a01b0319166001600160a01b0392909216919091179055620001ac565b600180546001600160a01b038381166001600160a01b0319831681179093556040519116919082907f8be0079c531659141344cd1fd0a4f28419497f9722a3daafe3b4186f6b6457e090600090a35050565b80516001600160a01b03811681146200016f57600080fd5b919050565b600080604083850312156200018857600080fd5b620001938362000157565b9150620001a36020840162000157565b90509250929050565b61355a80620001bc6000396000f3fe60806040523480156200001157600080fd5b5060043610620001695760003560e01c80638eec5d7011620000d3578063d73792a91162000086578063d73792a914620003b4578063e2dc85dc14620003be578063e343361514620003eb578063f19c3d5b1462000402578063f2fde38b146200041b578063fe029156146200043257600080fd5b80638eec5d7014620002c657806391c98a2a14620002cf57806393e59dc114620002e6578063ab3d854414620002fa578063b5217bb41462000303578063ba9a7a5614620003aa57600080fd5b806354cf2aeb116200012c57806354cf2aeb146200024d5780635c975abb146200025757806369883b4e1462000275578063715018a6146200028c5780638456cb5914620002965780638da5cb5b14620002a057600080fd5b80632ef61c21146200016e57806334e1990714620001985780633f4ba83a14620001b15780634aa0665214620001bb578063531aa03e14620001d2575b600080fd5b620001856200017f36600462001e68565b62000449565b6040519081526020015b60405180910390f35b620001af620001a936600462001ea0565b620004c2565b005b620001af62000560565b62000185620001cc36600462001eba565b62000576565b620001e9620001e336600462001e68565b6200073f565b6040516200018f919081516001600160a01b03908116825260208084015182169083015260408084015190830152606080840151908301526080808401519091169082015260a0828101519082015260c09182015115159181019190915260e00190565b6200018560035481565b600154600160a01b900460ff1660405190151581526020016200018f565b620001856200028636600462001ea0565b620007fb565b620001af6200081d565b620001af62000833565b6001546001600160a01b03165b6040516001600160a01b0390911681526020016200018f565b60055462000185565b62000185620002e036600462001efb565b62000847565b600254620002ad906001600160a01b031681565b62000185606481565b620003626200031436600462001ea0565b600460208190526000918252604090912080546001820154600283015460038401549484015460058501546006909501546001600160a01b0394851696938516959294909116919060ff1687565b604080516001600160a01b03988916815296881660208801528601949094526060850192909252909316608083015260a082019290925290151560c082015260e0016200018f565b620001856103e881565b6200018561271081565b620003d5620003cf36600462001efb565b62000c52565b604080519283526020830191909152016200018f565b62000185620003fc36600462001e68565b62000fdc565b6200040c620016a6565b6040516200018f919062001f4d565b620001af6200042c36600462001f93565b62001700565b620001856200044336600462001fb8565b62001744565b6000806000836001600160a01b0316856001600160a01b0316106200047057838562000473565b84845b6040516bffffffffffffffffffffffff19606084811b8216602084015283901b166034820152919350915060480160405160208183030381529060405280519060200120925050505b92915050565b620004cc62001b07565b60648111156200051b5760405162461bcd60e51b81526020600482015260156024820152740888ab086dee4ca7440cccaca40e8dede40d0d2ced605b1b60448201526064015b60405180910390fd5b600380549082905560408051828152602081018490527fc8273cce54f5cf71712dee009c7e6438ae7e1db578da0ec076cf360af45501b9910160405180910390a15050565b6200056a62001b07565b6200057462001b36565b565b6000808211620005c55760405162461bcd60e51b8152602060048201526019602482015278444558436f72653a20616d6f756e74496e206973207a65726f60381b604482015260640162000512565b6000620005d3858562000449565b600081815260046020818152604092839020835160e08101855281546001600160a01b03908116825260018301548116938201939093526002820154948101949094526003810154606085015291820154166080830152600581015460a08301526006015460ff16151560c0820181905291925090620006675760405162461bcd60e51b8152600401620005129062001fff565b6001600160a01b0380861690871610600081620006895782606001516200068f565b82604001515b9050600082620006a4578360400151620006aa565b83606001515b9050600082118015620006bd5750600081115b620006dc5760405162461bcd60e51b8152600401620005129062002036565b6000600354612710620006f0919062002083565b620006fc908962002099565b9050806200070d6127108562002099565b620007199190620020b3565b62000725828462002099565b620007319190620020c9565b9a9950505050505050505050565b6040805160e081018252600080825260208201819052918101829052606081018290526080810182905260a0810182905260c081018290529062000784848462000449565b600090815260046020818152604092839020835160e08101855281546001600160a01b03908116825260018301548116938201939093526002820154948101949094526003810154606085015291820154166080830152600581015460a08301526006015460ff16151560c0820152949350505050565b600581815481106200080c57600080fd5b600091825260209091200154905081565b6200082762001b07565b62000574600062001b8d565b6200083d62001b07565b6200057462001bdf565b60006200085362001c25565b6200085d62001c50565b60008411620008af5760405162461bcd60e51b815260206004820152601860248201527f444558436f72653a20616d6f756e7441206973207a65726f0000000000000000604482015260640162000512565b60008311620009015760405162461bcd60e51b815260206004820152601860248201527f444558436f72653a20616d6f756e7442206973207a65726f0000000000000000604482015260640162000512565b60006200090f878762000449565b600081815260046020526040902060068101549192509060ff16620009485760405162461bcd60e51b8152600401620005129062001fff565b600080886001600160a01b03168a6001600160a01b0316106200096d57868862000970565b87875b845491935091506200098e906001600160a01b031633308562001c7c565b6001830154620009aa906001600160a01b031633308462001c7c565b826005015460000362000ab0576103e8620009d0620009ca838562002099565b62001ceb565b620009dc919062002083565b94506000851162000a3f5760405162461bcd60e51b815260206004820152602660248201527f444558436f72653a20696e73756666696369656e74206c6971756964697479206044820152651b5a5b9d195960d21b606482015260840162000512565b6004838101546040516340c10f1960e01b81526001928101929092526103e860248301526001600160a01b0316906340c10f1990604401600060405180830381600087803b15801562000a9157600080fd5b505af115801562000aa6573d6000803e3d6000fd5b5050505062000b14565b6000836002015484600501548462000ac9919062002099565b62000ad59190620020c9565b90506000846003015485600501548462000af0919062002099565b62000afc9190620020c9565b905080821062000b0d578062000b0f565b815b965050505b8585101562000b375760405162461bcd60e51b8152600401620005129062002036565b8183600201600082825462000b4d9190620020b3565b925050819055508083600301600082825462000b6a9190620020b3565b925050819055508483600501600082825462000b879190620020b3565b90915550506004838101546040516340c10f1960e01b81523392810192909252602482018790526001600160a01b0316906340c10f1990604401600060405180830381600087803b15801562000bdc57600080fd5b505af115801562000bf1573d6000803e3d6000fd5b505060408051858152602081018590529081018890523392508691507f9c8e2178a53b464e8c6d21c6d0d1f5189e5d2f6f6a79237ba611cf996a6e6b329060600160405180910390a35050505062000c496001600055565b95945050505050565b60008062000c5f62001c25565b62000c6962001c50565b6000851162000cbb5760405162461bcd60e51b815260206004820152601a60248201527f444558436f72653a206c6971756964697479206973207a65726f000000000000604482015260640162000512565b600062000cc9888862000449565b600081815260046020526040902060068101549192509060ff1662000d025760405162461bcd60e51b8152600401620005129062001fff565b6000816005015482600201548962000d1b919062002099565b62000d279190620020c9565b90506000826005015483600301548a62000d42919062002099565b62000d4e9190620020c9565b905060008211801562000d615750600081115b62000dbe5760405162461bcd60e51b815260206004820152602660248201527f444558436f72653a20696e73756666696369656e74206c697175696469747920604482015265189d5c9b995960d21b606482015260840162000512565b896001600160a01b03168b6001600160a01b03161062000de057808262000de3565b81815b90965094508786101562000e3a5760405162461bcd60e51b815260206004820152601d60248201527f444558436f72653a20696e73756666696369656e7420616d6f756e7441000000604482015260640162000512565b8685101562000e8c5760405162461bcd60e51b815260206004820152601d60248201527f444558436f72653a20696e73756666696369656e7420616d6f756e7442000000604482015260640162000512565b8183600201600082825462000ea2919062002083565b925050819055508083600301600082825462000ebf919062002083565b925050819055508883600501600082825462000edc919062002083565b9091555050600483810154604051632770a7eb60e21b81523392810192909252602482018b90526001600160a01b031690639dc29fac90604401600060405180830381600087803b15801562000f3157600080fd5b505af115801562000f46573d6000803e3d6000fd5b5050845462000f6392506001600160a01b03169050338462001d69565b600183015462000f7e906001600160a01b0316338362001d69565b60408051838152602081018390529081018a9052339085907f1644e236c5520c62ce0dee793b42f87f940781d55b02c890fbbcdfff1ee5e2519060600160405180910390a35050505062000fd26001600055565b9550959350505050565b600062000fe862001b07565b6001600160a01b038316620010405760405162461bcd60e51b815260206004820152601f60248201527f444558436f72653a20746f6b656e41206973207a65726f206164647265737300604482015260640162000512565b6001600160a01b038216620010985760405162461bcd60e51b815260206004820152601f60248201527f444558436f72653a20746f6b656e42206973207a65726f206164647265737300604482015260640162000512565b816001600160a01b0316836001600160a01b031603620010f75760405162461bcd60e51b8152602060048201526019602482015278444558436f72653a206964656e746963616c20746f6b656e7360381b604482015260640162000512565b600254604051633af32abf60e01b81526001600160a01b03858116600483015290911690633af32abf90602401602060405180830381865afa15801562001142573d6000803e3d6000fd5b505050506040513d601f19601f82011682018060405250810190620011689190620020fd565b620011b65760405162461bcd60e51b815260206004820152601f60248201527f444558436f72653a20746f6b656e41206e6f742077686974656c697374656400604482015260640162000512565b600254604051633af32abf60e01b81526001600160a01b03848116600483015290911690633af32abf90602401602060405180830381865afa15801562001201573d6000803e3d6000fd5b505050506040513d601f19601f82011682018060405250810190620012279190620020fd565b620012755760405162461bcd60e51b815260206004820152601f60248201527f444558436f72653a20746f6b656e42206e6f742077686974656c697374656400604482015260640162000512565b600080836001600160a01b0316856001600160a01b0316106200129a5783856200129d565b84845b6040516bffffffffffffffffffffffff19606084811b8216602084015283901b166034820152919350915060009060480160408051601f1981840301815291815281516020928301206000818152600490935291206006015490915060ff16156200134b5760405162461bcd60e51b815260206004820152601c60248201527f444558436f72653a20706f6f6c20616c72656164792065786973747300000000604482015260640162000512565b600254604051631f69565f60e01b81526001600160a01b0385811660048301526000921690631f69565f90602401600060405180830381865afa15801562001397573d6000803e3d6000fd5b505050506040513d6000823e601f3d908101601f19168201604052620013c1919081019062002215565b600254604051631f69565f60e01b81526001600160a01b03868116600483015292935060009290911690631f69565f90602401600060405180830381865afa15801562001412573d6000803e3d6000fd5b505050506040513d6000823e601f3d908101601f191682016040526200143c919081019062002215565b90506000826040015182604001516040516020016200145d929190620022ee565b60405160208183030381529060405290506000836040015183604001516040516020016200148d9291906200233e565b604051602081830303815290604052905060008787848430604051620014b39062001e42565b620014c3959493929190620023bb565b604051809103906000f080158015620014e0573d6000803e3d6000fd5b5090506040518060e00160405280896001600160a01b03168152602001886001600160a01b031681526020016000815260200160008152602001826001600160a01b0316815260200160008152602001600115158152506004600088815260200190815260200160002060008201518160000160006101000a8154816001600160a01b0302191690836001600160a01b0316021790555060208201518160010160006101000a8154816001600160a01b0302191690836001600160a01b03160217905550604082015181600201556060820151816003015560808201518160040160006101000a8154816001600160a01b0302191690836001600160a01b0316021790555060a0820151816005015560c08201518160060160006101000a81548160ff0219169083151502179055509050506005869080600181540180825580915050600190039060005260206000200160009091909190915055866001600160a01b0316886001600160a01b0316877f16354016da33c4b63f03b12074e60a0dba0444a0d8747d270e457e24948fbf48846040516200168f91906001600160a01b0391909116815260200190565b60405180910390a450939998505050505050505050565b60606005805480602002602001604051908101604052809291908181526020018280548015620016f657602002820191906000526020600020905b815481526020019060010190808311620016e1575b5050505050905090565b6200170a62001b07565b6001600160a01b0381166200173657604051631e4fbdf760e01b81526000600482015260240162000512565b620017418162001b8d565b50565b60006200175062001c25565b6200175a62001c50565b60008311620017a85760405162461bcd60e51b8152602060048201526019602482015278444558436f72653a20616d6f756e74496e206973207a65726f60381b604482015260640162000512565b836001600160a01b0316856001600160a01b031603620018075760405162461bcd60e51b8152602060048201526019602482015278444558436f72653a206964656e746963616c20746f6b656e7360381b604482015260640162000512565b600062001815868662000449565b600081815260046020526040902060068101549192509060ff166200184e5760405162461bcd60e51b8152600401620005129062001fff565b6001600160a01b03808716908816106000816200187057826003015462001876565b82600201545b90506000826200188b57836002015462001891565b83600301545b9050600082118015620018a45750600081115b620018c35760405162461bcd60e51b8152600401620005129062002036565b620018da6001600160a01b038b1633308b62001c7c565b6000600354612710620018ee919062002083565b620018fa908a62002099565b9050806200190b6127108562002099565b620019179190620020b3565b62001923828462002099565b6200192f9190620020c9565b9650600087116200198f5760405162461bcd60e51b815260206004820152602360248201527f444558436f72653a20696e73756666696369656e74206f757470757420616d6f6044820152621d5b9d60ea1b606482015260840162000512565b87871015620019e15760405162461bcd60e51b815260206004820152601a60248201527f444558436f72653a20736c697070616765206578636565646564000000000000604482015260640162000512565b81871062001a035760405162461bcd60e51b8152600401620005129062002036565b831562001a49578885600201600082825462001a209190620020b3565b925050819055508685600301600082825462001a3d919062002083565b9091555062001a829050565b8885600301600082825462001a5f9190620020b3565b925050819055508685600201600082825462001a7c919062002083565b90915550505b62001a986001600160a01b038b16338962001d69565b604080516001600160a01b038d811682528c1660208201529081018a905260608101889052339087907f0c8d1c4d9e04dd566f62cc25a237c76ae445c7d40c5f2a485e51c9177bc7558b9060800160405180910390a350505050505062001aff6001600055565b949350505050565b6001546001600160a01b03163314620005745760405163118cdaa760e01b815233600482015260240162000512565b62001b4062001da1565b6001805460ff60a01b191690557f5db9ee0a495bf2e6ff9c91a7834c1ba4fdd244a5e8aa4e537bd38aeae4b073aa335b6040516001600160a01b03909116815260200160405180910390a1565b600180546001600160a01b038381166001600160a01b0319831681179093556040519116919082907f8be0079c531659141344cd1fd0a4f28419497f9722a3daafe3b4186f6b6457e090600090a35050565b62001be962001c50565b6001805460ff60a01b1916600160a01b1790557f62e78cea01bee320cd4e420270b5ea74000d11b0c9f74754ebdbfc544b05a25862001b703390565b60026000540362001c4957604051633ee5aeb560e01b815260040160405180910390fd5b6002600055565b600154600160a01b900460ff1615620005745760405163d93c066560e01b815260040160405180910390fd5b6040516001600160a01b03848116602483015283811660448301526064820183905262001ce59186918216906323b872dd906084015b604051602081830303815290604052915060e01b6020820180516001600160e01b03838183161783525050505062001dcc565b50505050565b6000600382111562001d59575080600062001d08600283620020c9565b62001d15906001620020b3565b90505b8181101562001d535790508060028162001d338186620020c9565b62001d3f9190620020b3565b62001d4b9190620020c9565b905062001d18565b50919050565b811562001d64575060015b919050565b6040516001600160a01b0383811660248301526044820183905262001d9c91859182169063a9059cbb9060640162001cb2565b505050565b600154600160a01b900460ff166200057457604051638dfc202b60e01b815260040160405180910390fd5b600080602060008451602086016000885af18062001df0576040513d6000823e3d81fd5b50506000513d9150811562001e0a57806001141562001e17565b6001600160a01b0384163b155b1562001ce557604051635274afe760e01b81526001600160a01b038516600482015260240162000512565b611113806200241283390190565b80356001600160a01b038116811462001d6457600080fd5b6000806040838503121562001e7c57600080fd5b62001e878362001e50565b915062001e976020840162001e50565b90509250929050565b60006020828403121562001eb357600080fd5b5035919050565b60008060006060848603121562001ed057600080fd5b62001edb8462001e50565b925062001eeb6020850162001e50565b9150604084013590509250925092565b600080600080600060a0868803121562001f1457600080fd5b62001f1f8662001e50565b945062001f2f6020870162001e50565b94979496505050506040830135926060810135926080909101359150565b6020808252825182820181905260009190848201906040850190845b8181101562001f875783518352928401929184019160010162001f69565b50909695505050505050565b60006020828403121562001fa657600080fd5b62001fb18262001e50565b9392505050565b6000806000806080858703121562001fcf57600080fd5b62001fda8562001e50565b935062001fea6020860162001e50565b93969395505050506040820135916060013590565b6020808252601c908201527f444558436f72653a20706f6f6c20646f6573206e6f7420657869737400000000604082015260600190565b6020808252601f908201527f444558436f72653a20696e73756666696369656e74206c697175696469747900604082015260600190565b634e487b7160e01b600052601160045260246000fd5b81810381811115620004bc57620004bc6200206d565b8082028115828204841417620004bc57620004bc6200206d565b80820180821115620004bc57620004bc6200206d565b600082620020e757634e487b7160e01b600052601260045260246000fd5b500490565b8051801515811462001d6457600080fd5b6000602082840312156200211057600080fd5b62001fb182620020ec565b634e487b7160e01b600052604160045260246000fd5b60405160a0810167ffffffffffffffff811182821017156200215757620021576200211b565b60405290565b60005b838110156200217a57818101518382015260200162002160565b50506000910152565b600082601f8301126200219557600080fd5b815167ffffffffffffffff80821115620021b357620021b36200211b565b604051601f8301601f19908116603f01168101908282118183101715620021de57620021de6200211b565b81604052838152866020858801011115620021f857600080fd5b6200220b8460208301602089016200215d565b9695505050505050565b6000602082840312156200222857600080fd5b815167ffffffffffffffff808211156200224157600080fd5b9083019060a082860312156200225657600080fd5b6200226062002131565b6200226b83620020ec565b81526020830151828111156200228057600080fd5b6200228e8782860162002183565b602083015250604083015182811115620022a757600080fd5b620022b58782860162002183565b6040830152506060830151915060ff82168214620022d257600080fd5b8160608201526080830151608082015280935050505092915050565b60008351620023028184602088016200215d565b602d60f81b9083019081528351620023228160018401602088016200215d565b620204c560ec1b60019290910191820152600401949350505050565b624c502d60e81b8152600083516200235e8160038501602088016200215d565b602d60f81b6003918401918201528351620023818160048401602088016200215d565b01600401949350505050565b60008151808452620023a78160208601602086016200215d565b601f01601f19169290920160200192915050565b600060018060a01b038088168352808716602084015260a06040840152620023e760a08401876200238d565b8381036060850152620023fb81876200238d565b925050808416608084015250969550505050505056fe60806040523480156200001157600080fd5b506040516200111338038062001113833981016040819052620000349162000313565b808383600362000045838262000445565b50600462000054828262000445565b5050506001600160a01b0381166200008757604051631e4fbdf760e01b8152600060048201526024015b60405180910390fd5b6200009281620001df565b506001600160a01b038516620000eb5760405162461bcd60e51b815260206004820152601f60248201527f4c50546f6b656e3a20746f6b656e41206973207a65726f20616464726573730060448201526064016200007e565b6001600160a01b038416620001435760405162461bcd60e51b815260206004820152601f60248201527f4c50546f6b656e3a20746f6b656e42206973207a65726f20616464726573730060448201526064016200007e565b836001600160a01b0316856001600160a01b031603620001a65760405162461bcd60e51b815260206004820152601960248201527f4c50546f6b656e3a206964656e746963616c20746f6b656e730000000000000060448201526064016200007e565b5050600680546001600160a01b039485166001600160a01b03199182161790915560078054939094169216919091179091555062000511565b600580546001600160a01b038381166001600160a01b0319831681179093556040519116919082907f8be0079c531659141344cd1fd0a4f28419497f9722a3daafe3b4186f6b6457e090600090a35050565b80516001600160a01b03811681146200024957600080fd5b919050565b634e487b7160e01b600052604160045260246000fd5b600082601f8301126200027657600080fd5b81516001600160401b03808211156200029357620002936200024e565b604051601f8301601f19908116603f01168101908282118183101715620002be57620002be6200024e565b81604052838152602092508683858801011115620002db57600080fd5b600091505b83821015620002ff5785820183015181830184015290820190620002e0565b600093810190920192909252949350505050565b600080600080600060a086880312156200032c57600080fd5b620003378662000231565b9450620003476020870162000231565b60408701519094506001600160401b03808211156200036557600080fd5b6200037389838a0162000264565b945060608801519150808211156200038a57600080fd5b50620003998882890162000264565b925050620003aa6080870162000231565b90509295509295909350565b600181811c90821680620003cb57607f821691505b602082108103620003ec57634e487b7160e01b600052602260045260246000fd5b50919050565b601f8211156200044057600081815260208120601f850160051c810160208610156200041b5750805b601f850160051c820191505b818110156200043c5782815560010162000427565b5050505b505050565b81516001600160401b038111156200046157620004616200024e565b6200047981620004728454620003b6565b84620003f2565b602080601f831160018114620004b15760008415620004985750858301515b600019600386901b1c1916600185901b1785556200043c565b600085815260208120601f198616915b82811015620004e257888601518255948401946001909101908401620004c1565b5085821015620005015787850151600019600388901b60f8161c191681555b5050505050600190811b01905550565b610bf280620005216000396000f3fe608060405234801561001057600080fd5b506004361061010b5760003560e01c806370a08231116100a25780639dc29fac116100715780639dc29fac14610222578063a9059cbb14610235578063c1f1b1b514610248578063dd62ed3e1461026e578063f2fde38b146102a757600080fd5b806370a08231146101d8578063715018a6146102015780638da5cb5b1461020957806395d89b411461021a57600080fd5b806323b872dd116100de57806323b872dd1461018e578063313ce567146101a157806340c10f19146101b05780635f64b55b146101c557600080fd5b806306fdde0314610110578063095ea7b31461012e5780630fc63d101461015157806318160ddd1461017c575b600080fd5b6101186102ba565b6040516101259190610a3c565b60405180910390f35b61014161013c366004610aa6565b61034c565b6040519015158152602001610125565b600654610164906001600160a01b031681565b6040516001600160a01b039091168152602001610125565b6002545b604051908152602001610125565b61014161019c366004610ad0565b610366565b60405160128152602001610125565b6101c36101be366004610aa6565b61038a565b005b600754610164906001600160a01b031681565b6101806101e6366004610b0c565b6001600160a01b031660009081526020819052604090205490565b6101c361048e565b6005546001600160a01b0316610164565b6101186104a2565b6101c3610230366004610aa6565b6104b1565b610141610243366004610aa6565b610612565b600654600754604080516001600160a01b03938416815292909116602083015201610125565b61018061027c366004610b2e565b6001600160a01b03918216600090815260016020908152604080832093909416825291909152205490565b6101c36102b5366004610b0c565b610620565b6060600380546102c990610b61565b80601f01602080910402602001604051908101604052809291908181526020018280546102f590610b61565b80156103425780601f1061031757610100808354040283529160200191610342565b820191906000526020600020905b81548152906001019060200180831161032557829003601f168201915b5050505050905090565b60003361035a81858561065e565b60019150505b92915050565b600033610374858285610670565b61037f8585856106ef565b506001949350505050565b61039261074e565b6001600160a01b0382166103ed5760405162461bcd60e51b815260206004820152601d60248201527f4c50546f6b656e3a206d696e7420746f207a65726f206164647265737300000060448201526064015b60405180910390fd5b6000811161043d5760405162461bcd60e51b815260206004820152601c60248201527f4c50546f6b656e3a206d696e7420616d6f756e74206973207a65726f0000000060448201526064016103e4565b610447828261077b565b816001600160a01b03167ff3064fa6b22e6c9bc14761a768e052b649cc9a497e1e17ef3619788edf6ca0578260405161048291815260200190565b60405180910390a25050565b61049661074e565b6104a060006107b5565b565b6060600480546102c990610b61565b6104b961074e565b6001600160a01b03821661050f5760405162461bcd60e51b815260206004820152601f60248201527f4c50546f6b656e3a206275726e2066726f6d207a65726f20616464726573730060448201526064016103e4565b6000811161055f5760405162461bcd60e51b815260206004820152601c60248201527f4c50546f6b656e3a206275726e20616d6f756e74206973207a65726f0000000060448201526064016103e4565b8061057f836001600160a01b031660009081526020819052604090205490565b10156105cd5760405162461bcd60e51b815260206004820152601d60248201527f4c50546f6b656e3a20696e73756666696369656e742062616c616e636500000060448201526064016103e4565b6105d78282610807565b816001600160a01b03167fe13d296d0b3f1b2107082ed86bbeb47413bc2e2b753bbf64e0804e457339e95c8260405161048291815260200190565b60003361035a8185856106ef565b61062861074e565b6001600160a01b03811661065257604051631e4fbdf760e01b8152600060048201526024016103e4565b61065b816107b5565b50565b61066b838383600161083d565b505050565b6001600160a01b038381166000908152600160209081526040808320938616835292905220546000198110156106e957818110156106da57604051637dc7a0d960e11b81526001600160a01b038416600482015260248101829052604481018390526064016103e4565b6106e98484848403600061083d565b50505050565b6001600160a01b03831661071957604051634b637e8f60e11b8152600060048201526024016103e4565b6001600160a01b0382166107435760405163ec442f0560e01b8152600060048201526024016103e4565b61066b838383610912565b6005546001600160a01b031633146104a05760405163118cdaa760e01b81523360048201526024016103e4565b6001600160a01b0382166107a55760405163ec442f0560e01b8152600060048201526024016103e4565b6107b160008383610912565b5050565b600580546001600160a01b038381166001600160a01b0319831681179093556040519116919082907f8be0079c531659141344cd1fd0a4f28419497f9722a3daafe3b4186f6b6457e090600090a35050565b6001600160a01b03821661083157604051634b637e8f60e11b8152600060048201526024016103e4565b6107b182600083610912565b6001600160a01b0384166108675760405163e602df0560e01b8152600060048201526024016103e4565b6001600160a01b03831661089157604051634a1406b160e11b8152600060048201526024016103e4565b6001600160a01b03808516600090815260016020908152604080832093871683529290522082905580156106e957826001600160a01b0316846001600160a01b03167f8c5be1e5ebec7d5bd14f71427d1e84f3dd0314c0f7b2291e5b200ac8c7c3b9258460405161090491815260200190565b60405180910390a350505050565b6001600160a01b03831661093d5780600260008282546109329190610b9b565b909155506109af9050565b6001600160a01b038316600090815260208190526040902054818110156109905760405163391434e360e21b81526001600160a01b038516600482015260248101829052604481018390526064016103e4565b6001600160a01b03841660009081526020819052604090209082900390555b6001600160a01b0382166109cb576002805482900390556109ea565b6001600160a01b03821660009081526020819052604090208054820190555b816001600160a01b0316836001600160a01b03167fddf252ad1be2c89b69c2b068fc378daa952ba7f163c4a11628f55a4df523b3ef83604051610a2f91815260200190565b60405180910390a3505050565b600060208083528351808285015260005b81811015610a6957858101830151858201604001528201610a4d565b506000604082860101526040601f19601f8301168501019250505092915050565b80356001600160a01b0381168114610aa157600080fd5b919050565b60008060408385031215610ab957600080fd5b610ac283610a8a565b946020939093013593505050565b600080600060608486031215610ae557600080fd5b610aee84610a8a565b9250610afc60208501610a8a565b9150604084013590509250925092565b600060208284031215610b1e57600080fd5b610b2782610a8a565b9392505050565b60008060408385031215610b4157600080fd5b610b4a83610a8a565b9150610b5860208401610a8a565b90509250929050565b600181811c90821680610b7557607f821691505b602082108103610b9557634e487b7160e01b600052602260045260246000fd5b50919050565b8082018082111561036057634e487b7160e01b600052601160045260246000fdfea26469706673582212200fbffd9d03722321057de4d3c4e7b9e882d8d75588c507425277dba8c89671a064736f6c63430008140033a26469706673582212207ecfa32071f53e1809894f67dfaf3c97cffdf821d2bb838a7ed2e42f65c1d80f64736f6c63430008140033",
  "linkReferences": {},
  "deployedLinkReferences": {}
}