{
  "_format": "hh-sol-artifact-1",
  "contractName": "LPToken",
  "sourceName": "contracts/LPToken.sol",
  "abi": [
    {
      "inputs": [
        {
          "internalType": "address",
          "name": "_tokenA",
          "type": "address"
        },
        {
          "internalType": "address",
          "name": "_tokenB",
          "type": "address"
        },
        {
          "internalType": "string",
          "name": "_name",
          "type": "string"
        },
        {
          "internalType": "string",
          "name": "_symbol",
          "type": "string"
        },
        {
          "internalType": "address",
          "name": "_owner",
          "type": "address"
        }
      ],
      "stateMutability": "nonpayable",
      "type": "constructor"
    },
    {
      "inputs": [
        {
          "internalType": "address",
          "name": "spender",
          "type": "address"
        },
        {
          "internalType": "uint256",
          "name": "allowance",
          "type": "uint256"
        },
        {
          "internalType": "uint256",
          "name": "needed",
          "type": "uint256"
        }
      ],
      "name": "ERC20InsufficientAllowance",
      "type": "error"
    },
    {
      "inputs": [
        {
          "internalType": "address",
          "name": "sender",
          "type": "address"
        },
        {
          "internalType": "uint256",
          "name": "balance",
          "type": "uint256"
        },
        {
          "internalType": "uint256",
          "name": "needed",
          "type": "uint256"
        }
      ],
      "name": "ERC20InsufficientBalance",
      "type": "error"
    },
    {
      "inputs": [
        {
          "internalType": "address",
          "name": "approver",
          "type": "address"
        }
      ],
      "name": "ERC20InvalidApprover",
      "type": "error"
    },
    {
      "inputs": [
        {
          "internalType": "address",
          "name": "receiver",
          "type": "address"
        }
      ],
      "name": "ERC20InvalidReceiver",
      "type": "error"
    },
    {
      "inputs": [
        {
          "internalType": "address",
          "name": "sender",
          "type": "address"
        }
      ],
      "name": "ERC20InvalidSender",
      "type": "error"
    },
    {
      "inputs": [
        {
          "internalType": "address",
          "name": "spender",
          "type": "address"
        }
      ],
      "name": "ERC20InvalidSpender",
      "type": "error"
    },
    {
      "inputs": [
        {
          "internalType": "address",
          "name": "owner",
          "type": "address"
        }
      ],
      "name": "OwnableInvalidOwner",
      "type": "error"
    },
    {
      "inputs": [
        {
          "internalType": "address",
          "name": "account",
          "type": "address"
        }
      ],
      "name": "OwnableUnauthorizedAccount",
      "type": "error"
    },
    {
      "anonymous": false,
      "inputs": [
        {
          "indexed": true,
          "internalType": "address",
          "name": "owner",
          "type": "address"
        },
        {
          "indexed": true,
          "internalType": "address",
          "name": "spender",
          "type": "address"
        },
        {
          "indexed": false,
          "internalType": "uint256",
          "name": "value",
          "type": "uint256"
        }
      ],
      "name": "Approval",
      "type": "event"
    },
    {
      "anonymous": false,
      "inputs": [
        {
          "indexed": true,
          "internalType": "address",
          "name": "from",
          "type": "address"
        },
        {
          "indexed": false,
          "internalType": "uint256",
          "name": "amount",
          "type": "uint256"
        }
      ],
      "name": "LPTokensBurned",
      "type": "event"
    },
    {
      "anonymous": false,
      "inputs": [
        {
          "indexed": true,
          "internalType": "address",
          "name": "to",
          "type": "address"
        },
        {
          "indexed": false,
          "internalType": "uint256",
          "name": "amount",
          "type": "uint256"
        }
      ],
      "name": "LPTokensMinted",
      "type": "event"
    },
    {
      "anonymous": false,
      "inputs": [
        {
          "indexed": true,
          "internalType": "address",
          "name": "previousOwner",
          "type": "address"
        },
        {
          "indexed": true,
          "internalType": "address",
          "name": "newOwner",
          "type": "address"
        }
      ],
      "name": "OwnershipTransferred",
      "type": "event"
    },
    {
      "anonymous": false,
      "inputs": [
        {
          "indexed": true,
          "internalType": "address",
          "name": "from",
          "type": "address"
        },
        {
          "indexed": true,
          "internalType": "address",
          "name": "to",
          "type": "address"
        },
        {
          "indexed": false,
          "internalType": "uint256",
          "name": "value",
          "type": "uint256"
        }
      ],
      "name": "Transfer",
      "type": "event"
    },
    {
      "inputs": [
        {
          "internalType": "address",
          "name": "owner",
          "type": "address"
        },
        {
          "internalType": "address",
          "name": "spender",
          "type": "address"
        }
      ],
      "name": "allowance",
      "outputs": [
        {
          "internalType": "uint256",
          "name": "",
          "type": "uint256"
        }
      ],
      "stateMutability": "view",
      "type": "function"
    },
    {
      "inputs": [
        {
          "internalType": "address",
          "name": "spender",
          "type": "address"
        },
        {
          "internalType": "uint256",
          "name": "value",
          "type": "uint256"
        }
      ],
      "name": "approve",
      "outputs": [
        {
          "internalType": "bool",
          "name": "",
          "type": "bool"
        }
      ],
      "stateMutability": "nonpayable",
      "type": "function"
    },
    {
      "inputs": [
        {
          "internalType": "address",
          "name": "account",
          "type": "address"
        }
      ],
      "name": "balanceOf",
      "outputs": [
        {
          "internalType": "uint256",
          "name": "",
          "type": "uint256"
        }
      ],
      "stateMutability": "view",
      "type": "function"
    },
    {
      "inputs": [
        {
          "internalType": "address",
          "name": "from",
          "type": "address"
        },
        {
          "internalType": "uint256",
          "name": "amount",
          "type": "uint256"
        }
      ],
      "name": "burn",
      "outputs": [],
      "stateMutability": "nonpayable",
      "type": "function"
    },
    {
      "inputs": [],
      "name": "decimals",
      "outputs": [
        {
          "internalType": "uint8",
          "name": "",
          "type": "uint8"
        }
      ],
      "stateMutability": "view",
      "type": "function"
    },
    {
      "inputs": [],
      "name": "getPair",
      "outputs": [
        {
          "internalType": "address",
          "name": "",
          "type": "address"
        },
        {
          "internalType": "address",
          "name": "",
          "type": "address"
        }
      ],
      "stateMutability": "view",
      "type": "function"
    },
    {
      "inputs": [
        {
          "internalType": "address",
          "name": "to",
          "type": "address"
        },
        {
          "internalType": "uint256",
          "name": "amount",
          "type": "uint256"
        }
      ],
      "name": "mint",
      "outputs": [],
      "stateMutability": "nonpayable",
      "type": "function"
    },
    {
      "inputs": [],
      "name": "name",
      "outputs": [
        {
          "internalType": "string",
          "name": "",
          "type": "string"
        }
      ],
      "stateMutability": "view",
      "type": "function"
    },
    {
      "inputs": [],
      "name": "owner",
      "outputs": [
        {
          "internalType": "address",
          "name": "",
          "type": "address"
        }
      ],
      "stateMutability": "view",
      "type": "function"
    },
    {
      "inputs": [],
      "name": "renounceOwnership",
      "outputs": [],
      "stateMutability": "nonpayable",
      "type": "function"
    },
    {
      "inputs": [],
      "name": "symbol",
      "outputs": [
        {
          "internalType": "string",
          "name": "",
          "type": "string"
        }
      ],
      "stateMutability": "view",
      "type": "function"
    },
    {
      "inputs": [],
      "name": "tokenA",
      "outputs": [
        {
          "internalType": "address",
          "name": "",
          "type": "address"
        }
      ],
      "stateMutability": "view",
      "type": "function"
    },
    {
      "inputs": [],
      "name": "tokenB",
      "outputs": [
        {
          "internalType": "address",
          "name": "",
          "type": "address"
        }
      ],
      "stateMutability": "view",
      "type": "function"
    },
    {
      "inputs": [],
      "name": "totalSupply",
      "outputs": [
        {
          "internalType": "uint256",
          "name": "",
          "type": "uint256"
        }
      ],
      "stateMutability": "view",
      "type": "function"
    },
    {
      "inputs": [
        {
          "internalType": "address",
          "name": "to",
          "type": "address"
        },
        {
          "internalType": "uint256",
          "name": "value",
          "type": "uint256"
        }
      ],
      "name": "transfer",
      "outputs": [
        {
          "internalType": "bool",
          "name": "",
          "type": "bool"
        }
      ],
      "stateMutability": "nonpayable",
      "type": "function"
    },
    {
      "inputs": [
        {
          "internalType": "address",
          "name": "from",
          "type": "address"
        },
        {
          "internalType": "address",
          "name": "to",
          "type": "address"
        },
        {
          "internalType": "uint256",
          "name": "value",
          "type": "uint256"
        }
      ],
      "name": "transferFrom",
      "outputs": [
        {
          "internalType": "bool",
          "name": "",
          "type": "bool"
        }
      ],
      "stateMutability": "nonpayable",
      "type": "function"
    },
    {
      "inputs": [
        {
          "internalType": "address",
          "name": "newOwner",
          "type": "address"
        }
      ],
      "name": "transferOwnership",
      "outputs": [],
      "stateMutability": "nonpayable",
      "type": "function"
    }
  ],
  "bytecode": "0x60806040523480156200001157600080fd5b506040516200111338038062001113833981016040819052620000349162000313565b808383600362000045838262000445565b50600462000054828262000445565b5050506001600160a01b0381166200008757604051631e4fbdf760e01b8152600060048201526024015b60405180910390fd5b6200009281620001df565b506001600160a01b038516620000eb5760405162461bcd60e51b815260206004820152601f60248201527f4c50546f6b656e3a20746f6b656e41206973207a65726f20616464726573730060448201526064016200007e565b6001600160a01b038416620001435760405162461bcd60e51b815260206004820152601f60248201527f4c50546f6b656e3a20746f6b656e42206973207a65726f20616464726573730060448201526064016200007e565b836001600160a01b0316856001600160a01b031603620001a65760405162461bcd60e51b815260206004820152601960248201527f4c50546f6b656e3a206964656e746963616c20746f6b656e730000000000000060448201526064016200007e565b5050600680546001600160a01b039485166001600160a01b03199182161790915560078054939094169216919091179091555062000511565b600580546001600160a01b038381166001600160a01b0319831681179093556040519116919082907f8be0079c531659141344cd1fd0a4f28419497f9722a3daafe3b4186f6b6457e090600090a35050565b80516001600160a01b03811681146200024957600080fd5b919050565b634e487b7160e01b600052604160045260246000fd5b600082601f8301126200027657600080fd5b81516001600160401b03808211156200029357620002936200024e565b604051601f8301601f19908116603f01168101908282118183101715620002be57620002be6200024e565b81604052838152602092508683858801011115620002db57600080fd5b600091505b83821015620002ff5785820183015181830184015290820190620002e0565b600093810190920192909252949350505050565b600080600080600060a086880312156200032c57600080fd5b620003378662000231565b9450620003476020870162000231565b60408701519094506001600160401b03808211156200036557600080fd5b6200037389838a0162000264565b945060608801519150808211156200038a57600080fd5b50620003998882890162000264565b925050620003aa6080870162000231565b90509295509295909350565b600181811c90821680620003cb57607f821691505b602082108103620003ec57634e487b7160e01b600052602260045260246000fd5b50919050565b601f8211156200044057600081815260208120601f850160051c810160208610156200041b5750805b601f850160051c820191505b818110156200043c5782815560010162000427565b5050505b505050565b81516001600160401b038111156200046157620004616200024e565b6200047981620004728454620003b6565b84620003f2565b602080601f831160018114620004b15760008415620004985750858301515b600019600386901b1c1916600185901b1785556200043c565b600085815260208120601f198616915b82811015620004e257888601518255948401946001909101908401620004c1565b5085821015620005015787850151600019600388901b60f8161c191681555b5050505050600190811b01905550565b610bf280620005216000396000f3fe608060405234801561001057600080fd5b506004361061010b5760003560e01c806370a08231116100a25780639dc29fac116100715780639dc29fac14610222578063a9059cbb14610235578063c1f1b1b514610248578063dd62ed3e1461026e578063f2fde38b146102a757600080fd5b806370a08231146101d8578063715018a6146102015780638da5cb5b1461020957806395d89b411461021a57600080fd5b806323b872dd116100de57806323b872dd1461018e578063313ce567146101a157806340c10f19146101b05780635f64b55b146101c557600080fd5b806306fdde0314610110578063095ea7b31461012e5780630fc63d101461015157806318160ddd1461017c575b600080fd5b6101186102ba565b6040516101259190610a3c565b60405180910390f35b61014161013c366004610aa6565b61034c565b6040519015158152602001610125565b600654610164906001600160a01b031681565b6040516001600160a01b039091168152602001610125565b6002545b604051908152602001610125565b61014161019c366004610ad0565b610366565b60405160128152602001610125565b6101c36101be366004610aa6565b61038a565b005b600754610164906001600160a01b031681565b6101806101e6366004610b0c565b6001600160a01b031660009081526020819052604090205490565b6101c361048e565b6005546001600160a01b0316610164565b6101186104a2565b6101c3610230366004610aa6565b6104b1565b610141610243366004610aa6565b610612565b600654600754604080516001600160a01b03938416815292909116602083015201610125565b61018061027c366004610b2e565b6001600160a01b03918216600090815260016020908152604080832093909416825291909152205490565b6101c36102b5366004610b0c565b610620565b6060600380546102c990610b61565b80601f01602080910402602001604051908101604052809291908181526020018280546102f590610b61565b80156103425780601f1061031757610100808354040283529160200191610342565b820191906000526020600020905b81548152906001019060200180831161032557829003601f168201915b5050505050905090565b60003361035a81858561065e565b60019150505b92915050565b600033610374858285610670565b61037f8585856106ef565b506001949350505050565b61039261074e565b6001600160a01b0382166103ed5760405162461bcd60e51b815260206004820152601d60248201527f4c50546f6b656e3a206d696e7420746f207a65726f206164647265737300000060448201526064015b60405180910390fd5b6000811161043d5760405162461bcd60e51b815260206004820152601c60248201527f4c50546f6b656e3a206d696e7420616d6f756e74206973207a65726f0000000060448201526064016103e4565b610447828261077b565b816001600160a01b03167ff3064fa6b22e6c9bc14761a768e052b649cc9a497e1e17ef3619788edf6ca0578260405161048291815260200190565b60405180910390a25050565b61049661074e565b6104a060006107b5565b565b6060600480546102c990610b61565b6104b961074e565b6001600160a01b03821661050f5760405162461bcd60e51b815260206004820152601f60248201527f4c50546f6b656e3a206275726e2066726f6d207a65726f20616464726573730060448201526064016103e4565b6000811161055f5760405162461bcd60e51b815260206004820152601c60248201527f4c50546f6b656e3a206275726e20616d6f756e74206973207a65726f0000000060448201526064016103e4565b8061057f836001600160a01b031660009081526020819052604090205490565b10156105cd5760405162461bcd60e51b815260206004820152601d60248201527f4c50546f6b656e3a20696e73756666696369656e742062616c616e636500000060448201526064016103e4565b6105d78282610807565b816001600160a01b03167fe13d296d0b3f1b2107082ed86bbeb47413bc2e2b753bbf64e0804e457339e95c8260405161048291815260200190565b60003361035a8185856106ef565b61062861074e565b6001600160a01b03811661065257604051631e4fbdf760e01b8152600060048201526024016103e4565b61065b816107b5565b50565b61066b838383600161083d565b505050565b6001600160a01b038381166000908152600160209081526040808320938616835292905220546000198110156106e957818110156106da57604051637dc7a0d960e11b81526001600160a01b038416600482015260248101829052604481018390526064016103e4565b6106e98484848403600061083d565b50505050565b6001600160a01b03831661071957604051634b637e8f60e11b8152600060048201526024016103e4565b6001600160a01b0382166107435760405163ec442f0560e01b8152600060048201526024016103e4565b61066b838383610912565b6005546001600160a01b031633146104a05760405163118cdaa760e01b81523360048201526024016103e4565b6001600160a01b0382166107a55760405163ec442f0560e01b8152600060048201526024016103e4565b6107b160008383610912565b5050565b600580546001600160a01b038381166001600160a01b0319831681179093556040519116919082907f8be0079c531659141344cd1fd0a4f28419497f9722a3daafe3b4186f6b6457e090600090a35050565b6001600160a01b03821661083157604051634b637e8f60e11b8152600060048201526024016103e4565b6107b182600083610912565b6001600160a01b0384166108675760405163e602df0560e01b8152600060048201526024016103e4565b6001600160a01b03831661089157604051634a1406b160e11b8152600060048201526024016103e4565b6001600160a01b03808516600090815260016020908152604080832093871683529290522082905580156106e957826001600160a01b0316846001600160a01b03167f8c5be1e5ebec7d5bd14f71427d1e84f3dd0314c0f7b2291e5b200ac8c7c3b9258460405161090491815260200190565b60405180910390a350505050565b6001600160a01b03831661093d5780600260008282546109329190610b9b565b909155506109af9050565b6001600160a01b038316600090815260208190526040902054818110156109905760405163391434e360e21b81526001600160a01b038516600482015260248101829052604481018390526064016103e4565b6001600160a01b03841660009081526020819052604090209082900390555b6001600160a01b0382166109cb576002805482900390556109ea565b6001600160a01b03821660009081526020819052604090208054820190555b816001600160a01b0316836001600160a01b03167fddf252ad1be2c89b69c2b068fc378daa952ba7f163c4a11628f55a4df523b3ef83604051610a2f91815260200190565b60405180910390a3505050565b600060208083528351808285015260005b81811015610a6957858101830151858201604001528201610a4d565b506000604082860101526040601f19601f8301168501019250505092915050565b80356001600160a01b0381168114610aa157600080fd5b919050565b60008060408385031215610ab957600080fd5b610ac283610a8a565b946020939093013593505050565b600080600060608486031215610ae557600080fd5b610aee84610a8a565b9250610afc60208501610a8a565b9150604084013590509250925092565b600060208284031215610b1e57600080fd5b610b2782610a8a565b9392505050565b60008060408385031215610b4157600080fd5b610b4a83610a8a565b9150610b5860208401610a8a565b90509250929050565b600181811c90821680610b7557607f821691505b602082108103610b9557634e487b7160e01b600052602260045260246000fd5b50919050565b8082018082111561036057634e487b7160e01b600052601160045260246000fdfea26469706673582212200fbffd9d03722321057de4d3c4e7b9e882d8d75588c507425277dba8c89671a064736f6c63430008140033",
  "linkReferences": {},
  "deployedLinkReferences": {}
}